:020000040800F2
:10000000781000204D460008E9450008EB4500083F
:10001000ED450008EF450008F1450008000000002C
:10002000000000000000000000000000F345000890
:10003000F545000800000000F7450008F9450008F4
:100040007D4600088146000885460008894600086C
:100050008D4600089146000895460008994600081C
:100060009D460008A1460008A5460008A9460008CC
:10007000AD460008B1460008B5460008B94600087C
:10008000BD460008C1460008C54600080000000043
:10009000000000000000000000000000C946000849
:1000A000CD460008D1460008D5460008D9460008CC
:1000B000DD460008E1460008E5460008E94600087C
:1000C000ED460008F1460008F5460008F94600082C
:1000D000FD46000801470008054700080000000031
:1000E000094700080D4700081147000800000000FC
:1000F000000000000000000000000000154700089C
:1001000000000000194700081D47000821470008AB
:1001100000000000000000000000000000000000DF
:1001200025470008294700082D47000831470008E7
:10013000354700080000000000000000000000003B
:10014000000000000000000000000000FD45000865
:10015000394700083D470008414700084547000867
:10016000494700084D47000800000000000000005B
:10017000000000000000000000000000000000007F
:1001800000000000514700080000000000000000CF
:100190005547000800F5E0700268914203D34368B8
:1001A0001A44914202D380680028F5D1704718495B
:1001B000086880B94FF4805048604FF480324FF0A7
:1001C000FF30C86008610420124B8A604861C3F8A0
:1001D000BC01114808600120704701F1080313F0C9
:1001E000070F0EBF0023C3F1080303F007031944F0
:1001F000D21A8161C26042F001034B60091D4FF0C9
:10020000280C41F802C0024A1369C361704700001C
:10021000580C0020EC0900206859883C2DE9F84F63
:1002200084B00646AFF30080F52E1E4D80F00F829D
:100230000B2E31BF10260B36F608F6002868F4089E
:10024000E04010F0030F4AD0C04300F00100041951
:1002500005F1280000EBC408E700D8F808607068D2
:10026000C008C000B84218BF01F0E2F9D6F8089003
:10027000464508BF01F0DCF94E4508BF01F0D8F94A
:100280007068C008C000B84218BF01F0D1F9C84575
:100290000AD12868012101FA04F420EA04042C6040
:1002A00010E000BFEC0900202869814508D3D9F887
:1002B0000C10B14204D1C8F80890C9F80C8001E0D4
:1002C00001F0B6F947F00300311D7060301DCA59C6
:1002D00042F00102C25106F1080800F010BFA968FF
:1002E000B14280F09F83002800F0A2804FF0010807
:1002F00008FA04F1490000FA04F4484201430C40B2
:1003000060420440641E200B00F01000C4406109EC
:1003100001F00801CC40A20802F00402D4406308B6
:1003200003F002030818DC401018C4F34007181843
:100330003818FC40241805F1280000EBC40AE70037
:10034000DAF80890D9F80400C008C000B84218BF15
:1003500001F06EF9D9F808B0D14508BF01F068F98D
:10036000D94508BF01F064F9D9F80400C008C000FD
:10037000B84218BF01F05CF9DA4506D1286808FADE
:1003800004F420EA04042C600DE029698B4508D3AD
:10039000DBF80C00484504D1CAF808B0CBF80CA033
:1003A00001E001F045F9BF1B46F0030009F104022A
:1003B000C9F8040047F00101915109EB06020192CE
:1003C000D751AC684FEAD40ABAF11F0F88BF01F0C9
:1003D0002FF934B3CDF800A005F128006E6900EBC9
:1003E000CA0AD346102C38BF01F022F929680098B8
:1003F00021FA00F2D30704D408FA00F00843286079
:1004000007E0DAF80800296988422CBF834601F02A
:100410000FF9CAF80860CBF80C60C6F808B0C6F847
:100420000CA0AF6009F108080198686100F067BE90
:100430006868002800F0178341420840401E010B05
:1004400001F01001C840420902F00802D0408308C0
:1004500003F00403D840440804F002045118E040BB
:100460005918C0F34007611805F598787918F840D5
:10047000401858F820104868C008C0008A46A0EB11
:10048000060B08E001464868C008C000801B5845BC
:100490003CBF83468A4608690028F3D14969002990
:1004A000F1D128698245C0F0CF80DAF80410C9087C
:1004B00006EB0B09C900494518BF01F0B9F80AEB72
:1004C00006008245019080F0BF80DAF80C40DAF82F
:1004D000187054450DD0DAF808002969884223D3F2
:1004E000C268524504BFA16851451DD1C460A060D7
:1004F0001CE00AF114010C6834B90AF110010C680F
:10050000A4B101E011460C6804F11402106800283F
:1005100002BF04F1100210680028F3D1286981425B
:1005200002D300220A6001E001F082F8002F34D0EB
:10053000DAF81C0008EB800001688A4509D10460E4
:1005400094B9DAF81C00696801228240914369601D
:1005500023E02869874205D33969514514BF7C617E
:100560003C6101E001F064F8BCB129698C4212D30E
:10057000A761DAF8100028B1884226BF20618461A3
:1005800001F056F8DAF8140038B12969884202D32C
:100590006061846101E001F04BF8BBF1100F0ED2F5
:1005A00049F003000AF10401CAF804000AF104004A
:1005B00051F8092042F0010240F809203EE046F0DF
:1005C00003010AF10402CAF804104BF00100905133
:1005D000019941F80BB0A8680090C4081F2C88BF8F
:1005E00001F026F8009828B305F1280000996F69FA
:1005F00000EBC408C146102938BF01F019F828687B
:1006000020FA04F1CA0705D4012101FA04F40443D5
:100610002C6007E0D8F80800296988422CBF814681
:1006200001F006F8C8F80870C9F80C70C7F808900F
:10063000C7F80C80C5F808B0019868611AF108087D
:1006400000F0F08100F05BBD00F0F2FFEAE116F18E
:10065000400F28BF4FF0FF3680F0E4810B36F608DC
:100660006B68F600002B00F0DD810027300AC6F130
:10067000000908BF002423D0B0F5803F28BF1F2405
:100680001ED2A0F58071090C01F008018840A0F588
:100690008052120C02F004029040A0F58044240C19
:1006A000C1F10E0104F00204891A091BA04001EBFC
:1006B000D031C81D26FA00F404F0010404EB410413
:1006C00005F5987858F8240030B31F2C0FBFB446B6
:1006D0004FEA540CCCF1190C06FA0CFCBE46494604
:1006E00001E04FEA4C0C4268D208D200921B8A42C9
:1006F00002D2110007460CD0426910304FEADC7973
:1007000050F82900002A1CBF824296460028E8D1F2
:1007100070468946A8BBB7BB012101FA04F4640006
:1007200060420443234000F07D81584203405B1E39
:10073000180B00F01000C340590901F00801CB402C
:100740009A0802F00402D3405C0804F0020408187E
:10075000E3401018C3F3400C2018604423FA0CF354
:100760001B1858F823000CE008464168C908C90066
:10077000891B49453CBF8946074601690029F3D1D9
:1007800040690028F1D1002F00F04C81A868801B3F
:10079000814580F0478129698F42FFF455AF786821
:1007A000C008C00006EB0901884218BF00F040FFF6
:1007B00007EB060B5F45BFF447AFFC68D7F818A0FE
:1007C000BC420CD0B8682969884223D3C268BA42B7
:1007D00004BFA168B9421DD1C460A0601CE007F14C
:1007E00014010C6834B907F110010C68A4B101E0E0
:1007F00011460C6804F114021068002802BF04F1CD
:10080000100210680028F3D12869814202D3002227
:100810000A6001E000F00CFFBAF1000F34D0F86973
:1008200008EB800001688F4208D10460A4B9F86920
:100830006968012282409143696025E02869824508
:1008400008D3DAF81010B94214BFCAF81440CAF835
:10085000104001E000F0ECFEB4B129698C4211D3E4
:10086000C4F818A0386928B1884226BF2061846185
:1008700000F0DEFE786938B12969884202D36061F0
:10088000846101E000F0D4FEB9F1100F0CD2B14444
:1008900049F00300391D7860381D51F8092042F0F5
:1008A000010240F80920B9E046F003013A1D7960E1
:1008B00049F0010090514FEAD9004BF809901F28E8
:1008C00022D805F1280101EBC004296821FA00F2C1
:1008D000D307A04605D4012202FA00F0084328609D
:1008E00006E0A068296988422CBF804600F0A0FE7F
:1008F000C4F808B007F10800C8F80CB040F806804A
:1009000007F10C018C5189E05FEA192008BF002132
:1009100023D0B0F5803F28BF1F211ED2A0F58072E2
:10092000120C02F008029040A0F58051090C01F071
:1009300004018840A0F580431B0CC2F10E0203F0B5
:100940000203521AD21A984002EBD032D01D29FA73
:1009500000F101F0010101EB420107F11403CBF8B2
:100960001C1000229A5107F1100308EB81009A51E4
:100970006A6822FA01F3DC0711D4012303FA01F1BA
:1009800011436960C0F800B0CBF8180007F1080106
:1009900007F10C0040F806B041F806B03EE00268EE
:1009A0001F291DBF4908C1F1190109FA01F1494682
:1009B00000E002465068C008C000484518D002F167
:1009C0001003C80F03EB8003490018680028F0D11A
:1009D0002869834220D3C3F800B007F10C01CBF89B
:1009E000182041F806B007F1080040F806B015E0FD
:1009F000296990688A4228BF88420DD3C0F80CB09C
:100A000007F10801C2F808B0885107F10C008251C3
:100A10000022CBF8182001E000F00AFE17F10808C8
:100A200040F06D83A868B0421DD3811B6A6910290C
:100A30000AD390196861A96041F0010343604150F5
:100A400046F0030656600BE00021A9606961131DA2
:100A500040F003015160111D1C5844F001040C507A
:100A600002F108084BE3E8688642C0F03883DFF8FB
:100A7000B89BD9F8000008B9FFF799FBD9F808101E
:100A800088192F30491E20EA01018E4280F03583FB
:100A900005F5D877B86838B13A6889188A4280F085
:100AA0002C838842C0F0298300F0E2FD00281CBF9F
:100AB000D0F8008010F1010F00F01F8339687A68C8
:100AC000414439608A4238BF7960AC6904BB296906
:100AD00009B1884200D2286100213861C7F814802A
:100AE000F9614FF0FF31D9F800206A62296205F1FF
:100AF00028020021D260926002F10804546114615E
:100B0000891C10321F29F5D9A8F1280201461DE0E1
:100B100005F5E0710A46814600E09268D2B110689E
:100B2000536803449945F8D1107B030712D4136826
:100B30009C420FD3D2F804C063449C420AD2C444FE
:100B4000C2F804C02146E86808EB00022846FFF717
:100B500044FBC1E22869814538BFC5F8109009EB14
:100B6000080000E08968002900F0BD810A6882421F
:100B7000F8D1087B020700F1B6810868C1F800903F
:100B80004A6842444A6009F1080111F0070F08BFA2
:100B9000CDF8049006D0C1F1080101F0070109EB7E
:100BA0000102019200F1080111F0070F04D0C1F118
:100BB000080101F00701084480460198A8EB0001F4
:100BC0008419A1EB060B274646F00306466047450D
:100BD00028BF00F02DFD98F80400C10758BF00F0B1
:100BE00027FDBBF1100F38BF00F022FDA86980453A
:100BF00008D1E9688B44C5F80CB0AF614BF0010037
:100C000078606CE1686980450AD1A9688B44C5F8B1
:100C100008B06F614BF00100786047F80BB05EE1FF
:100C2000D8F8040000F00301012940F0B880C008A2
:100C3000C000C1081F29039040D8D8F808200092AE
:100C4000D8F80C600291B04508BF00F0F1FC0098A4
:100C5000804508BF00F0ECFCD8F804000299C008F9
:100C6000C000B0EBC10F18BF00F0E2FC0299009A7F
:100C700005F1280000EBC100824208D011462A6924
:100C80009142C0F08780CA68424540F08380009955
:100C90008E4206D102982A68012383409A432A6033
:100CA0007AE0864205D029698E4273D3B068404508
:100CB00070D10098C6600099B1606DE0D8F8180056
:100CC0000090D8F80C6046450DD0D8F80800296986
:100CD000884223D3C268424504BFB16841451DD153
:100CE000C660B0601CE008F114010E6836B908F166
:100CF00010010E68A6B101E011460E6806F114025B
:100D00001068002802BF06F1100210680028F3D115
:100D10002869814202D300220A6001E000F088FCC9
:100D20000098002838D0D8F81C0005F5987101EB20
:100D300080000168884509D106609EB9D8F81C007A
:100D40006968012282409143696025E00098296921
:100D5000884205D30169414514BF4661066101E03F
:100D600000F066FCC6B129698E4213D30098B061C9
:100D7000D8F8100028B1884226BF3061866100F0A3
:100D800057FCD8F8140038B12969884202D3706141
:100D9000866101E000F04CFC039988448B44D8F84C
:100DA000041049084900C8F804104BF001007860AD
:100DB0004FEADB0647F80BB01F2E22D805F12800BA
:100DC00000EBC604A146BBF1100F38BF00F030FCA9
:100DD000286820FA06F1CA0705D4012101FA06F6AF
:100DE00006432E6006E0A068296988422CBF814630
:100DF00000F01EFCA760C9F80C70C7F80890FC60F2
:100E00006DE05FEA1B2008BF002123D0B0F5803FD2
:100E100028BF1F211ED2A0F58072120C02F008021A
:100E20009040A0F58051090C01F004018840A0F524
:100E300080431B0CC2F10E0203F00203521AD21AB5
:100E4000984002EBD032D01D2BFA00F101F00101E5
:100E500001EB4201F961002305F598727B6102EB19
:100E600081003B616A6822FA01F3DE0707D401239F
:100E700003FA01F1114369600760B8611DE002687F
:100E80001F291DBF4908C1F119010BFA01F159468B
:100E900000E002465068C008C000584510D002F17A
:100EA0001003C80F03EB8003490018680028F0D135
:100EB0002869834211D31F60BA61FF60BC600EE0F5
:100EC000296990688A4228BF884206D3C760946027
:100ED000B860FA600020B86101E000F0A9FB019859
:100EE00000F108080BE121462846FFF753F9016895
:100EF000406808440090A0F1270111F00700009815
:100F00000EBF0021C1F1080101F007010844A0F162
:100F10002F0B04F110018B4538BFA3460BF11802CB
:100F2000002102920191A8F1280249462846FFF7C4
:100F300054F90BF1080010F0070F18BF00F078FB10
:100F40001B20CBF8040005F5E07292E809500BF184
:100F5000080181E8095000210BF10800F961B8612E
:100F6000009A02980199C7F81090C7F814800723D7
:100F700000E0001D491C00F1080797424360F8D3C8
:100F80000129D8BF00F054FBA34500F0A580ABEBCE
:100F9000040B201D221D50F80B104908490042F88F
:100FA0000B104BF0010060604FEADB0944F80BB016
:100FB000B9F11F0F22D805F1280000EBC907B84688
:100FC000BBF1100F38BF00F033FB286820FA09F19D
:100FD000CA0705D4012101FA09F10843286006E097
:100FE000B868296988422CBF804600F021FBBC60AC
:100FF000C8F80C40C4F80880E7606DE05FEA1B2089
:1010000008BF002123D0B0F5803F28BF1F211ED28A
:10101000A0F58072120C02F008029040A0F58051F9
:10102000090C01F004018840A0F580431B0CC2F1BB
:101030000E0203F00203521AD21A984002EBD03289
:10104000D01D2BFA00F101F0010101EB420105F581
:101050009872002302EB8100E161636123616A6899
:1010600022FA01F3DF0707D4012303FA01F1114348
:1010700069600460A0611DE002681F291DBF490866
:10108000C1F119010BFA01F1594600E0024650681E
:10109000C008C000584510D002F11003C80F03EB80
:1010A0008003490018680028F0D12869834211D3D1
:1010B0001C60A261E460A4600EE0296990688A4225
:1010C00028BF884206D3C4609460A060E26000201C
:1010D000A06101E000F0ACFAE86886420DD2801B06
:1010E000A969E8608A19AA6140F00100506046F0E1
:1010F00003064E6001F1080801E04FF00008AFF36D
:101100000080404605B0BDE8F08F002800D1704750
:101110002DE9F047A0F10805AFF30080DFF80C657A
:1011200031698D42C0F07A82686800F00302012ABA
:1011300000F07482C2084FEAC209C20705EB090831
:1011400039D42C6810F0030F00F06A826042054425
:101150008D42A144C0F062827069854200F0DA805D
:10116000E408202C72D2D5F80CA0AF68554508BF12
:1011700000F05EFABD4208BF00F05AFA6868C00885
:10118000C000B0EBC40F18BF00F052FA06F12800FF
:1011900000EBC400874205D031698F4253D3FA680F
:1011A000AA4250D1BA4540D13068012101FA04F475
:1011B00020EA04043460454580F03082D8F80440C9
:1011C000E00740F12B82A10700F17C81B0698045E6
:1011D00040F0B380F168B5618944C6F80C9049F0DD
:1011E0000100686071698D4202D100207061B060B9
:1011F000F169494580F01482DFF82C24106808B9A1
:10120000FEF7D5FFB169002900F00A82F0682928AD
:1012100024BF3046FEF7BEFFF069F168884280F0D7
:10122000FF814FF0FF30F061FAE1824506D030696E
:10123000824508D3DAF80810A94204D1C7F80CA0F7
:10124000CAF80870B7E700F0F3F9B4E7EC68AF69E3
:10125000AC420BD0A868884222D3C168A94204BF1F
:10126000A268AA421CD1C460A0601BE005F1140270
:10127000146834B905F1100214689CB101E01A46F3
:10128000146804F114031868002802BF04F1100365
:1012900018680028F3D18A4202D30021116001E0CE
:1012A00000F0C6F9002F86D0E96906F5987000EBCA
:1012B00081000268954209D10460200011D1E869DB
:1012C0007168012282409143716074E730698742FE
:1012D00005D33969A94214BF7C613C6101E000F08B
:1012E000A7F9002C3FF467AF31698C42ABD3A761FB
:1012F000286928B1884226BF2061846100F098F9EE
:10130000686900283FF457AF316988429BD3606118
:10131000846150E798F8040000F0030003287FF48C
:101320004AAFC6F8089049F00101D8F80400400817
:101330004000C8F8040069600AE0706980450AD17D
:10134000B16875618944C6F8089049F00100686089
:1013500045F8099064E1E408E400A144E408202C85
:101360003AD2D8F80CA0D8F80870D04508BF00F0E1
:101370005FF9B84508BF00F05BF9D8F80400C00871
:10138000C000B0EBC40F18BF00F052F906F12800FE
:1013900000EBC400874207D031698F42C0F08580DE
:1013A000FA68424540F08180BA4507D13068012192
:1013B00001FA04F420EA0404346078E0824506D09F
:1013C0003069824571D3DAF8081041456DD1C7F80C
:1013D0000CA0CAF808706AE0D8F80C40D8F8187069
:1013E00044450DD0D8F808003169884223D3C2683B
:1013F000424504BFA16841451DD1C460A0601CE006
:1014000008F114010C6834B908F110010C68A4B19A
:1014100001E011460C6804F114021068002802BFB4
:1014200004F1100210680028F3D13069814202D320
:1014300000220A6001E000F0FBF8002F37D0D8F856
:101440001C1006F5987000EB8100026890450AD1E7
:101450000460200012D1D8F81C007168012282407B
:101460009143716023E03069874205D33969414572
:1014700014BF7C613C6101E000F0DAF8BCB1316975
:101480008C4212D3A761D8F8100028B1884226BF39
:101490002061846100F0CCF8D8F8140038B13169CB
:1014A000884202D36061846101E000F0C1F849F034
:1014B0000100686045F8099071698D420BD1C6F84A
:1014C0000890ADE064086400C8F8044049F00100E9
:1014D000686045F809904FEAD907202F22D206F11B
:1014E000280000EBC704A046B9F1100F38BF00F088
:1014F0009FF8306820FA07F1CA0705D4012101FAE4
:1015000007F70743376006E0A068316988422CBFBF
:10151000804600F08DF8A560C8F80C50C5F808802A
:10152000EC607DE05FEA192008BF002123D0B0F510
:10153000803F28BF1F211ED2A0F58072120C02F03E
:1015400008029040A0F58051090C01F00401884088
:10155000A0F580431B0CC2F10E0203F00203521AE5
:10156000D21A984002EBD032D01D29FA00F101F0D6
:10157000010101EB420106F59872002302EB8100A4
:10158000E9616B612B61726822FA01F3DC0707D411
:10159000012303FA01F1114371600560A8611DE0A8
:1015A00002681F291DBF4908C1F1190109FA01F19B
:1015B000494600E002465068C008C000484510D0C7
:1015C00002F11003C80F03EB8003490018680028DC
:1015D000F0D13069834211D31D60AA61ED60AD6026
:1015E0000EE0316990688A4228BF884206D3C56000
:1015F0009560A860EA600020A86101E000F018F89A
:10160000306A401E30620BD1D6F8C80100E0806815
:101610000028FCD14FF0FF30306201E000F008F804
:10162000AFF30080BDE8F087580C0020EC090020E3
:10163000012000F033B830B4002513E050F8042B3B
:10164000D30744BFA9F101039A18091F042942F8DE
:10165000045BFAD213468C0744BF15809B1CC90754
:1016600048BF1D7050F8041B0029E7D130BC7047FB
:101670000749086808B1002070470648C008C00044
:1016800008600549C908C900091A0160704700BF10
:10169000700C00207F1000207812002080B5AFF37E
:1016A0000080024A11001820ABBEFBE726000200B2
:1016B0000EB418B504460898012817D1A06B20F481
:1016C0008030A063E168DFF81C080140E160E16858
:1016D00021F44011E1600F98012803D1E06840F443
:1016E0008010E060204600F0E8FB0FE0E06840F08A
:1016F0004000E060204600F0E0FB0C990029A16B5F
:101700000CBF41F4803121F48031A1630699012995
:1017100007D1A16841F00601A160A16841F0200154
:10172000A16012BC5DF810FB10B5022A58D1DFF899
:10173000B827DFF8B83752189A4238BF4FF47051C3
:1017400050D3DFF8AC27DFF8AC3752189A4238BFD5
:101750004FF4605146D3DFF8A027DFF8A0375218C6
:101760009A4238BF4FF450513CD3DFF8B427DFF82A
:10177000B43752189A4238BF4FF4405132D3DFF891
:10178000A827DFF8A83752189A4238BF4FF43051D3
:1017900028D3DFF89C27DFF89C3752189A4238BFCD
:1017A0004FF420511ED3DFF89027DFF890375218FE
:1017B0009A4215D3DFF88847DFF8882764189442E7
:1017C00038BF4FF400510DD3DFF87C27DFF87C37AA
:1017D000511899422CBF4FF4C0514FF4E05101E031
:1017E0004FF41051C26822F47052C260C2681143B3
:1017F000C160002010BD816841F0010102E08168F4
:101800004908490081600020704780B5C26822F015
:10181000C0420129C26005D1C16841F00051C160D8
:101820003220DAE219B9C16841F08041F7E70120BE
:1018300002BD0EB42DE9F043054604460026002102
:10184000002004EB8102491C0F29C2F80401F8D3DF
:10185000DDF84490B9F1000F06D1A06B40F4001000
:10186000A06300F054FB07E0206820F40010206023
:10187000A16B41F40021A16305F5606105F50067E6
:101880000E603A683A600C98012805D1099A002A3E
:1018900014BF0121002100E00321204600F096F84A
:1018A0001021204600F076F800B10126204600F015
:1018B00080F800B101260020386178612A46F8617D
:1018C0004FF67F334FF0904C4FF0006E002503E051
:1018D0000D600D618B60401C0799884211D202EBAC
:1018E000401101F51061D1F80080B8F1000FEFD57B
:1018F000002806BF02F51068C8F800E0C1F800C073
:10190000E7E7002003E00D600D618B60401C079944
:10191000884211D202EB401101F53061D1F800800C
:10192000B8F1000FEFD5002806BF02F53068C8F8FF
:1019300000E0C1F800C0E7E7386920F48070386142
:101940000A98012808D1DFF8081639633A6B42F487
:10195000803242F003023A63A5616FF08042626117
:1019600000F0CEFADFF8EC050143A1610D9818B143
:10197000A06940F00800A061B9F1010F05D1A0698C
:1019800040F0804040F00400A0613046BDE8F00324
:101990005DF810FB890141F020010161DFF8B81505
:1019A000491E04D002699306FAD400207047032030
:1019B000704710210161DFF8A015491E04D00269AB
:1019C000D306FAD4002070470320704700F500606A
:1019D00002681143EFE100F50060806810F0060036
:1019E00006D0022818BF062801D1022070470F2018
:1019F000704770B50C784E782546012304F00F042B
:101A000000EB451203FA04F4012E00F50060DFF844
:101A10004C350DD1C669A4B2344302F51062C461DD
:101A20001068040412D400F013F844EA85540AE064
:101A3000C56945EA044502F53062C56110680404D1
:101A400004D400F005F8234303431360002070BD65
:101A500010688C68C978C4F30A0444EA814470476A
:101A6000D06B097801F00F018B40704730B50B78CF
:101A70004D7800EB431200F500600124012D03F0C6
:101A80000F03C56B04FA03F30FD19BB225EA0303DE
:101A9000C36302F5106200F019F8A4B223EA04044B
:101AA000C4611168DFF8B8040CE025EA0345C5639A
:101AB00002F5306200F00AF823EA0443C3611168BA
:101AC000DFF8A00401401160002030BDC36909782F
:101AD00001F00F018C407047F8B50B78DFF888648F
:101AE000DFF8887400EB43154B78012B00F5006498
:101AF00060D14B6905F51065002B2B6909D11F409A
:101B00002F612E6946F400262E612B69DB0CDB0465
:101B100022E0DB0CDB042B612B691F402F618B68FB
:101B20002F69D1F814C09C44ACF1010CBCFBF3F359
:101B300006EAC3463E432E612B694E69C6F3120680
:101B400033432B61CB78012B07D12B6923F0C043A2
:101B50002B612B6943F000532B61012A03D10869E3
:101B6000002852D050E02B6843F004432B60CE781D
:101B7000012E0BD0486900285AD0606B09780122E9
:101B800001F00F018A401043606351E0A368DC0557
:101B900004D42B6843F000532B6003E02C6844F01E
:101BA00080542C6000920A784B69C9689BB200F09F
:101BB000A5F83DE005F530652869C00CC004286132
:101BC000286907402F618B68486940B92869C3F3C9
:101BD000120303432B61286940F400200FE018181A
:101BE000401EB0FBF3F080B22B6906EAC0461E43EC
:101BF0002E612B698E687043C0F312001843012ACE
:101C0000286102D1C86800B16861C87801280BD189
:101C1000A068C10504D4286840F00050286003E0A3
:101C2000296841F080512960286840F0044028600C
:101C30000020F2BD30B50B78DFF8305300EB4314D1
:101C40004B78012B38D14B6904F51064002B2369C4
:101C500009D11D402561256945F4002525612369C9
:101C6000DB0CDB0414E0DB0CDB04236123691D4087
:101C700025618B684D69AB4288BF2B464B61236958
:101C800043F40023236123694D69C5F312052B43F7
:101C9000012A236101D1086928E0236843F0044345
:101CA00023604A6942B300F500600123426BFFF7ED
:101CB000D8FE1A4342631FE004F530642069C00C6B
:101CC000C004206123691D402561486908B1886806
:101CD0004861206940F40020206120698B68C3F3CB
:101CE00012031843012A206102D1C86800B1606163
:101CF000206840F004402060002030BDB8B5059C4D
:101D000064B9DB1C07E000EB023751F8045B07F510
:101D10008057641C3D60B4EB930FF4D30020B2BD38
:101D200010B5D21C002305E000F580545B1C24682C
:101D300041F8044BB3EB920FF6D3084610BD0A7876
:101D4000497800EB421001290CBF00F5106000F546
:101D500030600168002904D41AB1016821F0804183
:101D60000160026842F400120260002070470A78A5
:101D700000EB42104A78012A0CBF00F5106000F514
:101D80003060026822F400120260C978032918BF8B
:101D9000022903D1016841F08051016000207047A1
:101DA00000F500600901026822F4FE62026001F49D
:101DB000FE610368194301600020704780B500F59B
:101DC0000060416821F0020105E080B500F5006087
:101DD000416841F002014160032000F0CFF800208B
:101DE00002BD0146486989690840704700F50061F5
:101DF0008869C9690840000C704700F5006188696E
:101E0000C969084080B27047024602EB411000F5F4
:101E1000306002F5006280685169084070470246F0
:101E200002F5006302EB411218695B6B01F00F01D0
:101E300002F51062CB40DB01926803F08003184387
:101E400010407047406900F00100704700F51061D4
:101E500000F500600A68D20AD2020A60826802F0C5
:101E60000602042A03D10A6842F003020A604168AC
:101E700041F480717EE010B5036CDFF8F440A342BA
:101E800000F5306002D30368002B14D400230361F3
:101E90000129046944F400240461036943F0180330
:101EA0000361036943F0C043036104D142610168E7
:101EB00041F080210160002010BDDFF89C20114618
:101EC000491E0DD00369002BFAD5016941F00101CB
:101ED0000161521E04D00169CB07FAD4002070477B
:101EE00003207047BFFFBDFF405327FF00350C00A4
:101EF000401E1BFF40420F0000DC0BFF804F120012
:101F000018B9A06940F01000A061A1697047A06BEA
:101F100020F40020A063A06B20F48020A063704711
:101F2000808CF9FE20D6130060B6E5FE60E3160053
:101F300000D3CEFE40771B00C05BB3FEC0912100F2
:101F400000CA91FE20753800E05459FEE09C410023
:101F50000001800000383C80410D0300008000102B
:101F6000007833EC0078F3EF0000F81FFFFF07E084
:101F70000B30544F416000207047000038B50446D4
:101F800000F010F814F1010F054602D00448017862
:101F9000641800F007F8401BA042FAD331BD00BF1F
:101FA0000000002001484068704700BF000000208A
:101FB00070B504008AB04BD0266804F56F75687858
:101FC00020B900212970204600F018FC0320687019
:101FD000F16BC8055CBF002121612068FFF70FFC91
:101FE00083B000F048F80EBC2068FFF761FB0028C2
:101FF0002CD120680021FFF708FC00211C200026BE
:102000000AE010FB01F222443C32012353701170AC
:10201000D180002300F028F862689142F1D30021BA
:1020200009E010FB01F2224402F5FE720023117058
:10203000537000F019F862689142F2D383B000F057
:102040001AF80EBC2068FFF7F4FB18B10220687084
:10205000012007E084F83800012169702068FFF74B
:10206000B4FE00200AB070BD491CD6709360D660E3
:102070005361C9B27047211D6846342200F0DABCB2
:1020800010B500F0B5FA01D1022010BD00F0B6FA8B
:102090002068FFF7B0FBC0E22DE9F04F054685B0A0
:1020A000286802900190FFF7CDFE002840F08A8258
:1020B00000F095FA002800F0858200F090FA800781
:1020C00004D52868416901F00201416100F087FAF6
:1020D000000340F1B5802868DFF8F0B4FFF786FE12
:1020E0002E464FF0000805004FF4004744E0DFF8AB
:1020F000E024924519D115E010B12020CAF808005B
:1021000000F068FA5FEA09701BD53168D1F840A089
:1021100001EB481101F5306188683269012AE6D186
:10212000DA4502D3000448BF8F60304600F0A4FBBC
:10213000DA4504D33069012801D100F053FA0820B0
:10214000A0605FEAC96044BF1021A1605FEA8960B6
:1021500009D53169012904D1306806F57172FFF79C
:102160008AFE2020A0605FEA894044BF4FF40051FE
:10217000A16008F101086D0861D0E807F9D5306861
:102180005FFA88F1FFF740FE019C814604EB48149A
:102190005FEAC97004F53064B4D50121A1603068EC
:1021A000016C00EB481000F5306ADAF8082033695A
:1021B000012B02F0200037D113070ED5594503D368
:1021C000110448BFCAF80870304600F055FB00F013
:1021D00009FA0820CAF8080094E708B12020F9E7B6
:1021E00012F0280F8ED1594501D3110424D41C209C
:1021F00000FB08F0304400F501700168DAF81020A7
:10220000C2F31202891A0161026841680A444260FD
:1022100000F0E0F9B8F1000F04BFD6F81002002872
:1022200001D100F0DFF96DE7DFF8A43399427FF4C4
:1022300067AF11047FF560AFCAF8087062E73546F2
:1022400000F0CDF9400340F1A3802868FFF7D5FDE9
:102250000600019800F500604FF00008049034E09B
:10226000D4F808B0411A8B4588BF8B460BF10300A8
:102270004FEA90092869C0B200901FFA8BF3E16819
:102280005FFA88F25046FFF739FDE0685844E06095
:10229000A1698B44C4F818B00AEB48126069A169BF
:1022A00002F5106293699BB24B4503D3814201D280
:1022B0000028D5D1814205D30AF50067796B0398D0
:1022C0000140796308F10108760861D0F007F9D57B
:1022D00028685FFA88F1FFF7A2FD0746019800EB36
:1022E000481000F510691C22012108F00F0002FBC4
:1022F00008F28140AC18C943F807039120D504992E
:102300004A6B039802404A630120C9F80800296912
:10231000012903D1A06C616C0144A1645FFA88F1CA
:10232000284600F0B9FA2869012808BFB8F1000F63
:1023300006D1286D20B9286805F5717200F055F9AD
:10234000380744BF0821C9F80810F80644BF102117
:10235000C9F80810780644BF4021C9F80810B8072A
:1023600044BF0221C9F808103806ABD53C34A06937
:102370006169D5F800A08142A4D3D4F80890081A66
:10238000814588BF814609F103004FEA900983E740
:1023900000F025F9002819D5019800F50060416882
:1023A00049084900416095F8F403012806D100214D
:1023B00085F8F413284600F06EFB02E0284600F092
:1023C0009FFA2868416901F0004141612868019E37
:1023D000FFF707FD000506F500660AD5B168C807D6
:1023E00044BF284600F077FA2868416901F400618B
:1023F000416105F5717400F0F2F8C0044CD57168C4
:1024000049084900716010212868FFF7C3FA019854
:1024100000214FF67F3212E000EB411303F5106705
:1024200003F53063BA60491CD7F800C02CF4001CD7
:10243000C7F800C09A601F6827F400171F606B6818
:102440009942E9D3F06940F00110F061286B50B176
:10245000D6F8840040F00B00C6F88400706C40F0A1
:102460000B00706409E0706940F4005040F02B00EC
:102470007061306940F00B0030612246306820F412
:10248000FE60306029692868C9B2FFF7F4FC28684B
:10249000416901F48051416100F0A1F8800416D532
:1024A0002868FFF7D3FC2868FFF795FAE86000F08A
:1024B00078FB0146EA682868D2B2FFF735F928466A
:1024C00000F0F7F92868416901F40051416100F01A
:1024D00086F8C00635D52868816921F01001816130
:1024E0000298066A06F00F011C204143681800F5A7
:1024F000FE77C6F34340022812D147F6F070064239
:102500001AD0F9680298C6F30A12FFF709FCF968B5
:10251000BA69C6F30A1001448018F960B8610BE08B
:10252000062809D1029808222146FFF7F9FBB9696C
:10253000C6F30A104118B9612868816941F0100199
:10254000816100F04CF8000707D5284600F0ADF98E
:102550002868416901F00801416100F040F8C002BB
:1025600008D50021284600F0D3F92868416901F414
:102570008011416100F033F8800208D5002128461F
:1025800000F0C2F92868416901F40011416100F0CE
:1025900026F8400007D5284600F0BEF928684169B2
:1025A00001F08041416100F01AF840070AD529681E
:1025B0004C68600744BF284600F0B2F928684168BB
:1025C0002143416005B0BDE8F08F00000B30544F4F
:1025D0000A31544F5FFA88F1304600F053B9286849
:1025E000FFF7FFBB306806F571720121FFF743BCAE
:1025F000044694F8BC232068012A7047A36A01228C
:10260000012B84F8BC2306D1A269012A03D0826B76
:1026100042F480328263FFF7D1BB002084F8BC0310
:1026200010BD10B500F00BF801D1022010BD00F074
:102630000BF884F838102068FFF7B2FBEDE704468A
:1026400094F8BC0301287047012084F8BC0370474C
:1026500038B5054601F00F041C20444328190C0628
:1026600047BF00F13C04012000F5FE74002001F09A
:102670000F0160702170A260E370607808B121786A
:10268000E180022B04BF0020207195F8BC030128D3
:1026900001D1022032BD012085F8BC032146286803
:1026A000FFF7A7F974E010B5044601F00F0200F03F
:1026B00097F800F088F801D1022010BD00F08AF8E8
:1026C000FFF7D4F9A9E738B500F01EF803F5FE735B
:1026D000002500F020F808BF1A6108E038B500F0C6
:1026E00013F83C33012500F016F808BF1A6102699F
:1026F00000680029D2B2194602D1FFF79BFA01E027
:10270000FFF7EAF9002032BD1C4601F00F051C233B
:102710005D43431970475C6101F00F0100249C6127
:10272000DA605D7019700469012C704738B5054690
:102730000C46696804F00F00814201D2012032BDCD
:102740001C21220605D54843284400F13C01012004
:1027500005E011FB04F1681800F5FE7100204870D7
:1027600001228A7004F00F040C7095F8BC03012854
:1027700001D1022032BD85F8BC232868FFF7DFFABB
:1027800034B92969286805F57172C9B2FFF773FB7E
:10279000002085F8BC0332BD10B5044601F00F02DD
:1027A0006068904201D2012010BD00F019F80023AA
:1027B000837000F008F801D1022010BD00F00AF883
:1027C000FFF7D5FA29E701F00F01017094F8BC1367
:1027D00001297047012284F8BC2301462068704714
:1027E0001C204243A0180A0603D53C300123437045
:1027F000704700F5FE7000224270704710B586B039
:102800000446142101A800F01DFA2268B2F1A04F7D
:1028100030D100205B4C00900222216841F0010180
:1028200021604FF4C051206800F001000090009832
:102830005548019102920021039103220A2105913A
:10284000049201A900F002FA606840F08000606024
:10285000002100910022606940F48040606160695D
:1028600000F4804000900098432000F0E7FA4320F5
:1028700000F001FB06B010BD00F57171D0F8040442
:1028800000F054BB0B461C225343C218D0F804047A
:10289000D2F8082200F074BB0B461C225343C21826
:1028A000D0F80404926C00F0ACBBD0F8040400F043
:1028B00039BC10B50446E068022818BF00F0ACFC33
:1028C000D4F80404012100F01CFCD4F80404BDE891
:1028D000104000F0EDBB10B50446D4F8040400F03D
:1028E00013FC206800F56060016841F0010101609F
:1028F000206A20B12548016841F00601016010BD41
:10290000D0F8040400F008BCD0F8040400F018BCAF
:10291000D0F8040400F012BCD0F8040400F012BC9B
:10292000D0F8040400F010BC10B5017839BB184C85
:10293000C4F80404C0F898424FF0A040206004217D
:10294000002002222061E06120626062E062206378
:102950006160E260A2612046FFF72AFB08B100F047
:102960005BFC8021204600F092F8402200212046A6
:1029700000F06CF880220121204600F067F800206A
:1029800010BD0000303802400000024010ED00E0B1
:102990004801002080B5D0F89802FFF771FBBDE830
:1029A00002403DE010B51C461346D0F8980222467E
:1029B000FFF74EFEBDE8104032E080B5D0F8980237
:1029C000FFF771FEEBE780B5D0F89802FFF7AEFE97
:1029D000E5E780B5D0F89802FFF7DEFEDFE7D0F834
:1029E000982201F07F031C204343D018090602D52A
:1029F00090F83E00704790F8FE01704780B5D0F81F
:102A00009802FFF70EFECAE780B5D0F89802FFF7EC
:102A100065FEC4E780B5D0F89802FFF754FEBEE724
:102A20000146002021B1022901D101207047022076
:102A3000704700004AB1000011F8013B521E00F837
:102A4000013B1CBF11F8013BF8E7704770B5006807
:102A5000436A0C0003D143EA0242826215E0846AB1
:102A600003EB1443002406E000EB8505641CD5F855
:102A7000046103EB1643E5B24E1EB542F4D300EBFE
:102A8000810043EA0242C0F80021002070BD0068C6
:102A900041620020704770472DE9F04104000F4665
:102AA00054D04A4E306800F00F00B84202D200F015
:102AB00072F84BD12068464D810712D5400703D5E7
:102AC000A96841F4E051A9602078010703D5A868FE
:102AD00040F46040A860A968A06821F0F0010143BB
:102AE000A9602178C80729D56068012802D1296822
:102AF0008A0305E0022818BF032803D129688A0148
:102B000003D423E029688A0720D5A968890840EA08
:102B10008100A860FFF746FA8046A868616800F067
:102B20000C00B0EB810F09D0FFF73CFAA0EB0800D6
:102B300041F289318842F0D303202AE0306800F066
:102B40000F00874204D200F026F801D0012020E0D7
:102B50002078410705D5AA68E06822F4E0520243D4
:102B6000AA602178080706D5A968206921F4604188
:102B700041EAC001A96000F035F8AA681549164B72
:102B8000C2F30312895CC8401860002000F046FBC5
:102B90000020BDE8F0813770316801F00F01B942C3
:102BA00070470D48006870470B480C4A006813686E
:102BB0000B49C3F3822206E00748084A00681368FD
:102BC0000749C3F34232895CC8407047003C024069
:102BD000003802406C4500080C0000200838024014
:102BE0007446000830B5144C606800F00C000428EE
:102BF00002D0082802D01DE0104830BD22682068AD
:102C00000023410202F03F0204D525680B49C5F3B9
:102C1000881003E020680A49C0F38810A1FB000176
:102C200000F01CFB2168C1F30141491C4900B0FBC5
:102C3000F1F030BD024830BD0438024040787D01DB
:102C40000024F400002200F08DBB00002DE9F84FB5
:102C50004FF0000E644A654BDFF894814FF00F0986
:102C600006468A460121DAF8004001FA0EF10C40CE
:102C70008C4240F0AD80DAF80450022D18BF122DBE
:102C80004FEA8E0012D14FEADE0506EB850C00F00C
:102C90001C05DCF8207009FA05FB27EA0B07DAF8B7
:102CA00010B00BFA05F53D43CCF820504FEA4E0C1E
:102CB000032537689AF804B005FA0CF5ED430BF0DC
:102CC000030B2F400BFA0CFB4BEA07073760DAF8CF
:102CD0000470012F18BF022F03D0112F18BF122F1D
:102CE00013D1B768DAF80CB02F400BFA0CFB4BEAA3
:102CF0000707B760776827EA0101DAF80470C7F3BD
:102D0000001707FA0EF739437160F1680D40DAF8E1
:102D1000081001FA0CF12943F160DAF80410C90037
:102D200056D50025009500F00C00D8F8001041F4AD
:102D30008041C8F8001009FA00F7D8F8005005F4EF
:102D40008045009500994FEA9E0153F8215025EAED
:102D50000707284DAE4208BF002513D0264DAE42CE
:102D600008BF01250ED0254DAE4208BF022509D06F
:102D7000234DAE4208BF032504D0224DAE420CBF06
:102D80000425072505FA00F0384343F82100E04305
:102D90001168DAF804500140ED0348BF2143116087
:102DA0005168DAF804500140AD0348BF2143516037
:102DB0009168DAF804500140ED0248BF2143916068
:102DC000D1680140DAF80400800248BF2143D16095
:102DD0000EF1010EBEF10F0F7FF644AFBDE8F18F8B
:102DE00002B9090481617047003C01400838014084
:102DF0004438024000000240000402400008024043
:102E0000000C0240001002400901020002D42948CF
:102E100081547047284B02F00F021A4402F8041C38
:102E20007047264B19684FF6FF020002114000F46C
:102E3000E0600843224908431860704770B51F4B93
:102E40001C68C4F302230124C3F10705052D2EBF1E
:102E50000F2504FA05F56D1E1E1D072E34BF002335
:102E6000DB1E2940994004FA03F3BDE870405B1E65
:102E70001A401143C8E7010007D4012200F01F01E6
:102E8000104B8A40400943F82020704710B5401E7F
:102E9000B0F1807F01D3012010BD0B4C60600F2189
:102EA0004FF0FF30FFF7B0FF0021A1600720206046
:102EB000002010BD00E400E018ED00E00CED00E0A3
:102EC0000000FA0500E100E010E000E038B508B9C4
:102ED000022032BD00F51D74A3690BB10025A56168
:102EE00001B16161012121700270FFF71DFD002019
:102EF00032BD0246002011B1C2F88C127047022088
:102F0000704780B5FFF746FD002002BD10B5D0F830
:102F10008C2202241AB11268904700B9002420467E
:102F200010BD80B5D0F88C22536816E138B5044640
:102F300004F52075284600F00DFC04F51B700121F6
:102F40000160428B017D426011F01F0003D0022816
:102F50000BD005D30EE02946204600F01DFA0DE007
:102F60002946204600F038FB08E02946204600F0BC
:102F70005DFB03E001F0800100F040F8002032BD6D
:102F800038B5044610460A0004F51B7329D11968A8
:102F900003291ED104F5A6714A680D68AA420BD216
:102FA000AD1A0D60954238BF2A46014692B22046BE
:102FB00000F02DFC002032BD196A086928B1187A8A
:102FC000032802D1096920468847204600F027FCE3
:102FD000F0E70529EED100201860002100F00EF87E
:102FE000E8E71A6A906930B1187A032803D1926928
:102FF00020469047DEE7022032BD80212046FFF7C1
:10300000E2BC38B504460800134604F51B7543D1ED
:103010002868022833D1226A616A914207D2521A83
:103020002262194692B2204600F0DFFB11E0E2690D
:10303000B2FBF1F001FB102090B98A4210D368680E
:1030400082420DD200220021204600F0CEFB00205B
:1030500068600023002200212046FFF7DBFC14E01B
:10306000296AC86828B1287A032802D1C96820468D
:103070008847FFF7C2FF204600F0D8FB05E0042890
:1030800018BF002801D1FFF7B8FF287B012804BF33
:1030900000212973002032BD2A6A506930B1287A94
:1030A000032803D1526920469047F3E7022032BD3E
:1030B00038B50446402300220021FFF773FC04F5D5
:1030C000A270012140220160C260402300228021C1
:1030D0002046FFF767FC0120402104F51B72A06128
:1030E000616210720021116061600025506A1561F3
:1030F00028B1126A61685368C9B220469847002017
:1031000032BD01740020704700F51D700422017863
:10311000417002700020704700F51D704178017009
:103120000020704780B500F51D710A78032A03D18D
:103130008969C96901B18847002002BD0020704734
:10314000002070470020704780B500F51D720123F4
:103150001370926941685368C9B29847002002BD54
:1031600080B500F06BFB00F009F800F081FB00F087
:10317000C9FB00F01DFC00F087FCFEE780B592B0B3
:10318000302106A8FFF75EFD142101A8FFF75AFDC4
:10319000002000904FF480331D48016841F08051B9
:1031A00001600021006800F08050009000981948EC
:1031B0000091026822F4404242F40042026001227F
:1031C000006800F44040009006A800990692022191
:1031D0004FF480020C910D9219214FF4A8720E91B8
:1031E0000F920421072207931091119200F076FCB0
:1031F000022102910F204FF480510190002204918E
:1032000003920592022101A8FFF746FC13B000BD0E
:1032100040380240007000407047000038B50D4D46
:103220000D4B2A7804464FF47A711868B1FBF2F21C
:10323000B0FBF2F0FFF72AFE50B9102C08D20022A2
:1032400021464FF0FF30FFF7F9FDAC60002032BDA2
:10325000012032BD000000200C000020D3BBD9B1FA
:10326000B2F5803F5BD2022A1ED98C46B1FBF2F147
:1032700002FB11C31B0443EA1043B3FBF2FC02FB45
:103280001C3380B240EA0343B3FBF2F002FB10327E
:1032900040EA0C4000237047022A05D98446B0FB5F
:1032A000F2F002FB10C270474AB105D100F00102F2
:1032B00049085FEA3000704700220023704700F0A1
:1032C00075BD0B000200002100207047F7D30022DB
:1032D00000237047904271EB030CF2D370B5B1FA42
:1032E00081F4B3FA83F52C1BA340C4F1200532FA14
:1032F00005F63343A2405FF00046E64002E05B087B
:103300005FEA3202841A71EB030524BF2046294686
:103310007641F4D302000B003000002170BD70B57F
:10332000B1FA81F4B2FA82F5C4F120046419B4F15F
:103330002006DAD3B2405FF00044F440002502E0FA
:1033400052085FEA3303C61A71EB020E24BF3046FF
:10335000714664416D41F3D302000B002000290047
:1033600070BD000000B500BF1300964694461039AA
:1033700028BFA0E80C50FAD85FEA417C28BF0CC0F7
:1033800048BF40F8042BC90728BF20F8022B48BFCC
:1033900000F8012B00BD0000F8B500F03EF904F57F
:1033A0001D7609D0202818BF402840F0C680B26999
:1033B0009368204698470AE168780928F5D8DFE83D
:1033C00010F0E300FB00BC00F500BC007E000A002A
:1033D000BC00D1009A006888010A012952D0022954
:1033E00043D0032915D006290BD0072904BF207C20
:1033F000002869D1B1690A6B68469047072141707E
:1034000045E0207C00285FD1B1694A6B684690474F
:103410003DE0C0B2052857D8DFE800F0211B150FAA
:1034200009037269207C9369694698472FE07269A5
:10343000207C53696946984729E07269207C1369AA
:103440006946984723E07269207CD36869469847AB
:103450001DE07269207C93686946984717E072699D
:10346000207C53686946984711E0207CB1690028A8
:10347000684602D1896A884701E0C96A8847022202
:10348000427004E07269207C136869469847BDF871
:10349000001081B1E988002910D0BDF80010EA8839
:1034A000914288BF1146ADF800100146BDF80020DA
:1034B000204600F092F9E88800281BD185E0A88812
:1034C000002804BFE888002837D16F88802F34D2C5
:1034D0003078032807F07F072FD0B7703946204691
:1034E000FFF78CFA00F09FF8002F07BF0121317021
:1034F000022030706BE0374F6888387039780846A2
:1035000002281AD23278022A1AD0032A23D131B9DA
:103510000220307061602046FFF703FD55E06168CE
:10352000884252D0C9B22046FFF7FBFC397861606F
:103530002046FFF7EBFC022847D100F008F946E0EF
:10354000002942D06060032030702046FFF7DEFC87
:103550000228F2D039E000F0FAF839782046FFF777
:10356000E0FC34E0E8880128E7D13178491E0129E0
:1035700004D9891EE1D10122211D13E00020A060A1
:10358000012204F108010DE03078401E0228D4D851
:10359000EA88022AD1D1B068012100B10321E1609B
:1035A00004F10C01204600F018F910E068880128A9
:1035B0000DD10121B16008E03078401E0228BCD84E
:1035C0006A88012A03D10020B06000F02CF80020A6
:1035D000F2BD0000740C002038B500F01EF81CBFCE
:1035E0002028402815D104F51D721078401E0228AD
:1035F0000FD82B79022B0CD29269936820469847FA
:103600000146E888002808BF002904D100F00BF823
:1036100001E000F09DF8002032BD0D4604462878F8
:1036200010F060007047204600F0F9B8F8B50A784D
:103630000446087912F0600504F51D7308D0202DAA
:1036400018BF402D66D19A6993682046984763E079
:1036500002F06002202A05D19A6993682046BDE8ED
:10366000F44018474A787AB3012A11D0032A51D17D
:103670001B78022B12D0032B4CD14A880ABB00289E
:1036800018BF80281DD0C988D9B900F05CF818E0AF
:103690001A78022A02D0032A0AD03BE0002818BF79
:1036A000802837D000F04FF8802100F04DF833E04B
:1036B0004A888ABB10F07F0103D001462046FFF7FD
:1036C00088F9FFF7B0FF27E0142600F07F021B788F
:1036D0007243A718022B07F5A07500F0800202D0F4
:1036E000032B0FD016E0002818BF802812D10AB192
:1036F00007F114050020286002222946204600F028
:103700006CF809E000F00F0316FB03F6A3192AB1C9
:103710009A696AB900F01CF80020F2BDD3F8442180
:10372000002AF7D0002818BF802804D10020E2E743
:1037300007F11405F6E701462046FFF750F9002887
:10374000D9D00120D7E701462046FFF73CB92946EA
:10375000204614E010B50A7802704B7843708A78DE
:10376000CB7802EB032444800A794B7902EB0324E3
:1037700084808A79C97902EB0123C38010BD10B51A
:1037800004468021FFF71FF92046BDE810400021C4
:10379000FFF719B900280B4600D1704770B50146F4
:1037A000002400E0641C11F8015B002DFAD124060E
:1037B000E40DA41C14801178197003225A7002229F
:1037C00007E010F8011BD4B2521C1955D6B2521C96
:1037D0009D5501780029F4D170BD80B513460222B1
:1037E000C0F86C22C361036201E080B513460A464B
:1037F0000021FFF709F9002002BD80B5134603221E
:10380000C0F86C2200F5A4721360536001E080B52B
:1038100013460A460021FFF7FDF8002002BD80B5DF
:103820000421C0F86C1200230022E1E780B50521D5
:10383000C0F86C1200230022ECE7000080B50B48B2
:10384000016841F400710160026842F48062026024
:10385000016841F4807101600320FFF7E2FA002063
:10386000FFF7DCFC00F0A4FA002002BD003C02409F
:1038700010B586B01422002101A800F0B5FA00218D
:103880001E481F4C0091026842F0040202600022B0
:10389000016801F00401009100990092036843F06F
:1038A00080030360016801F080010091009900929B
:1038B000036843F001030360016801F00101009116
:1038C000009900924FF40051036843F00203036033
:1038D000006800F00200009000982046FFF780FA90
:1038E0004FF40051019101220021039104910292B1
:1038F00001A92046FFF7AAF906B010BD30380240F2
:1039000000080240254A2648264980B54260002327
:103910004FF4804201608360C36002614361836150
:10392000C361036200F06AFA18B1BDE80140FFF715
:1039300073BC01BD10B586B004461422002101A855
:1039400000F052FA21681748814225D10022164C16
:1039500000921222206840F002002060216801F0ED
:10396000020100914FF410710098104801910292E9
:1039700001210391032204210591049201A9FFF77B
:1039800065F900200090216941F40011216120694E
:1039900000F400100090009806B010BDA086010051
:1039A000C40B0020005400403038024000040240A4
:1039B00080B53048304901604FF4E13200230C21DA
:1039C00042608360C360036141618361C36100F051
:1039D000B3FA18B1BDE80140FFF71EBC01BD10B538
:1039E00086B004461422002101A800F0FDF92168E8
:1039F000214881423CD1002220480092416941F097
:103A000010014161416901F010010091009900929B
:103A1000036843F001030360016801F001010091B4
:103A2000009900924FF40071036843F002030360B1
:103A30000222006800F002000090009810480191F6
:103A4000029201210391032207210591049201A909
:103A5000FFF7FCF80221029101220392802003214A
:103A6000019004910722059201A90648FFF7EEF89C
:103A700006B010BD180C0020001001403038024084
:103A8000000002400004024010B5104C1049002212
:103A90002046FFF71BFA08B1FFF7BEFB0D49204691
:103AA000FFF727FA08B1FFF7B7FB0B49204600F0F4
:103AB00033FC08B1FFF7B0FB2046FFF722FA18B13C
:103AC000BDE81040FFF7A8BB10BD00BF50050020A7
:103AD000F400002020000020100000202DE9F84311
:103AE000040016D02078AD4EC1074AD5B06800F06A
:103AF0000C00042807D0B06800F00C0008280AD198
:103B00007068410207D5306881033AD560680028A3
:103B100037D1012040E16068B0F5803F04D13068C2
:103B200040F48030306011E0B0F5A02F306806D14D
:103B300040F480203060316841F4803105E020F4A9
:103B400080303060316821F480213160606860B17C
:103B5000FEF728FA05463068810312D4FEF722FAF0
:103B6000401B6528F7D3032016E1FEF71BFA054634
:103B70003068810305D5FEF715FA401B6528F7D399
:103B8000F1E72078864F810718D5B06810F00C0F48
:103B900007D0B06800F00C00082823D170684102FB
:103BA00020D43068810702D5E0680128B1D131689E
:103BB000206921F0F80141EAC0013160217808074D
:103BC00042D56069774990B301220A60FEF7EAF9AD
:103BD0000546706F810737D4FEF7E4F9401B0228D1
:103BE000F7D9C0E7E068A8B101213960FEF7DAF93A
:103BF00005463068810705D4FEF7D4F9401B02283A
:103C0000F7D9B0E73068216920F0F80040EAC10038
:103C10003060D3E73860FEF7C5F90546316888079C
:103C2000CCD5FEF7BFF9401B0228F7D99BE7086007
:103C3000FEF7B8F90546706F810705D5FEF7B2F9B2
:103C4000401B0228F7D98EE7207841075FD5306CFA
:103C50000025C1000AD400950125316C41F0805146
:103C60003164306C00F0805000900098DFF83881AB
:103C7000D8F80000C10513D4D8F8000040F48070D3
:103C8000C8F80000FEF78EF98146D8F80000C1059B
:103C900006D4FEF787F9A0EB09000228F5D962E700
:103CA000A068012805D00528306F06D140F0040037
:103CB0003067306F40F0010005E040084000306799
:103CC000306F20F00400306741F28938A06860B19D
:103CD000FEF768F98146306F810713D4FEF762F969
:103CE000A0EB09004045F6D33DE7FEF75BF98146BE
:103CF000306F810706D5FEF755F9A0EB0900404566
:103D0000F6D330E71DB1306C20F080503064A069EC
:103D1000002840D0B16801F00C0108293FF4F9AE49
:103D200002282AD100203866FEF73CF905463068A3
:103D3000810105D5FEF736F9401B0228F7D912E7B5
:103D4000E069216A626A0843A16A490840EA821070
:103D5000491E40EA0140E16A40EA016070600120CA
:103D60003866FEF71FF904463068810113D4FEF768
:103D700019F9001B0228F7D9F5E600203866FEF78E
:103D800011F904463068810105D5FEF70BF9001BD7
:103D90000228F7D9E7E60020BDE8F28300380240A8
:103DA00000004742800E474200700040704700000C
:103DB00081B00020009000220A48416841F480410F
:103DC0004160416801F480410091009900920368CC
:103DD00043F080530360006800F08050009000982A
:103DE00001B070474038024010B5044610460A46FC
:103DF0000146204600F098FA204610BDF8B50400B0
:103E00001BD004F13C05697821B9002028702046B8
:103E1000FFF790FD24216970206802685208520063
:103E20000260FEF7C1FE01466068DFF8F4209042B0
:103E300005D2DFF8F030994205D20120F2BDDFF85B
:103E4000E8008142F9D32068DFF8E0304668B1FB32
:103E5000F3F3B60943EA861646602668376A606857
:103E6000904206D34FF4967043434FF47A70B3FBFD
:103E7000F0F35B1CBF0943EA87133362491E2368D2
:103E8000DE696768974206D27F0000F043F8042994
:103E900013D2042111E0A06820B907EB470700F016
:103EA00039F805E01920474300F034F841F4804127
:103EB00008050CBF012141F40041DFF87400064001
:103EC0000E43DE6122681368E169206A23F0C003B3
:103ED0000B43034313602268DFF85800936821699D
:103EE0000340E0680B43034393602168CA68A369F9
:103EF0006069120A034343EA0222CA60206801682B
:103F000041F0010101600020686020216970206398
:103F1000A870F2BDB1FBF7F1491CC1F30B0170476A
:103F2000A186010080841E0000093D0040420F0070
:103F30000030FFFF007CFFFF38B5040001D10120F5
:103F400032BD00F021F808B900F022F800F012F8B4
:103F500000F023F8FFE7416100F001F832BD20686E
:103F6000C16841F40051C16000206860202169707F
:103F7000A9707047242068702068C16821F400513E
:103F8000C160204600F013B804F138056878704726
:103F9000002129702046FFF722BD2068016921F425
:103FA000904101612068416921F02A0170472DE9A3
:103FB000F0470446642522681169E06821F4405105
:103FC000014311611926D3684948A168034020695B
:103FD0000B4361690343E0690B430343D3605169B9
:103FE000A06921F4407101435161E36941484249AC
:103FF000B3F5004F3BD18A4218BF82420ED1FEF783
:10400000DBFD0746FEF7D8FD8046FEF7D5FD81466D
:10401000FEF7D2FD8246FEF7CFFD0DE0FEF7C4FDB0
:104020000746FEF7C1FD8046FEF7BEFD8146FEF75E
:10403000BBFD8246FEF7B8FD6168490000F06DF8EF
:10404000AE46BCFBFEFE05FB1E77FF003237642345
:10405000B7FBF3F35B0003F4F87300F04FF8ED00E7
:1040600032356420B5FBF0F000F0070039E08A42F9
:1040700018BF82420ED1FEF79FFD0746FEF79CFD5A
:104080008046FEF799FD8146FEF796FD8246FEF7D3
:1040900093FD0DE0FEF788FD0746FEF785FD80469F
:1040A000FEF782FD8146FEF77FFD8246FEF77CFD2E
:1040B0006168890000F031F8AE46BCFBFEFE05FBEE
:1040C0001E773F0132376423B7FBF3F303F0F003AD
:1040D00000F014F82D0132356420B5FBF0F000F04B
:1040E0000F002168C3188B60BDE8F0870000000056
:1040F000F369FFFF001401400010014003EB0213BD
:1041000006FB0AF74643B7FBF1F2B6FBF1F0642178
:10411000B0FBF1F105FB112570477743B7FBF1F3D5
:104120006422B3FBF2F206FB08F3B3FBF1F706FBE4
:1041300009F3B3FBF1FC704770B506460223032276
:104140008121FEF72FFC0122F262022303220121CA
:104150003046FEF727FC0120C6F85801002518203C
:10416000FCF75CF8040006F5247008BF0125046024
:1041700009D02575406841688847022322460121FD
:104180003046FEF747FC284670BD10B50446812135
:10419000FEF713FC0022E26201212046FEF70DFC2F
:1041A0000021C4F8581104F52474206838B16068FF
:1041B00081688847206800F0EAF80020206000202D
:1041C00010BDF8B500F51D760025F369ADF8005077
:1041D00000220F78002417F0600721D0202F53D140
:1041E0004A78022A11D0032A08D0092A11D00A2AB3
:1041F00007D00B2A48D18878586048E00122191D61
:1042000039E04888000A986041E0012203F1080182
:1042100031E001221A61CA881946FFF7EEFA36E04A
:104220004F7837B1062F0CD00A2F1ED00B2F25D078
:104230002AE03278032A27D102226946FFF7CDFA15
:1042400025E04B881B0A222B06D1CA88316A0C68EC
:10425000032A28BF022206E0212B04D1CA88294C58
:104260000A2A28BF0922214605E03278032A0BD109
:10427000012203F10C01FFF7B0FA08E03278032ABB
:1042800002D18878D86002E0FFF779FA0225284643
:10429000F2BD292101801C487047292101801B485B
:1042A0007047292101801A487047D0F890020021F8
:1042B00001750020704738B5044604F5247215686E
:1042C000526869782878D368984702232A460121E2
:1042D0002046FEF79FFB002032BD10B500F524728A
:1042E00014682069012806D1526861782078D36863
:1042F000984700202061002010BD0A210180054858
:1043000070470000DC0000205800002084000020DE
:10431000B0000020E80000200246022011B1C2F8DF
:10432000941200207047000062F30F2262F31F42D4
:10433000401810F0030308D0C91A1FD3DB0748BF89
:1043400000F8012D28BF20F8022D130030B41446C8
:104350001546103928BF20E93C00FAD8490728BF84
:1043600020E90C0048BF40F8042D890028BF20F840
:10437000022D48BF00F8012D30BC7047C91818BF86
:1043800000F8012DCB0728BF00F8012D7047FCF77E
:10439000BCBE0000122008801A4870470420088024
:1043A000194870472DE9104000F028F827A004E0D4
:1043B0002DE9104000F022F82AA02146FFF7EAF983
:1043C000204610BD38B51A20088010494C6808688E
:1043D00089680F4D081809D00822A91C00F022F89E
:1043E000042205F11201204600F01CF8284632BDD7
:1043F0002DE9104000F002F81FA0DEE70A46054C48
:10440000704700001001002024010020107AFF1FD7
:1044100028010020EC0700202DE91040FFF7EEFFF7
:104420001AA0CAE730B500230CE0040F0A2C2CBFF9
:104430003734303401F8134001EB43050024000108
:104440006C705B1C9342F0DB30BD0000494F54732D
:10445000757975616E2D3730254B6579626F6172A4
:104460006400000053544D6963726F656C6563743A
:10447000726F6E6963730000437573746F6D2048CB
:10448000494420436F6E666967000000437573748A
:104490006F6D2048494420496E746572666163659A
:1044A00000000000F0B402461068956813185068C8
:1044B00003EB5004C0071CD54D441AE013F8017BF0
:1044C00005F8017B491EF9D198B113F8011BC6F319
:1044D0008106032E08BF13F8016B01EB0621494248
:1044E000801C294405D011F8016B05F8016B401EB2
:1044F000F9D1A3420ED013F8016B16F0030104BFEB
:1045000013F8011BC91C30090F28DBD113F8010B6C
:104510000F30D7E7F0BC02F10C0070470E4801687D
:1045200041F47001016000220C49086840F001006C
:1045300008608A600B680A480A4A03400B604A60B8
:1045400000200B68084A23F480230B60C8604FF0FA
:10455000006111607047000088ED00E00038024003
:10456000FFFFF6FE1030002408ED00E00000000020
:1045700000000000010203040607080910B50749FE
:1045800079441831064C7C44163404E00A68081D4E
:10459000114488470146A142F8D110BD2C0000000B
:1045A000480000004EF68851CEF20001086840F441
:1045B00070000860BFF34F8FBFF36F8F4FF0007034
:1045C000E1EE100A704700006FD0FFFF300B0000D3
:1045D0004801002000000000CDFEFFFF7C0100002C
:1045E00060010000000000207047FEE7FEE7FEE7E4
:1045F000FEE770477047704700F006B80148FDF7C6
:104600004BBD0000480100200248416802788A182A
:10461000426070470000002000F00DF8002801D033
:10462000FFF7ACFFAFF300800020AFF30080FEF790
:1046300097FD00F002F80120704700F001B800007B
:1046400007463846FDF72AF8FBE700000148804797
:10465000014800471D4500086946000800207047D2
:104660000020704700207047AFF30080FFF79AFFEB
:10467000FFF7D2FF0000000001020304FFF7FEBFB6
:10468000FFF7FEBFFFF7FEBFFFF7FEBFFFF7FEBF5E
:10469000FFF7FEBFFFF7FEBFFFF7FEBFFFF7FEBF4E
:1046A000FFF7FEBFFFF7FEBFFFF7FEBFFFF7FEBF3E
:1046B000FFF7FEBFFFF7FEBFFFF7FEBFFFF7FEBF2E
:1046C000FFF7FEBFFFF7FEBFFFF7FEBFFFF7FEBF1E
:1046D000FFF7FEBFFFF7FEBFFFF7FEBFFFF7FEBF0E
:1046E000FFF7FEBFFFF7FEBFFFF7FEBFFFF7FEBFFE
:1046F000FFF7FEBFFFF7FEBFFFF7FEBFFFF7FEBFEE
:10470000FFF7FEBFFFF7FEBFFFF7FEBFFFF7FEBFDD
:10471000FFF7FEBFFFF7FEBFFFF7FEBFFFF7FEBFCD
:10472000FFF7FEBFFFF7FEBFFFF7FEBFFFF7FEBFBD
:10473000FFF7FEBFFFF7FEBFFFF7FEBFFFF7FEBFAD
:10474000FFF7FEBFFFF7FEBFFFF7FEBFFFF7FEBF9D
:10475000FFF7FEBFFFF7FEBF430100012210081064
:104760000A24F400440100205D460008610412653B
:10477000041003394100088B0412C30421231003E1
:10478000DB420008AB0443B742106101129B1012D8
:10479000930412A30412FB04100D09022900010165
:1047A00000C0320904000002032B2011092111016D
:1047B0000001220200070581030200050705010729
:1047C000211AF1472C611A110120010A0600082262
:1047D00040F01003954300089D0412B10412A50493
:1047E00012C50412F10440041944000812012810F3
:1047F0000783045057000201020331F00509040346
:0848000009041A03000102C0C3
:040000050800466940
:00000001FF
