:020000040800F2
:100000004016002099980008A1970008A3970008BF
:10001000A5970008A7970008A9970008000000000E
:10002000000000000000000000000000AB97000886
:10003000AD97000800000000AF970008B1970008D6
:10004000BD980008C1980008C5980008C998000824
:10005000CD980008D1980008D5980008D9980008D4
:10006000DD980008E1980008E5980008E998000884
:10007000ED980008F1980008F5980008B597000879
:10008000F9980008FD980008019900080000000098
:1000900000000000000000000000000005990008BA
:1000A000099900080D990008119900081599000890
:1000B000199900081D990008219900082599000840
:1000C000299900082D9900083199000835990008F0
:1000D000399900083D990008419900080000000086
:1000E00045990008499900084D9900080000000052
:1000F000000000000000000000000000519900080E
:100100000000000055990008599900085D99000801
:1001100000000000000000000000000000000000DF
:100120006199000865990008699900086D990008AF
:1001300071990008000000000000000000000000AD
:10014000000000000000000000000000BB97000855
:1001500075990008799900087D990008819900082F
:10016000859900088999000800000000000000003F
:10017000000000000000000000000000000000007F
:10018000000000008D990008000000000000000041
:100190009199000838B584B04FF47A738DF80C202B
:1001A00002930A46012403AD014601940095012300
:1001B000024802F081FC05B030BD0000F0100020C4
:1001C00010B51C4628B1022800F0EF86C0F07783F6
:1001D00010BD491E0829FBD8DFE811F009004F00C7
:1001E0009500DB004A01A40100027A02F502521ECA
:1001F0000C2AEDD8DFE812F00D00110015001900EF
:100200001D002100250029002D0031003500390096
:100210003D0001F010FB0022F5E101F00CFB002293
:10022000F9E101F008FB0022FDE101F004FB0022EE
:1002300001E201F000FB002205E201F0FCFA0022DD
:1002400009E201F0F8FA00220DE201F0F4FA0022CE
:1002500011E201F0F0FA002215E201F0ECFA0022BE
:1002600019E201F0E8FA0122A9E001F0E4FA012222
:10027000ADE001F0E0FA0122B1E0521E0C2AA7D84D
:10028000DFE812F00D001100150019001D0021001B
:10029000250029002D003100350039003D0001F016
:1002A000CAFA00222AE201F0C6FA00222EE201F088
:1002B000C2FA002232E201F0BEFA002236E201F078
:1002C000BAFA00223AE201F0B6FA00223EE201F068
:1002D000B2FA002242E201F0AEFA002246E201F058
:1002E000AAFA00224AE201F0A6FA00224EE201F048
:1002F000A2FA01227BE001F09EFA01227FE001F0E8
:100300009AFA012283E0521E0C2A44D8DFE812F048
:100310000D001100150019001D0021002500290005
:100320002D003100350039003D0001F084FA002233
:100330005FE201F080FA002264E201F07CFA002220
:1003400068E201F078FA00226CE201F074FA00220F
:1003500070E201F070FA002274E201F06CFA0022FF
:1003600078E201F068FA00227CE201F064FA0022EF
:1003700080E201F060FA002284E201F05CFA0122DE
:100380004DE001F058FA012251E001F054FA012247
:1003900055E0521E0C2A01F27981DFE812F00D00BF
:1003A00015001D0025002D0035003D0045004D00C5
:1003B000550059006100650001F03DFA002201F08E
:1003C00067FA22465C2118E201F035FA002201F0BA
:1003D0005FFA22465F2110E201F02DFA002201F0BF
:1003E00057FA2246622108E201F025FA002201F0C4
:1003F0004FFA2246652100E201F01DFA002201F0C9
:1004000047FA22466821F8E101F015FA002201F0CE
:100410003FFA22466B21F0E101F00DFA002201F0D3
:1004200037FA22466E21E8E101F005FA002201F0D8
:100430002FFA22467121E0E101F0FDF9002201F0DE
:1004400027FA22467421D8E101F0F5F9002202E0F2
:1004500001F0F1F9012201F01BFA22467721CCE1EB
:1004600001F0E9F9012218E001F0E5F901221CE0B0
:10047000521E0C2A58D8DFE812F00D0015001D009E
:100480002100250029002D003100350039003D00F4
:1004900045004D0001F0CFF9002201F0F9F92246A4
:1004A0007A21AAE101F0C7F9002201F0F1F9224610
:1004B0007D21A2E101F0BFF900221EE001F0BBF9AD
:1004C000002222E001F0B7F9002226E001F0B3F9A2
:1004D00000226EE001F0AFF9002272E001F0ABF90A
:1004E000002276E001F0A7F90022DCE001F0A3F998
:1004F0000022E0E001F09FF9012201F0C9F9224653
:1005000080217AE101F097F9012201F0C1F9224638
:10051000832172E101F08FF9012201F0B9F922463D
:1005200086216AE1521E0C2A01F2B080DFE812F047
:100530000D001100150019001D00210025002900E3
:10054000300037003E0046004E0001F074F90022F2
:10055000B9E001F070F9002220E101F06CF900220D
:1005600024E101F068F9002228E101F064F9002299
:1005700090E101F060F9002294E101F05CF90022C1
:1005800098E101F058F901F082F92246AD2134E1F9
:1005900001F051F901F07BF92246B0212DE101F083
:1005A0004AF901F074F92246B32126E101F043F93A
:1005B000012201F06DF9224689211EE101F03BF98B
:1005C000012201F065F922468C2116E101F033F990
:1005D000012201F05DF922468F210EE1521E0C2A04
:1005E000A2D8DFE812F00D0015001D0025002D0037
:1005F00035003D0045004D0055005D0065006D0073
:1006000001F019F9012201F043F922460221F4E038
:1006100001F011F9012201F03BF922460521ECE03D
:1006200001F009F9012201F033F922460821E4E042
:1006300001F001F9012201F02BF922460B21DCE047
:1006400001F0F9F8012201F023F922460E21D4E04D
:1006500001F0F1F8012201F01BF922461121CCE052
:1006600001F0E9F8012201F013F922461421C4E057
:1006700001F0E1F8012201F00BF922461721BCE05C
:1006800001F0D9F8012201F003F922461A21B4E061
:1006900001F0D1F8012201F0FBF822461D21ACE067
:1006A00001F0C9F8012201F0F3F822469221A4E0FA
:1006B00001F0C1F8012201F0EBF8224695219CE0FF
:1006C00001F0B9F8012201F0E3F82246982194E004
:1006D000521E0C2A00F2DA87DFE812F00D00150036
:1006E0001D0025002D0035003D0045004D00550042
:1006F0005D0065006D0001F09EF8012201F0C8F870
:100700002246202179E001F096F8012201F0C0F89C
:100710002246232171E001F08EF8012201F0B8F8A1
:100720002246262169E001F086F8012201F0B0F8A6
:100730002246292161E001F07EF8012201F0A8F8AB
:1007400022462C2159E001F076F8012201F0A0F8B0
:1007500022462F2151E001F06EF8012201F098F8B5
:100760002246322149E001F066F8012201F090F8BA
:100770002246352141E001F05EF8012201F088F8BF
:100780002246382139E001F056F8012201F080F8C4
:1007900022463B2131E001F04EF8012201F078F8C9
:1007A00022469B2129E001F046F8012201F070F871
:1007B00022469E2121E001F03EF8012201F068F876
:1007C0002246A12119E0521E0C2A00F25F87DFE8C1
:1007D00012F00D0016001E0026002E0036003E000E
:1007E00046004E0056005E0066006E0001F023F8E1
:1007F000012201F04DF822463E2100F042BF01F0F7
:100800001AF8012201F044F82246412184E301F064
:1008100012F8012201F03CF8224644217CE301F069
:100820000AF8012201F034F82246472174E301F06E
:1008300002F8012201F02CF822464A216CE300F074
:10084000FAFF012201F024F822464D2164E300F072
:10085000F2FF012201F01CF8224650215CE300F077
:10086000EAFF012201F014F82246532154E300F07C
:10087000E2FF012201F00CF8224656214CE300F081
:10088000DAFF012201F004F82246592144E300F086
:10089000D2FF012200F0FCFF2246A4213CE300F03D
:1008A000CAFF012200F0F4FF2246A72134E300F042
:1008B000C2FF012200F0ECFF2246AA212CE3491ED0
:1008C000082952D8DFE811F009004F009600DC003B
:1008D0004B01A50101027B02F602521E0C2A44D8EC
:1008E000DFE812F00D001100150019001D002100B5
:1008F000250029002D003100350039003D0000F0B1
:100900009AFF0022F6E100F096FF0022FAE100F0E3
:1009100092FF0022FEE100F08EFF002202E200F0D2
:100920008AFF002206E200F086FF00220AE200F0C1
:1009300082FF00220EE200F07EFF002212E200F0B1
:100940007AFF002216E200F076FF00221AE200F0A1
:1009500072FF0122AAE000F06EFF0122AEE000F07B
:100960006AFF0122B2E0521E0C2A00F28F86DFE8F5
:1009700012F00D001100150019001D0021002500C6
:1009800029002D003100350039003D0000F053FFF3
:1009900000222AE200F04FFF00222EE200F04BFF7F
:1009A000002232E200F047FF002236E200F043FF6F
:1009B00000223AE200F03FFF00223EE200F03BFF5F
:1009C000002242E200F037FF002246E200F033FF4F
:1009D00000224AE200F02FFF00224EE200F02BFF3F
:1009E00001227BE000F027FF01227FE000F023FFDF
:1009F000012283E0521E0C2AB7D8DFE812F00D0066
:100A00001100150019001D002100250029002D00EE
:100A10003100350039003D0000F00DFF00225FE29B
:100A200000F009FF002263E200F005FF002267E208
:100A300000F001FF00226BE200F0FDFE00226FE2F9
:100A400000F0F9FE002273E200F0F5FE002277E2EA
:100A500000F0F1FE00227BE200F0EDFE00227FE2DA
:100A600000F0E9FE002283E200F0E5FE01224DE005
:100A700000F0E1FE012251E000F0DDFE012255E030
:100A8000521E0C2A00F20286DFE812F00D0015005B
:100A90001D0025002D0035003D0045004D0055008E
:100AA00059006100650000F0C6FE002200F0F0FE73
:100AB00022465B2130E200F0BEFE002200F0E8FE9C
:100AC00022465E2128E200F0B6FE002200F0E0FEA1
:100AD0002246612120E200F0AEFE002200F0D8FEA6
:100AE0002246642118E200F0A6FE002200F0D0FEAB
:100AF0002246672110E200F09EFE002200F0C8FEB0
:100B000022466A2108E200F096FE002200F0C0FEB4
:100B100022466D2100E200F08EFE002200F0B8FEB9
:100B200022467021F8E100F086FE002200F0B0FEBF
:100B300022467321F0E100F07EFE002202E000F088
:100B40007AFE012200F0A4FE22467621E4E100F0C4
:100B500072FE012218E000F06EFE01221CE0521E1F
:100B60000C2A58D8DFE812F00D0015001D002100F6
:100B7000250029002D003100350039003D004500D9
:100B80004D0000F058FE002200F082FE224679213E
:100B9000C2E100F050FE002200F07AFE22467C21E5
:100BA000BAE100F048FE00221EE000F044FE002200
:100BB00022E000F040FE002226E000F03CFE002291
:100BC0006EE000F038FE002272E000F034FE0022F9
:100BD00076E000F030FE0022DCE000F02CFE002287
:100BE000E0E000F028FE012200F052FE22467F21C4
:100BF00092E100F020FE012200F04AFE224682210E
:100C00008AE100F018FE012200F042FE2246852112
:100C100082E1521E0C2A00F23985DFE812F00D0045
:100C20001100150019001D002100250029003000C9
:100C300037003E0046004E0000F0FDFD0022B9E006
:100C400000F0F9FD002220E100F0F5FD002224E192
:100C500000F0F1FD002228E100F0EDFD00228FE11F
:100C600000F0E9FD002293E100F0E5FD002297E1AC
:100C700000F0E1FD00F00BFE2246AC214CE100F05B
:100C8000DAFD00F004FE2246AF2145E100F0D3FD7D
:100C900000F0FDFD2246B2213EE100F0CCFD012234
:100CA00000F0F6FD2246882136E100F0C4FD012265
:100CB00000F0EEFD22468B212EE100F0BCFD01226A
:100CC00000F0E6FD22468E2126E1521E0C2AA2D813
:100CD000DFE812F00D0015001D0025002D00350085
:100CE0003D0045004D0055005D0065006D0000F0C1
:100CF000A2FD012200F0CCFD224601210CE100F012
:100D00009AFD012200F0C4FD2246042104E100F016
:100D100092FD012200F0BCFD22460721FCE000F01C
:100D20008AFD012200F0B4FD22460A21F4E000F021
:100D300082FD012200F0ACFD22460D21ECE000F026
:100D40007AFD012200F0A4FD22461021E4E000F02B
:100D500072FD012200F09CFD22461321DCE000F030
:100D60006AFD012200F094FD22461621D4E000F035
:100D700062FD012200F08CFD22461921CCE000F03A
:100D80005AFD012200F084FD22461C21C4E000F03F
:100D900052FD012200F07CFD22469121BCE000F0D2
:100DA0004AFD012200F074FD22469421B4E000F0D7
:100DB00042FD012200F06CFD22469721ACE0521E5C
:100DC0000C2A00F26384DFE812F00D0015001D000C
:100DD00025002D0035003D0045004D0055005D000B
:100DE00065006D0000F027FD012200F051FD224654
:100DF0001F2191E000F01FFD012200F049FD224675
:100E0000222189E000F017FD012200F041FD224679
:100E1000252181E000F00FFD012200F039FD22467E
:100E2000282179E000F007FD012200F031FD224683
:100E30002B2171E000F0FFFC012200F029FD224689
:100E40002E2169E000F0F7FC012200F021FD22468E
:100E5000312161E000F0EFFC012200F019FD224693
:100E6000342159E000F0E7FC012200F011FD224698
:100E7000372151E000F0DFFC012200F009FD22469D
:100E80003A2149E000F0D7FC012200F001FD2246A2
:100E90009A2141E000F0CFFC012200F0F9FC22464B
:100EA0009D2139E000F0C7FC012200F0F1FC224650
:100EB000A02131E0521E0C2A00F2E883DFE812F094
:100EC0000D0015001D0025002D0035003D004500DA
:100ED0004D0055005D0065006D0000F0ACFC012286
:100EE00000F0D6FC22463D2116E000F0A4FC0122D1
:100EF00000F0CEFC224640210EE000F09CFC0122D6
:100F000000F0C6FC2246432106E000F094FC0122DA
:100F100000F0BEFC22464621B3E300F08CFC012227
:100F200000F0B6FC22464921ABE300F084FC01222C
:100F300000F0AEFC22464C21A3E300F07CFC012231
:100F400000F0A6FC22464F219BE300F074FC012236
:100F500000F09EFC2246522193E300F06CFC01223B
:100F600000F096FC224655218BE300F064FC012240
:100F700000F08EFC2246582183E300F05CFC012245
:100F800000F086FC2246A3217BE300F054FC012202
:100F900000F07EFC2246A62173E300F04CFC012207
:100FA00000F076FC2246A9216BE3491E082956D899
:100FB000DFE811F0090053009A00E0004E01A8019B
:100FC00004027E02F302521E0C2A48D8DFE812F017
:100FD0000D001100150019001D0021002500290039
:100FE0002D003100350039003D0000F024FC0022C6
:100FF000F9E100F020FC0022FDE100F01CFC0022E1
:1010000001E200F018FC002205E200F014FC0022CE
:1010100009E200F010FC00220DE200F00CFC0022BE
:1010200011E200F008FC002215E200F004FC0022AE
:1010300019E200F000FC00221DE200F0FCFB01229E
:10104000AEE000F0F8FB0122B2E000F0F4FB012278
:1010500000F01EFC2246602113E3521E0C2A00F20F
:101060001583DFE812F00D001100150019001D00B6
:101070002100250029002D003100350039003D00F8
:1010800000F0D9FB002223E200F0D5FB002227E28A
:1010900000F0D1FB00222BE200F0CDFB00222FE27A
:1010A00000F0C9FB002233E200F0C5FB002237E26A
:1010B00000F0C1FB00223BE200F0BDFB00223FE25A
:1010C00000F0B9FB002243E200F0B5FB002247E24A
:1010D00000F0B1FB01227AE000F0ADFB01227EE0DE
:1010E00000F0A9FB012282E0521E0C2AB7D8DFE8EB
:1010F00012F00D001100150019001D00210025003F
:1011000029002D003100350039003D0000F093FB2F
:10111000002252E200F08FFB002256E200F08BFB2F
:1011200000225AE200F087FB00225EE200F083FB1F
:10113000002262E200F07FFB002266E200F07BFB0F
:1011400000226AE200F077FB00226EE200F073FBFF
:10115000002272E200F06FFB002276E200F06BFBEF
:1011600001224CE000F067FB012250E000F063FB3D
:10117000012254E0521E0C2A00F28882DFE812F0AD
:101180000D0015001D0024002C0034003C0044001C
:101190004C00540058006000640000F04CFB00223A
:1011A00000F076FB22465A216BE200F044FB00225D
:1011B00000F06EFB22465D2163E200F03CFB00F094
:1011C00066FB224660215CE200F035FB002200F065
:1011D0005FFB2246632154E200F02DFB002200F069
:1011E00057FB224666214CE200F025FB002200F06E
:1011F0004FFB2246692144E200F01DFB002200F073
:1012000047FB22466C213CE200F015FB002200F077
:101210003FFB22466F2134E200F00DFB002200F07C
:1012200037FB224672212CE200F005FB002202E08F
:1012300000F001FB012200F02BFB2246752120E289
:1012400000F0F9FA012218E000F0F5FA01221CE0A2
:10125000521E0C2A58D8DFE812F00D0015001D00B0
:101260002100250029002D003100350039003D0006
:1012700045004D0000F0DFFA002200F009FB224695
:101280007821FEE100F0D7FA002200F001FB2246AF
:101290007B21F6E100F0CFFA00221EE000F0CBFA4D
:1012A000002222E000F0C7FA002226E000F0C3FA94
:1012B00000226EE000F0BFFA002272E000F0BBFAFC
:1012C000002276E000F0B7FA0022DCE000F0B3FA8A
:1012D0000022E0E000F0AFFA012200F0D9FA224645
:1012E0007E21CEE100F0A7FA012200F0D1FA2246D9
:1012F0008121C6E100F09FFA012200F0C9FA2246DE
:101300008421BEE1521E0C2A00F2C081DFE812F0F7
:101310000D001100150019001D00210025002900F5
:10132000300037003E0046004E0000F084FA0022F4
:10133000B9E000F080FA00221AE100F07CFA002205
:101340001EE100F078FA002222E100F074FA002297
:1013500083E100F070FA002287E100F06CFA0022CD
:101360008BE100F068FA00F092FA2246AB2188E1A6
:1013700000F061FA00F08BFA2246AE2181E100F024
:101380005AFA00F084FA2246B1217AE100F053FAC9
:10139000012200F07DFA2246872172E100F04BFA2B
:1013A000012200F075FA22468A216AE100F043FA30
:1013B000012200F06DFA22468D2162E1521E0C2AB4
:1013C000A2D8DFE812F00D0015001D0025002D0049
:1013D00035003D0045004D0055005D0065006D0085
:1013E00000F029FA012200F053FA2246002148E1D8
:1013F00000F021FA012200F04BFA2246032140E1DD
:1014000000F019FA012200F043FA2246062138E1E1
:1014100000F011FA012200F03BFA2246092130E1E6
:1014200000F009FA012200F033FA22460C2128E1EB
:1014300000F001FA012200F02BFA22460F2120E1F0
:1014400000F0F9F9012200F023FA2246122118E1F6
:1014500000F0F1F9012200F01BFA2246152110E1FB
:1014600000F0E9F9012200F013FA2246182108E100
:1014700000F0E1F9012200F00BFA22461B2100E105
:1014800000F0D9F9012200F003FA22469021F8E099
:1014900000F0D1F9012200F0FBF922469321F0E09F
:1014A00000F0C9F9012200F0F3F922469621E8E0A4
:1014B000521E0C2A00F2EA80DFE802F0070F171F25
:1014C000272F373F474F575F670000F0B4F90122DD
:1014D00000F0DEF922461E21D3E000F0ACF9012233
:1014E00000F0D6F922462121CBE000F0A4F9012238
:1014F00000F0CEF922462421C3E000F09CF901223D
:1015000000F0C6F922462721BBE000F094F9012241
:1015100000F0BEF922462A21B3E000F08CF9012246
:1015200000F0B6F922462D21ABE000F084F901224B
:1015300000F0AEF922463021A3E000F07CF9012250
:1015400000F0A6F9224633219BE000F074F9012255
:1015500000F09EF92246362193E000F06CF901225A
:1015600000F096F9224639218BE000F064F901225F
:1015700000F08EF92246992183E000F05CF9012207
:1015800000F086F922469C217BE000F054F901220C
:1015900000F07EF922469F2173E0521E0C2A00F2D1
:1015A0007580DFE802F0070F171F272F373F474FDF
:1015B000575F670000F03FF9012200F069F9224609
:1015C0003C215EE000F037F9012200F061F922468B
:1015D0003F2156E000F02FF9012200F059F9224690
:1015E00042214EE000F027F9012200F051F9224695
:1015F000452146E000F01FF9012200F049F922469A
:1016000048213EE000F017F9012200F041F922469E
:101610004B2136E000F00FF9012200F039F92246A3
:101620004E212EE000F007F9012200F031F92246A8
:10163000512126E000F0FFF8012200F029F92246AE
:1016400054211EE000F0F7F8012200F021F92246B3
:10165000572116E000F0EFF8012200F019F92246B8
:10166000A2210EE000F0E7F8012200F011F9224675
:10167000A52106E000F0DFF8012200F009F922467A
:10168000A8216020BDE81040FEF784BD10BD59467A
:101690005046FEF795BD29462046FEF791BD2DE93F
:1016A000F84F8B460B9C0C9D0D9E0E9FDDF83C80E9
:1016B000DDF84090134682465A460121FEF780FD30
:1016C0009DF800305A460221FFF7E2FF9DF82830CE
:1016D0005A460321FFF7DCFF23465A460421FFF751
:1016E000D7FF2B465A460521FFF7D2FF33465A460D
:1016F0000621FFF7CDFF3B465A460721FFF7C8FFFB
:1017000043465A460821FFF7C3FF4B465A46504608
:1017100001B0BDE8F04F30E070B50D461646044606
:1017200033462A460121FEF74BFD33462A46022165
:10173000FFF7B2FF33462A460321FFF7ADFF3346DA
:101740002A460421FFF7A8FF33462A460521FFF762
:10175000A3FF33462A460621FFF79EFF33462A465B
:101760000721FFF799FF33462A460821FFF794FF28
:1017700033462A462046BDE870400921FEF720BDC9
:1017800038B50C4680B900F056F8022200F080F817
:1017900000252246E9B200F07CF800F048F8F8DBBA
:1017A00000F049F803220EE000F045F800F06FF871
:1017B00000252246E9B200F06CF800F038F8F8DBBA
:1017C00000F039F8012200F063F8002525E038B573
:1017D0000C4680B900F02FF8022200F059F80125DC
:1017E0002246E9B200F055F800F021F8F8DB00F0ED
:1017F00022F803220EE000F01EF800F048F8012560
:101800002246E9B200F045F800F011F8F8DB00F0EC
:1018100012F8012200F03CF801252246E9B26020CE
:10182000FEF7B8FCED1CE8B2AB28F6DB31BDED1CD1
:10183000E8B2B4287047C522FE216020FEF7AABC9A
:1018400038B50C4680B9FFF7F6FF022200F020F809
:1018500002252246E9B200F01CF8FFF7E8FFF8DBAA
:10186000FFF7E9FF03220EE0FFF7E5FF00F00FF8B6
:1018700002252246E9B200F00CF8FFF7D8FFF8DBAA
:10188000FFF7D9FF012200F003F80225C5E7002287
:10189000FD216020FEF77EBC80B5FF210020FFF710
:1018A000CFFFFF210020FFF792FFFF210020FFF76D
:1018B00067FF00F018FE00F012FE00F00CFEFFF7CC
:1018C000BAFF0422FFF7E4FFFF220121FFF7E1FF47
:1018D000BDE80840012200216020FEF75BBC2DE935
:1018E000F84F00F000FE00F0FAFD00F0F4FDDFF824
:1018F000904BDFF8908B02E06D1CBD2D05DB98F856
:101900000000012840F0CC800025625D0121FFF736
:1019100003FF601900F1680701213A7E00F0C7F863
:10192000601900F1280A01219AF8182000F0BBF88C
:1019300060190221027A00F0B8F8601900F18806F7
:101940000221327800F0B3F8601900F14809022151
:1019500099F8002000F0A7F860190321027C00F03C
:10196000A4F8327A032100F0A2F899F808200321A4
:1019700000F099F860190421027E00F096F8327C9C
:10198000042100F094F899F81020042100F08BF85D
:101990006019052190F8202000F087F8327E05219B
:1019A00000F085F899F81820052100F07CF89AF8E5
:1019B0000020062100F079F8601900F1A80B06213B
:1019C0009BF8002000F073F83A78062100F06BF8DD
:1019D0009AF80820072100F068F89BF808200721F2
:1019E00000F065F83A7A072100F05DF89AF81020C7
:1019F000082100F05AF89BF81020082100F057F851
:101A00003A7C082100F04FF89AF81820092100F0DC
:101A10004CF89BF81820092100F049F83A7E09217A
:101A200000F041F899F800200A2100F03EF8601912
:101A300000F1C8073A780A2100F039F832780A2113
:101A400000F031F899F808200B2100F02EF83A7ACE
:101A50000B2100F02CF8327A0B2100F024F899F8D1
:101A600010200C2100F021F83A7C0C2100F01FF826
:101A7000327C0C2100F017F899F818200D2100F0A5
:101A800014F83A7E0D2100F012F8327E0D2100F09C
:101A90000AF898F8000001283FF42EAF002000E07B
:101AA0000120BDE8F28F022036E6012034E6002056
:101AB00032E62DE9F04F8BB000F015FD00F00FFD80
:101AC00000F009FD05E0642001F0F6F9641C302CFB
:101AD00005DB00F0D0FC022940F0E381002404F192
:101AE0001007DFF8A409DFF8002EC0190A9000786B
:101AF0000690D15DDFF8F40D0591C25DDFF8F01DB1
:101B00000492C85DDFF8EC2D0390D15DDFF8E80D9D
:101B10000291C25DDFF8E41D0192C85DDFF8142E6A
:101B200000900121D35DDFF8100EC25D00F041FB93
:101B3000DFF85409DFF8B02D015D0691105DDFF884
:101B4000AC1D05900A5DDFF8A80D0492015DDFF879
:101B5000A42D0391105DDFF8A01D02900A5DDFF84F
:101B60009C0D0192015D00F0DEF90121135D025D23
:101B700000F019FB04F1200000F0AFF90991097899
:101B800006911A5CDFF8641D05920B5CDFF8602D8E
:101B90000493115CDFF85C3D03911A5CDFF8581D7B
:101BA00002920B5CDFF8542D0193115CDFF8843D49
:101BB0000091DFF8841D1B5C0A5C012100F0F6FA3D
:101BC00004F1120000F089F9089100F08CF900F09E
:101BD000F0FAA01C00F079F90591DFF8102DDFF87C
:101BE000101D135C00F0A5F9DFF84C1D00921B5C82
:101BF0000A5C022100F0D7FA04F1220000F06DF92E
:101C0000079100F070F900F0D1FA04F1140000F02F
:101C100051F90D182A7800F0A7FA00F0CAFA201D31
:101C200000F04DF900F0A0FA00F0BDFA04F1240034
:101C300000F040F90E18327800F096FA00F0B6FA8B
:101C400004F1160000F036F901EB000B9BF80020C0
:101C500000F06BFA00F0ADFAA01D00F030F900F0D2
:101C600064FA00F0A0FA04F1260000F023F901EB79
:101C7000000898F8002000F058FA00F097FA04F1F4
:101C8000180000F017F901EB000999F800200692FE
:101C9000195CDFF8582C0591135CDFF8541C00F038
:101CA00048F900921B5CDFF8901C0A5C052100F0EB
:101CB00080FA04F1080000F002F900F08DF900F05C
:101CC00072FA04F1280000F0F5F801EB000A9AF826
:101CD000002000F081F900F069FA04F11A0000F028
:101CE00000FA00F066FA04F10A0000F0FAF900F0D8
:101CF0005AFA04F12A0000F0F4F900F057FA04F15E
:101D00001C0000F0CAF900F054FA04F10C0000F0D5
:101D1000C4F900F048FA04F12C0000F0BEF900F01C
:101D200045FA04F11E0000F094F900F042FA04F1C3
:101D30000E0000F08EF900F036FA04F12E0000F0EB
:101D400088F900F033FA099900F0AFF804F12000A7
:101D5000DFF8982B195C00F024F900F02AFA0A98B1
:101D6000DFF8842B01780691D05DDFF8801B0590A9
:101D7000CA5DDFF87C0B0492C15DDFF8782B03911C
:101D8000D05DDFF8741B0290CA5DDFF8700B019222
:101D9000C15D00F0C8F80921D35DC25D00F003FA0F
:101DA00004F13000DFF8E0160A5CDFF83C3B0692F5
:101DB000195CDFF8382B00F0F4F800F0F7F9079918
:101DC00000F073F804F1220000F025F900F0F1F9B9
:101DD000089900F06AF804F1120000F01CF900F014
:101DE000E2F904F1320000F070F8DFF8002B00F0A7
:101DF00015F900F0DBF9317800F0ACF804F12400BB
:101E000000F016FA00F0D5F9297800F0A3F804F1F3
:101E1000140000F00DFA00F0C6F904F1340000F0EF
:101E20009DF80B2100F0C2F998F8001000F092F82C
:101E300004F1260000F0DEF900F0BBF99BF8001079
:101E400000F088F804F1160000F0D4F900F0ABF9C6
:101E500004F1360000F082F80C2100F0A7F99AF89E
:101E6000001000F077F804F1280000F0A5F900F068
:101E7000A0F999F8001000F06DF804F1180000F0D6
:101E80009BF900F090F904F1380000F067F80D219B
:101E900000F08CF900F0EFFA02293FF414AE0020B4
:101EA00000E001200BB0BDE8F08FDFF83C3A0A7883
:101EB00006927047DFF8D015DFF82C3A7047DFF84C
:101EC000C815DFF8243A0A5C7047DFF8BC15DFF864
:101ED000183A0A5C0692195C7047DFF8AC15DFF817
:101EE000083A01447047097806911A5CDFF8FC193A
:101EF00005920B5CDFF8F8290493115CDFF8F439E4
:101F000003911A5CDFF8F01902920B5CDFF8EC2900
:101F10000193115CDFF81C3A0091DFF81C1A1B5C7E
:101F20000A5C02217047DFF80C2ADFF80C0A0091E6
:101F3000704704930A5CDFF8BC390392195CDFF840
:101F4000B8290291135CDFF8B41901930A5CDFF839
:101F5000E4397047DFF8902906917047DFF82815BB
:101F6000DFF884390A5C0692195CDFF88029059154
:101F7000135CDFF87C1904930A5CDFF8783903926C
:101F8000195CDFF874290291135CDFF87019019372
:101F90000A5CDFF8A039DFF8A01900921B5C0A5C2C
:101FA00070470591135CDFF8481904930A5CDFF869
:101FB00044390392195CDFF840290291135CDFF881
:101FC0003C1901930A5CDFF86C39DFF86C19009258
:101FD0001B5C0A5C092170470692195CDFF80C292A
:101FE0000591135CDFF8081904930A5CDFF80439E3
:101FF0000392195CDFF800290291135CDFF8FC18EA
:1020000001930A5CDFF82C39DFF82C1900921B5C75
:102010000A5C05217047DFF8D428195C0591135C30
:10202000DFF8CC1804930A5CDFF8C8380392195C17
:10203000DFF8C4280291135CDFF8C01801930A5C32
:10204000DFF8F038DFF8F01800921B5C0A5C0A2118
:102050007047DFF83414DFF890380A5C0692195C98
:10206000DFF888280591135CDFF8841804930A5C74
:10207000DFF880380392195CDFF87C280291135C4A
:10208000DFF8781801930A5CDFF8A838DFF8A818A1
:1020900000921B5C0A5C08217047DFF8EC13DFF844
:1020A00048380A5C0692195CDFF840280591135CF9
:1020B000DFF83C1804930A5CDFF838380392195CA7
:1020C000DFF834280291135CDFF8301801930A5CC2
:1020D000DFF86038DFF8601800921B5C0A5C0721AB
:1020E0007047DFF8A413DFF800380A5C0692195C29
:1020F000DFF8F8270591135CDFF8F41704930A5C06
:10210000DFF8F0370392195CDFF8EC270291135CDB
:10211000DFF8E81701930A5CDFF81838DFF81818C1
:1021200000921B5C0A5C062170470692195CDFF87E
:10213000BC270591135CDFF8B81704930A5CDFF83D
:10214000B4370392195CDFF8B0270291135CDFF813
:10215000AC1701930A5CDFF8DC37DFF8DC1700927C
:102160001B5C0A5C042170470692195CDFF87C272F
:102170000591135CDFF8781704930A5CDFF8743775
:102180000392195CDFF870270291135CDFF86C177B
:1021900001930A5CDFF89C37DFF89C1700921B5C08
:1021A0000A5C032170470220FFF779BA0120FFF78C
:1021B00076BA0020FFF773BADFF83017135C059387
:1021C0000A5CDFF82C370492195CDFF828270391AA
:1021D000135CDFF8241702930A5CDFF820370192C2
:1021E000195CDFF850270091135CDFF84C170A5C8C
:1021F0000D217047DFF8F416135C05930A5CDFF8D5
:10220000F0360492195CDFF8EC260391135CDFF8DA
:10221000E81602930A5CDFF8E4360192195CDFF8F5
:1022200014270091135CDFF810170A5C0C2170472B
:10223000DFF8B816135C05930A5CDFF8B436049235
:10224000195CDFF8B0260391135CDFF8AC1602933B
:102250000A5CDFF8A8360192195CDFF8D8260091F5
:10226000135CDFF8D4160A5C0B2170472DE9F84F98
:10227000DCB000F035FE00F026F900F0F7F800F0D1
:10228000F0F8C0B2019000F02EF900F028F900F04B
:1022900022F90020272104AE0022002301FB02FCCA
:1022A00000EB400737446744FC545B1C032BF7DB0F
:1022B000521C092AF1DB401C0C28EDDD00F0DBF894
:1022C000032940F0CA80032C09D100F009FE00F078
:1022D000FAF800F0CBF800F0C4F8C0B2019000F0BA
:1022E000CAF8032940F0B78020460399029C019B5D
:1022F00000274FF02708BD4208FB07F249D178B903
:102300000DF1100C0DF1100E944496440EF12406BC
:102310008CF82410747004AE32442432937046E07A
:10232000012817D10DF1100E01EBD17696447610ED
:102330008EF824600DF1100E04EBD4764FEA660C93
:10234000724402F1240603EBD37286F801C05210E6
:10235000B2702CE002281CD18E1001EB56764FEAA9
:10236000E60E04AEB6180DF1100C86F824E0A610A7
:1023700004EB56764FEAE60E04AEB61824366244F5
:1023800086F801E024324FEAA30E03EB5E76F610E6
:102390000CE00DF1100E96444FF0000C8EF824C0A6
:1023A00000260DF1100C62442432567096707F1C8A
:1023B000092FA0DB02940391441C0193E4B24FF077
:1023C0000009304F2720002600FB09F809F1010021
:1023D0008DF8000006EB460B04A8404406F1010A04
:1023E00000F068F804A8404400F059F804A84044FC
:1023F00000F04CF8387803282DD1761C0C2EE5DD42
:1024000009F10109B9F1090FDCDB642000F054FD8A
:10241000387803281FD100202721002201FB00F378
:10242000002702EB42080DF1100E9E44C6440DF148
:10243000100CBE449C44C4449EF803600CF8076032
:102440007F1C032FEFDB521C0C2AE9DB401C092800
:10245000BFF634AFE1E7002000E001205DB0BDE849
:10246000F08FC0B20290EDB200F03ABDC0B203905E
:10247000002400F035BD03480178704700000000DB
:10248000900000208C050020000000205844837834
:102490009DF800105FFA8AF20220FDF791BE5844C1
:1024A00043789DF800105FFA8AF20120FDF788BE9C
:1024B00008F1010A10F80B309DF800105FFA8AF25B
:1024C0000020FDF77DBE092190FBF1F505EBC50568
:1024D000451B00F005BD00210120FFF751B9002187
:1024E0000120FFF774B900210120FFF7A9B92DE9F8
:1024F000F04FDBB000F0F4FCC0B2029003AC00F08F
:10250000EFFCC0B20190002500F0EAFC5FFA80F910
:10251000FFF7E9FFFFF7E3FFFFF7DDFF00202721CB
:102520000022002301FB02F700EB400626443E4454
:10253000F5545B1C032BF7DB521C082AF1DD401C11
:102540000D28EDDB00F0F2F940F0CA81002403AE63
:102550000CE00BD100F0C4FCC0B2029000F0C0FC53
:10256000C0B2019000F0BCFC5FFA80F900F0DEF927
:1025700040F0B481029A0199002303EB430044B96F
:10258000325403AF03AD07442844797080F80290B9
:102590006AE0012C0DD102EBD2777F10375401EBAA
:1025A000D17503AF07446D107D7009EBD9756D10BF
:1025B0004CE0022C0CD1032792FBF7F737540DF1B6
:1025C0000C0E4FF0030C864491FBFCFC032723E028
:1025D000032C13D1571002EB9775AD1035540DF144
:1025E0000C0C4D1001EB95778444BF108CF80170F2
:1025F0004FEA690709EB9775AD1027E0042C10D15D
:10260000062792FBF7F737540DF10C0E4FF0060C2E
:10261000864491FBFCFC06278EF801C099FBF7F776
:102620001FE0052C16D1971002EB5775ED103554AD
:102630000DF10C0C8D1001EB55778444FF108CF8D4
:1026400001704FEAA90709EB5775ED1003AF384445
:10265000857009E00DF10C0E0027864437548EF882
:10266000017003AD284487705B1C0D2B85DB029243
:102670000191002527274FF000086F4300F04FF924
:102680003844FFF715FF03A83844FFF708FF03A8F5
:102690003844FFF7FBFE08F10108B8F10D0FEDDB40
:1026A00000F044F904D16D1C082DE3DD0078042806
:1026B00040F0148100222723082002EB42074FF04C
:1026C000000E13FB00FC0DF10C08B844E04403A914
:1026D000F0443944614418F8275C01F80E500EF1BB
:1026E000010EBEF1030FEEDB401EC0B20028E6D1A2
:1026F000521C0D2AE0DB641C0E2C7FF72AAF00244D
:102700000CE00BD100F0ECFBC0B2029000F0E8FB53
:10271000C0B2019000F0E4FB5FFA80F9029A0199DF
:10272000002303EB43007CB903AE03AF0644074428
:1027300007F59C7586F8382103AE304400F59C7788
:10274000697087F802907BE0012C13D103AF02EB94
:10275000D2760744761087F8386103AF074401EB5F
:10276000D17607F59C707610467009EBD976761015
:10277000867065E0022C0AD103AF032600F0C0F892
:102780004FF0030C00F0C2F84FF0030C28E0032CCC
:102790001AD156100DF10C0C02EB96778444BF1041
:1027A0008CF838710DF10C0C4E10844401EB9677C7
:1027B0000CF59C76BF10777003AE4FEA690709EB02
:1027C00097753044AD102CE0042C0ED103AF0626D3
:1027D00000F096F84FF0060C00F098F84FF0060C59
:1027E00099FBFCFC87F802C02AE0052C1CD196104E
:1027F0000DF10C0C02EB56778444FF108CF8387105
:102800000DF10C0C8E10844401EB56770CF59C7680
:10281000FF10777003AE4FEAA90709EB57753044F4
:10282000ED1000F59C770AE003AF0744002687F817
:102830003861002503AE064406F59C777D70BD70B7
:102840005B1C0D2BFFF66DAF029201910025474FE7
:1028500027264FF000086E4300F061F83044FFF780
:1028600027FE03A83044FFF71AFE03A83044FFF701
:102870000DFE3878042831D108F10108B8F10D0FA8
:10288000EADB6D1C082DE3DD3878042826D1002012
:102890002721002201FB00F3002702EB42060DF185
:1028A0000C0E9E44B6440DF10C0CBE449C44B44442
:1028B0009EF827500CF807507F1C032FEFDB521CAB
:1028C0000D2AE9DB401C0828E3DB641C0E2C7FF793
:1028D00018AF4FF47A7000F0EFFA33E6002000E012
:1028E00001205BB0BDE8F08F03000020060000204F
:1028F000090000200C0000200F0000201200002022
:10290000074492FBF6F687F83861704703AE064439
:1029100006F59C7791FBFCFC87F801C07047681CAA
:102920008DF8000008EB480B03A870470F480178AA
:1029300004297047150000201800002010B5FEF78C
:10294000CEFF0A4C20780128FCD0FFF7B2F820789F
:102950000228FCD0FFF78AFC20780328FCD0FFF780
:10296000C6FD20780428FCD010BD00008C05002096
:10297000F8B5040025D004F13C05697821B90020A0
:102980002870204600F016FB242169702068026838
:102990005208520002602068016841F40041016061
:1029A0002068026822F40042026000F0CAFB01467F
:1029B0006068DFF80C22904205D2DFF808329942B5
:1029C00005D20120F2BDDFF800028142F9D3206870
:1029D000DFF8F8314668B1FBF3F3B60943EA86162F
:1029E00046602668376A6068904206D34FF4967056
:1029F00043434FF47A70B3FBF0F35B1CBF0943EA27
:102A000087133362491E2368DE696768974206D2DE
:102A10007F0000F043F8042913D2042111E0A068DC
:102A200020B907EB470700F039F805E019204743C4
:102A300000F034F841F4804108050CBF012141F455
:102A40000041DFF88C0106400E43DE612268136806
:102A5000E169206A23F0C0030B430343136022683B
:102A6000DFF87001936821690340E0680B4303437A
:102A700093602168CA68A3696069120A034343EA44
:102A80000222CA602068016841F001010160002053
:102A90006860202169702063A870F2BDB1FBF7F176
:102AA000491CC1F30B017047308D7262411E3185A4
:102AB000708D411E718570472DE9FC4700F08CF840
:102AC00000F090F85DD100F074F8002859D1387802
:102AD000012856D000F067F801D400F09AF841467A
:102AE000D6F800E00C9D0B98DDF828C0DEF80080D9
:102AF00028F40068CEF800804FF0210E87F801E03E
:102B00004FF0400887F802804FF0000EC7F804E04D
:102B100000F070F800F090F800282BD108E0716AFE
:102B20000A780261706A411C7162308DFFF7BEFF46
:102B3000308DA0B122462946304600F042F9A0B9B6
:102B4000706A326801781161706A411C7162308D5F
:102B5000411E00F019F8EBD589B20029DFD12246D9
:102B60002946304600F058F930B17868042801D180
:102B700000F0B6F8012005E000F0B2F800F00CF823
:102B800000E00220BDE8F6873185708D421E728517
:102B90003068426953077047202078700021B9706F
:102BA0000020387070470121397030680268D10701
:102BB00070470094192301220D49304600F098B85F
:102BC000A186010080841E0000093D0040420F00E4
:102BD0000030FFFF007CFFFF0646884691469A467C
:102BE00000F000BB06F13C070446787820287047C7
:102BF00002001000C6F824C070855346708D3085E1
:102C00004A46DFF83000F062019400953046704784
:102C10000000026842F001020260704700902168E3
:102C20004A690092704700224FF00111204600F0DF
:102C30005FB800000000FFFF2DE9F843044620685C
:102C4000DDF82080099F8946016841F480711546AE
:102C50001E46016000974346FFF7E5FF40B120683C
:102C60000168CA0544BF4FF400702064032023E0CC
:102C7000206809F0FE0101613B46424600F024F85D
:102C8000A0B9FFF7CBFF00F019F800F027F840B922
:102C9000012E0DD02168280A08613A4600F01DF87F
:102CA00030B1206C042801D100F011F8012003E0BC
:102CB0002068EDB205610020BDE8F2833A468969DB
:102CC00000914146009870470849204638E0206846
:102CD000016841F40071016070474146204670E090
:102CE0003068016841F40071016070470200010022
:102CF0002DE9F041069F05460E4690461C463102DE
:102D00002868090E01290CBF40698069304080B2F3
:102D1000B1B288420CBF0120002040450DD114F112
:102D2000010FECD000F05EFAC01B844201D3002CEE
:102D3000E5D100F063F8012000E00020BDE8F0815B
:102D4000F8B505460E4614461F463102090E28689E
:102D5000012919D14169314089B2B2B2914219D0E9
:102D600041694A0518D500F025F82A68506100210C
:102D700005F13C002963202242708170426842F0D4
:102D800004024260017013E08169314089B2B2B23D
:102D90009142E5D10020F2BD14F1010FD5D000F031
:102DA00021FAC01B844201D3002CCED100F026F8BA
:102DB0000120F2BD016841F4007101606FF4806090
:102DC000704770B505460C461646286841690806E6
:102DD00012D4284600F03DF808B1012070BD14F16E
:102DE000010FF2D000F0FEF9801B844201D3002CC9
:102DF000EBD100F003F8F0E7002070BD002028635D
:102E0000202105F13C00002241708270416841F0B0
:102E1000200141600270704770B505460C461646A9
:102E200028684169480712D4284600F012F808B112
:102E3000012070BD14F1010FF2D000F0D3F9801B16
:102E4000844201D3002CEBD1FFF7D8FFF0E700203C
:102E500070BD01684A6953050FD56FF480624A61FD
:102E6000002101633C30202242708170426842F0B0
:102E7000040242600170012070470020704730B4A6
:102E8000002513E050F8042BD30744BFA9F1010338
:102E90009A18091F042942F8045BFAD213468C07DA
:102EA00044BF15809B1CC90748BF1D7050F8041B08
:102EB0000029E7D130BC704738B5044600F092F9DC
:102EC00014F1010F054602D004480178641800F09F
:102ED00089F9401BA042FAD331BD00BF9002002007
:102EE000F0B5244C244A2078244B6FF0004150BBAD
:102EF0000820656803FB05250E46B5FBF6F601FBC9
:102F00001655401E6560F4D11D4D2E461020676891
:102F100003FB07278C46B7FBFCFC01FB1C776760B3
:102F200046F8047B8E4603FB0727B7FBFEFE01FB3A
:102F30001E776760401E46F8047BE8D1E86FC5F84D
:102F4000800001252570606803FB00220B46B2FB60
:102F5000F3F301FB13210A4A616092F8803003F019
:102F60001F0352F82300C2F8800042F8231020F01B
:102F70004040F0BDBC0400205FF36E3C0D661900BC
:102F80000C100020254A2648264980B542600023BF
:102F90004FF4804201608360C360026143618361DA
:102FA000C3610362FFF7E4FC18B1BDE8014000F023
:102FB0009FB901BD10B586B004461422002101A8B6
:102FC00000F09EF921681748814224D10022164C56
:102FD00000921222206840F002002060216801F077
:102FE00002010091C0210098104801910292012134
:102FF0000391032204210591049201A900F08AF9AA
:1030000000200090216941F400112161206900F441
:1030100000100090009806B010BD0000A0860100CE
:10302000F0100020005400403038024000040240FC
:103030002DE9F04104000F4654D04B4E306800F0AB
:103040000F00B84202D200F073F84BD12068474D10
:10305000810712D5400703D5A96841F4E051A96062
:103060002078010703D5A86840F46040A860A968EB
:10307000A06821F0F0010143A9602178C80729D593
:103080006068012802D129688A0305E0022818BF78
:10309000032803D129688A0103D423E029688A0719
:1030A00020D5A968890840EA8100A86000F09AF854
:1030B0008046A868616800F00C00B0EB810F09D071
:1030C00000F090F8A0EB080041F289318842F0D37B
:1030D00003202BE0306800F00F00874204D200F09C
:1030E00027F801D0012021E02078410705D5AA6802
:1030F000E06822F4E0520243AA602178080706D56E
:10310000A968206921F4604141EAC001A96000F08A
:1031100039F8AA681649174BC2F30312895CC840F4
:1031200018601548006800F0D1F90020BDE8F08172
:103130003770316801F00F01B94270470D480068DF
:1031400070470C480D4A006813680D49C3F382228A
:1031500006E00848094A006813680949C3F3423287
:10316000895CC84070470000003C024000380240C3
:10317000509700089C020020980200200838024066
:10318000B498000830B5144C606800F00C000428B6
:1031900002D0082802D01DE0104830BD2268206807
:1031A0000023410202F03F0204D525680B49C5F314
:1031B000881003E020680A49C0F38810A1FB0001D1
:1031C00000F0A4F92168C1F30141491C4900B0FB9A
:1031D000F1F030BD024830BD0438024040787D0136
:1031E0000024F40001484068704700BF90020020AE
:1031F00001B54FF6FF7301226946394800F053FAD2
:10320000009802BD80B500F04BFB00F01FF800F005
:1032100061FB00F0A9FBFFF7B5FE00F0BFFB00F07B
:103220000FFC00F037FC00BF32A000F0EDFC0420E2
:1032300000F054FD2B4954200870FEF72DFBFFF7DA
:103240007DFB4FF4FA70FFF737FEFAE780B592B0D6
:10325000302106A800F05CFD142101A800F058FD03
:10326000002000904FF480331F48016841F08051E6
:1032700001600021006800F08050009000981B4819
:103280000091026822F4404242F4004202600122AE
:10329000006800F44040009006A8009906920221C0
:1032A0004FF480020C910D9219214FF4A8720E91E7
:1032B0000F920421072207931091119200F02CFD28
:1032C000022102910F204FF48051019000220491BD
:1032D00003920592022101A8FFF7AAFE13B000BDD8
:1032E000D41100203C120020403802400070004001
:1032F0007047000068656C6C6F20776F726C6400BB
:1033000010B5044610460A460146204600F08CFEE1
:10331000204610BD2DE9F84F0D4600266349644A4A
:103320000F23044601202F68B04000EA07088045BB
:1033300040F0B2804FEA460C032707FA0CF76FEA19
:10334000070E6F68012F18BF022F03D0112F18BF6F
:10335000122F12D1A768D5F80C900EEA070709FAC8
:103360000CF949EA0707A760676827EA00006F6859
:10337000C7F30017B74038436060E068AF680EEAF3
:10338000000007FA0CF73843E060B0006F68022FC6
:1033900018BF122F12D1F70804EB870700F01C09A1
:1033A000D7F820A003FA09FB2AEA0B0AD5F810B0D7
:1033B0000BFA09F949EA0A09C7F8209027680EEACA
:1033C000070E2F7907F0030707FA0CF747EA0E07F5
:1033D00027606F68FF005FD5002700974FEA960CC3
:1033E000176847F48047176000F00C00176807F46F
:1033F0008047009703FA00FE009F2E4F57F82C706D
:1034000027EA0E0E2C4FBC4208BF002713D02B4FCB
:10341000BC4208BF01270ED0294FBC4208BF02277B
:1034200009D0284FBC4208BF032704D0264FBC4216
:103430000CBF0427072707FA00F01E4F40EA0E00D2
:1034400047F82C006FEA08000F6800EA070C6F6865
:10345000FF0348BF48EA0C0CC1F800C04F6800EAFF
:10346000070C6F68BF0348BF48EA0C0CC1F804C0E2
:103470008F6800EA070C6F68FF0248BF48EA0C0C2F
:10348000C1F808C0CF6800EA070C6868800248BF2E
:1034900048EA0C0CC1F80CC0761C0F2E7FF642AF28
:1034A000BDE8F18F02B9090481617047003C014019
:1034B0004438024008380140000002400004024045
:1034C00000080240000C02400010024038B50D4DCB
:1034D0000D4B2A7804464FF47A711868B1FBF2F26A
:1034E000B0FBF2F000F0E6FB50B9102C08D200223D
:1034F00021464FF0FF3000F0B5FBAC60002032BD3C
:10350000012032BD900200209C020020D3BBD9B123
:10351000B2F5803F5BD2022A1ED98C46B1FBF2F194
:1035200002FB11C31B0443EA1043B3FBF2FC02FB92
:103530001C3380B240EA0343B3FBF2F002FB1032CB
:1035400040EA0C4000237047022A05D98446B0FBAC
:10355000F2F002FB10C270474AB105D100F001023F
:1035600049085FEA3000704700220023704700F0EE
:103570008FBD0B000200002100207047F7D300220E
:1035800000237047904271EB030CF2D370B5B1FA8F
:1035900081F4B3FA83F52C1BA340C4F1200532FA61
:1035A00005F63343A2405FF00046E64002E05B08C8
:1035B0005FEA3202841A71EB030524BF20462946D4
:1035C0007641F4D302000B003000002170BD70B5CD
:1035D000B1FA81F4B2FA82F5C4F120046419B4F1AD
:1035E0002006DAD3B2405FF00044F440002502E048
:1035F00052085FEA3303C61A71EB020E24BF30464D
:10360000714664416D41F3D302000B002000290094
:1036100070BDB1F5807F02D34FF0FF30704701706D
:10362000012070470078401E8041C043C00F7047A2
:1036300038B5040001D1012032BD00F021F808B9ED
:1036400000F022F800F012F800F023F8FFE74161E3
:1036500000F001F832BD2068C16841F40051C1603A
:103660000020686020216970A9707047242068706C
:103670002068C16821F40051C160204600F09EB866
:1036800004F138056878704700212970204600F061
:103690009CB92068016921F4904101612068416969
:1036A00021F02A0170472DE9F843054605F1380756
:1036B0000C46787820281646984646D1002C14BF30
:1036C000002E012042D0387801283ED001213970E7
:1036D0000020786021227A70FFF784FD8146AE8455
:1036E000EE840020387003E02A6814F8011B516052
:1036F000E88CE0B1E88C411EE9844B46A868CDF81F
:103700000080B0F5805F0DD100F022F8B8B92088B4
:103710002968C0F3080048602869002814BF641CA9
:10372000A41CE5E700F014F80028DDD007E0CDF890
:1037300000804B460022402100F00CF808B1032025
:1037400004E020207870002000E00220BDE8F28331
:10375000002280212846FFE72DE9F041069C05461E
:103760000E4690461F46286801683140B1420CBFA2
:1037700001200020404517D114F1010FF3D024B1EE
:10378000FFF730FDC01B8442EDD22868C16821F4E8
:10379000D07100F00CF805F13800202141708170E3
:1037A00000210170032000E00020BDE8F081C1602D
:1037B000286841694908490041617047D0B506460B
:1037C000642732681169F06821F4405101431161A6
:1037D0001924D3682C48B168034030690B437169E0
:1037E0000343F0690B430343D3605169B06921F48B
:1037F000407101435161F36924482549B3F5004FF5
:103800001FD18A4218BF824202D1FFF7A2FC01E019
:10381000FFF797FC0246A4FB02017268D30F520027
:10382000FFF774FE00F036F8FF0032376420B7FB74
:10383000F0F0420002F4F87202EB011200F007000F
:103840001DE08A4218BF824202D1FFF782FC01E0EC
:10385000FFF777FC0246A4FB02017268930F920007
:10386000FFF754FE00F016F83F0132376420B7FB33
:10387000F0F000F0F00202EB011200F00F003168EE
:1038800080188860D0BD0000F369FFFF001401407C
:10389000001001406421B0FBF1F107FB11077047F4
:1038A00080B50B48016841F400710160026842F480
:1038B00080620260016841F480710160032000F0C1
:1038C000C4F90020FFF702FE00F0E4FB002002BD77
:1038D000003C024010B586B01422002101A8FFF779
:1038E0000FFD00211E481F4C0091026842F00402A7
:1038F00002600022016801F0040100910099009229
:10390000036843F080030360016801F080010091C7
:1039100000990092036843F001030360016801F01D
:1039200001010091009900924FF40051036843F0A7
:1039300002030360006800F0020000900098204637
:10394000FFF7B0FD4FF400510191012200210391D6
:103950000491029201A92046FFF7DCFC06B010BDDD
:10396000303802400008024080B50020009000225C
:103970000948016841F4001101600021006800F469
:103980000010009000980F2000F06CF9BDE8024094
:103990000F2000F084B900BF3038024080B52448C1
:1039A000244901604FF4E13200230C21426083601E
:1039B000C360036141618361C361FFF739FE18B1E0
:1039C000BDE80140FFF794BC01BD10B586B00446C8
:1039D0001422002101A8FFF793FC216815488142B9
:1039E00024D1002214480092416941F01001416144
:1039F000416901F010010091009900924FF4C061FB
:103A0000036843F0010303600222006800F0010034
:103A1000009000980948019102920121039103222C
:103A200007210591049201A9FFF774FC06B010BDAF
:103A3000D411002000100140303802400000024044
:103A400010B5104C10490022204600F03FFB08B191
:103A5000FFF74EFC0D49204600F04BFB08B1FFF785
:103A600047FC0B49204600F06BFD08B1FFF740FC16
:103A7000204600F046FB18B1BDE81040FFF738BC07
:103A800010BD00BF980900206C040020980300209E
:103A90008803002018B58DB01022002109A8FFF777
:103AA0002FFC082200216846FFF72AFC1C22002177
:103AB00002A8FFF725FC4D4C4D48206000216820EE
:103AC000E0606160A1602161A161204600F040FDDD
:103AD00008B1FFF70DFC4FF48050099009A920466A
:103AE00000F0DAFD08B1FFF703FC204600F047FDC7
:103AF00008B1FFF7FDFB00210091019120466946C6
:103B000000F042FF08B1FFF7F3FB602102910022B1
:103B100003920492069202A9204600F045FD08B1E6
:103B2000FFF7E6FB204600F035F80EB010BD38B5C3
:103B300000F057F82DD100222E482F4D00924FF063
:103B40002062016841F00201016000682B4900F029
:103B500002000090009829604020A8600021E960E0
:103B60004FF4806028614FF400616A6069614FF42E
:103B70000050A86100214FF48032E9612A62696235
:103B8000284600F03DFF08B1FFF7B2FB6562AC6369
:103B9000A56331BD10B586B004461422002101A8EA
:103BA000FFF7AEFB21681248814218D10022144869
:103BB00000920222016841F0010101604021006889
:103BC00000F00100009000980E480191029200213F
:103BD000039104910221059101A9FFF79BFB06B017
:103BE00010BD0446024920688842704794110020A5
:103BF00000040040403802409010002070600240F5
:103C000030380240000002400EB4C0B5024603A89E
:103C100000210190009101AB0121044878440C304F
:103C200001F05EF806BC5DF810FB00BF4B5C0000C5
:103C30000901020002D43048815470472F4B02F032
:103C40000F021A4402F8041C70472D4B19684FF6F6
:103C5000FF020002114000F4E060084329490843D4
:103C60001860704770B5264B1C68C4F3022301240A
:103C7000C3F10705052D2EBF0F2504FA05F56D1EAE
:103C80001E1D072E34BF0023DB1E2940994004FA75
:103C900003F3BDE870405B1E1A401143C8E7010002
:103CA00007D4012200F01F01174B8A40400943F856
:103CB0002020704710B5401EB0F1807F01D3012055
:103CC00010BD124C60600F214FF0FF30FFF7B0FFC6
:103CD0000021A16007202060002010BD04280B49AE
:103CE00004D1086840F00400086070470A6822F0B8
:103CF00004020A607047000000E400E018ED00E0F4
:103D00000CED00E00000FA0500E100E010E000E04A
:103D1000002202F049B82E002DE9F843040016D025
:103D20002078DFF8F462C10713D5B06800F00C000A
:103D3000042807D0B06800F00C0008283DD1706856
:103D400041023AD53068810303D56068002800F04D
:103D50005E812078B14F810719D5B06810F00C0F43
:103D600007D0B06800F00C0008285BD170684102F1
:103D700058D43068810703D5E068012840F04781B6
:103D80003168206921F0F80141EAC00131602178F1
:103D9000080779D56069A249002868D001220A6025
:103DA000FFF720FA0546706F81076DD4FFF71AFA06
:103DB000401B0228F7D903202CE16068B0F5803F52
:103DC00004D1306840F48030306011E0B0F5A02FAD
:103DD000306806D140F480203060316841F4803191
:103DE00005E020F480303060316821F480213160BA
:103DF000606858B1FFF7F6F9054630688103A8D42A
:103E0000FFF7F0F9401B6528F7D3D4E7FFF7EAF98D
:103E10000546306881039CD5FFF7E4F9401B65280F
:103E2000F7D3C8E7E068A8B101213960FFF7DAF9F4
:103E300005463068810705D4FFF7D4F9401B0228F6
:103E4000F7D9B8E73068216920F0F80040EAC100EE
:103E500030609CE73860FFF7C5F905463168880790
:103E600095D5FFF7BFF9401B0228F7D9A3E70860F3
:103E7000FFF7B8F90546706F810705D5FFF7B2F96E
:103E8000401B0228F7D996E7207841075FD5306CB0
:103E90000025C1000AD400950125316C41F0805104
:103EA0003164306C00F0805000900098DFF874812D
:103EB000D8F80000C10513D4D8F8000040F4807091
:103EC000C8F80000FFF78EF98146D8F80000C10558
:103ED00006D4FFF787F9A0EB09000228F5D96AE7B5
:103EE000A068012805D00528306F06D140F00400F5
:103EF0003067306F40F0010005E040084000306757
:103F0000306F20F00400306741F28938A06860B15A
:103F1000FFF768F98146306F810713D4FFF762F924
:103F2000A0EB09004045F6D345E7FFF75BF9814672
:103F3000306F810706D5FFF755F9A0EB0900404522
:103F4000F6D338E71DB1306C20F080503064A069A2
:103F500000285ED0B16801F00C0108293AD002288F
:103F60002AD100203866FFF73DF905463068810107
:103F700005D5FFF737F9401B0228F7D91BE7E069A1
:103F8000216A626A0843A16A490840EA8210491E10
:103F900040EA0140E16A40EA016070600120386651
:103FA000FFF720F904463068810132D4FFF71AF98F
:103FB000001B0228F7D9FEE600203866FFF712F949
:103FC00004463068810124D5FFF70CF9001B022854
:103FD000F7D9F0E601281AD0B068E26900F4800150
:103FE000914202BF00F03F01226A91420FD147F691
:103FF000C071626A0140914202BF00F44031A26A7E
:10400000914202BF00F07060E16A884201D0012055
:1040100000E00020BDE8F283003802400000474283
:10402000800E47420070004062F30F2262F31F428D
:10403000401810F0030308D0C91A1FD3DB0748BF8C
:1040400000F8012D28BF20F8022D130030B41446CB
:104050001546103928BF20E93C00FAD8490728BF87
:1040600020E90C0048BF40F8042D890028BF20F843
:10407000022D48BF00F8012D30BC7047C91818BF89
:1040800000F8012DCB0728BF00F8012D7047430031
:104090007047000081B00020009000220A4841686B
:1040A00041F480414160416801F4804100910099F0
:1040B0000092036843F080530360006800F0805072
:1040C0000090009801B070474038024038B508B9F8
:1040D000022032BD00F51D74A3690BB10025A56156
:1040E00001B1616101212170027001F00DFF00201A
:1040F00032BD0246002011B1C2F88C127047022076
:10410000704780B501F036FF002002BD10B5D0F831
:104110008C2202241AB11268904700B9002420466C
:1041200010BD80B5D0F88C22536816E138B504462E
:1041300004F52075284602F04BF904F51B700121A7
:104140000160428B017D426011F01F0003D0022804
:104150000BD005D30EE02946204601F05BFF0DE0B1
:104160002946204602F076F808E02946204602F06B
:104170009BF803E001F0800100F040F8002032BD20
:1041800038B5044610460A0004F51B7329D1196896
:1041900003291ED104F5A6714A680D68AA420BD204
:1041A000AD1A0D60954238BF2A46014692B22046AC
:1041B00002F06BF9002032BD196A086928B1187A3B
:1041C000032802D1096920468847204602F065F994
:1041D000F0E70529EED100201860002100F00EF86C
:1041E000E8E71A6A906930B1187A032803D1926916
:1041F00020469047DEE7022032BD8021204601F0B4
:10420000D2BE38B504460800134604F51B7543D1E9
:104210002868022833D1226A616A914207D2521A71
:104220002262194692B2204602F01DF911E0E269BD
:10423000B2FBF1F001FB102090B98A4210D36868FC
:1042400082420DD200220021204602F00CF900200B
:104250006860002300220021204601F0CBFE14E01C
:10426000296AC86828B1287A032802D1C96820467B
:104270008847FFF7C2FF204602F016F905E0042840
:1042800018BF002801D1FFF7B8FF287B012804BF21
:1042900000212973002032BD2A6A506930B1287A82
:1042A000032803D1526920469047F3E7022032BD2C
:1042B00038B5044640230022002101F063FE04F5D6
:1042C000A270012140220160C260402300228021AF
:1042D000204601F057FE0120402104F51B72A06129
:1042E000616210720021116061600025506A1561E1
:1042F00028B1126A61685368C9B220469847002005
:1043000032BD01740020704700F51D700422017851
:10431000417002700020704700F51D7041780170F7
:104320000020704780B500F51D710A78032A03D17B
:104330008969C96901B18847002002BD0020704722
:10434000002070470020704780B500F51D720123E2
:104350001370926941685368C9B29847002002BD42
:1043600070B5064602230322812101F00BFE0122D3
:10437000F262022303220121304601F003FE0120F4
:10438000C6F858010025182002F0DAF8040006F5F6
:10439000247008BF0125046009D025754068416874
:1043A0008847022322460121304601F023FE284699
:1043B00070BD10B50446812101F0EFFD0022E262DC
:1043C0000121204601F0E9FD0021C4F8581104F54F
:1043D0002474206838B1606881688847206803F0D9
:1043E000B9FA00202060002010BDF8B500F51D7658
:1043F0000025F369ADF8005000220F78002417F073
:10440000600721D0202F53D14A78022A11D0032AE5
:1044100008D0092A11D00A2A07D00B2A48D1887857
:10442000586048E00122191D39E04888000A986068
:1044300041E0012203F1080131E001221A61CA883A
:10444000194602F018F836E04F7837B1062F0CD035
:104450000A2F1ED00B2F25D02AE03278032A27D12D
:104460000222694601F0F7FF25E04B881B0A222B48
:1044700006D1CA88316A0C68E72A28BFE62206E01E
:10448000212B04D1CA88294C0A2A28BF0922214697
:1044900005E03278032A0BD1012203F10C0101F06F
:1044A000DAFF08E03278032A02D18878D86002E087
:1044B00001F0A3FF02252846F2BD292101801C48F6
:1044C0007047292101801B487047292101801A4823
:1044D0007047D0F89002002101750020704738B570
:1044E000044604F524721568526869782878D36800
:1044F000984702232A460121204601F07BFD002037
:1045000032BD10B500F5247214682069012806D167
:10451000526861782078D368984700202061002095
:1045200010BD0A2101800548704700005404002096
:10453000D0030020FC030020280400206004002099
:104540000246022011B1C2F8941200207047000008
:1045500038B5040001D1012032BD00F021F818B9AE
:1045600000F01AF8FFF7E3FAFFE702206870211D58
:10457000206800F0EEF801206870002032BD38B5E8
:10458000040001D1012032BD00F00AF818B900F092
:1045900003F803F0E1F9E8E70021297020467047AD
:1045A00004F13C056878704770B500F063F801D1FC
:1045B000022070BD00F06BF832B1042A17D0082A2F
:1045C00028D00C2A39D04AE03068294600F0FEF89D
:1045D0003068816941F0080100F048F821F00401D9
:1045E000816131688A69286902438A6137E03068ED
:1045F000294600F010F93068816941F4006100F04B
:1046000035F821F4806100F031F82A6941EA02218D
:10461000816124E03068294600F026F93068C169DC
:1046200041F0080100F01EF821F00401C161316879
:10463000CA6928690243CA6111E03068294600F05E
:104640003BF93068C16941F4006100F00BF821F4D6
:10465000806100F007F82A6941EA0221C16100F097
:1046600010F870BDC1613068C16970478161306800
:1046700081697047064606F13C040D462078012802
:1046800070470120607000212170002070470120D8
:10469000207002216170704738B500F04EF801D1EA
:1046A000022032BD0120207002226270DFF8480231
:1046B0002A689368034093600868020018BF1028B6
:1046C0002DD0202818BF302829D0402823D05028AA
:1046D00016D0602818D0702803D0B0F5005F07D03E
:1046E00021E000F025F82868816841F0770105E0B5
:1046F00000F01EF82868816841F48041816012E072
:1047000000F012F850210BE0CA684968286800F0F0
:1047100014F9602104E000F007F8402100E00146B0
:10472000286800F01CF90EE0CA6849682868F5E0BE
:10473000CB684A688968286819E1054605F13C0498
:10474000207801287047012060700021217000202E
:1047500032BDF0B5694B0468694D6A4E6A4F9842A4
:1047600018BFB0F1804F04D0B8421CBFB042A8427D
:104770000CD14A6824F070041443984218BFB0F179
:10478000804F0ED0B84218BFB0420AD0A8421CBF1A
:104790005E4A904205D05E4DA8421CBF5D4A9042E1
:1047A00003D1CA6824F4407414434A6924F0800495
:1047B0001443046098428C68C4620A68826202D121
:1047C0000969554A116001234361F0BD70B5026A61
:1047D000520852000262066A446885690B688A685A
:1047E00025F073051D4326F002061643434B9842FD
:1047F0000BD1CA684B6926F0080624F440741643AE
:104800008A691C4326F004061443446085614968A4
:104810004163066270BD70B5026A384E22F0100224
:104820000262B042056A436884690A6824F4E64477
:1048300044EA02248A6825F0200545EA02150DD1D4
:10484000CA684E6925F0800545EA02158A6923F495
:104850004063164325F0400543EA860343608461C4
:1048600049688163056270BD70B5026A22F4807286
:104870000262056A4368C4690A688E6824F073049A
:1048800014431E4A25F40075904245EA06250DD1D1
:10489000CA684E6925F4006545EA02258A6923F451
:1048A0004053164325F4806543EA06134360C46110
:1048B0004968C163056270BD70B5026A0F4E22F48B
:1048C00080520262B042046A4268C3690D6823F4F0
:1048D000E64343EA05238D6824F4005444EA053492
:1048E00004D14D6922F4804242EA85124260C361DC
:1048F00049680164046270BD8800FFFF0000014048
:10490000000C00400008004000040040004001404E
:1049100000440140004801403000014010B5036AE6
:10492000046A64086400046223F00A03846924F0C2
:10493000F00444EA0214846123E010B5036A23F012
:10494000100303628369046A23F4704343EA023369
:1049500024F0A004836144EA0114046210BD82685B
:1049600022F07002114341F007018160704710B5D9
:10497000846824F47F442143114341EA0321816088
:1049800010BD1943016210BD70B500F13C031A78E7
:10499000012A01D1022070BD01221A7002245C702C
:1049A00005686E68AC680A6826F0700616436E608B
:1049B00002680E48824218BFB2F1804F0BD00C48FB
:1049C00082421CBF0B4DAA4205D00B4882421CBF3D
:1049D0000A4DAA4204D1486824F08004044394603C
:1049E000012159700020187070BD000000000140C6
:1049F0000004004000080040000C0040004001405E
:104A000070B50446FEF7EEFB06460CB9012070BDFA
:104A100004F13405002028700221697020680268C2
:104A200052085200026022681068C1070AD5FEF7DA
:104A3000D9FB801B0628F6D3202028620321697049
:104A4000032070BD1368DFF8300261680340A0687E
:104A50000B43E168034320690B4361690343A06989
:104A60000B43E1690343206A0B43616A0343042952
:104A700003D1E16A206B01430B43136023685A6939
:104A8000606AD208042840EAC2020AD1A66AE16A32
:104A9000324331B1A06988B9002E18BF022E1FD051
:104AA00016D35A61204600F003F9A96A3F228A40D2
:104AB0008260002028620121697070BDB0F5005F3E
:104AC0000AD1032EEDD8DFE806F00D0B0D03E8E761
:104AD000B1F1C07FE5D105E0022E03D9F61EE0D189
:104AE000C801DED5402129620120687070BD2DE922
:104AF000FC41044604F134060020604900904FF464
:104B00001650776A0A683D68B2FBF0F8B06A08216F
:104B100000F0B7F80ED02068026853070AD5026883
:104B200022F004020260B06A8140B960316A41F04B
:104B300001013162B06A25FA00F1CA070BD521687C
:104B40004A69110607D5012202FA00F0B860306AFE
:104B500040F002003062042100F092F808D0216891
:104B60000A68930704D5B860306A40F004003062E8
:104B7000102100F085F81BD021680A68130717D5AB
:104B8000B860206801684A0307D5006801030BD5A7
:104B9000716969B1204688470AE00168CA0503D4F3
:104BA000016821F008010160F16809B120468847D9
:104BB000B06A202100F065F83FD021680A68D3066A
:104BC0003BD5B8602068717805291CD1026822F0B5
:104BD0001602026000F059F8F068002804BF7069FE
:104BE000002801D000F05DF83F22B06A8240BA6030
:104BF0000021317001227270F169002939D02046FC
:104C0000BDE8FC41084701684A0307D50068010375
:104C10000FD4316989B1204688470EE00168CA0582
:104C200007D4016821F010010160002030700122DA
:104C30007270B16809B120468847306AC8B1306ADD
:104C4000C10710D50520707000F025F80098401CB1
:104C50008045009003D320680168CA07F6D400207D
:104C6000307001217170B16919B12046BDE8FC4175
:104C70000847BDE8F38100003F8010F09C0200204F
:104C8000B06A01FA00F0054270472068416921F0DE
:104C9000800141617047206801684908490001604E
:104CA00070472068016821F008010160704700002A
:104CB00030B5016808A401F0FF02103A1823B2FBD6
:104CC000F3F2890A8902A55CC565042A28BF091D7B
:104CD0008165084630BD000000061016000610165B
:104CE0002DE9F14FB2B09946924600230691CDE9E5
:104CF00000333C9A0F930DF14A0114914A7011E070
:104D0000329E57462C4617F8011B0698B0470028DC
:104D1000069000F026810F98401C641E0F90F2D17F
:104D20003296AA449AF80000252808D100210022D2
:104D300009910A920B910C920D910E920FE06A4626
:104D40004FF0FF31504602F03DFE050002D10F98B2
:104D500000F066BED4D50125E3E741F001011AF861
:104D6000010F2028F9D023280CD02B2804D02D287F
:104D700005D0302809D00BE041F00201EFE741F007
:104D80000401ECE741F00801E9E741F01001E6E732
:104D90002A280FD1D9F8002052F8040BC9F80020B6
:104DA0000028119003D54042119041F004010AF10E
:104DB000010A14E01192DFF8EC3B0AE011989842E6
:104DC00005DA00EB800402EB4402303A11920AF15A
:104DD000010A9AF80020A2F130000A28EED39AF8CE
:104DE00000002E2803D04FF0FF32109229E01AF86D
:104DF000010F2A2809D1D9F8000050F8042BC9F86E
:104E0000000010920AF1010A1BE02D280CBF0AF1E4
:104E1000010A002000221092DFF8882B0BE040B935
:104E2000109B934205DA03EB830504EB4504303C09
:104E300010940AF1010A9AF80040A4F130030A2BF9
:104E4000EDD3ADF848100FF660309AF8001002F07C
:104E5000C3FD08B11AF8010B8DF84A009DF84A000D
:104E6000682805D19AF8000068280CD1622106E074
:104E70006C2804BF9AF800006C2804D171218DF8C9
:104E80004A100AF1010A1FA808901AF801BBBBF1E9
:104E900025012DD01C3900F06181091F022940F243
:104EA0005D810E392AD0491F00F0B384093900F022
:104EB0005581891E00F04985491E00F0F584491E80
:104EC000022940F24B81091F00F0EE84491F00F0D7
:104ED000BA80491E00F09D84491E65D0C91E21D0AC
:104EE000891E00F09684C91E00F0938400F04CBD2A
:104EF00025238DF87C30012109912AE06C208DF862
:104F00004A00D9F8000050F8042BC9F80000002A24
:104F100043D11499487800283DD04FF0FF340FF664
:104F2000902012E09DF84A006C28EAD0D9F80000E1
:104F300050F8044BC9F800000794D4B91499487884
:104F400098B14FF0FF340FF6842002F051FD201A83
:104F500007D132981FAA04A900F065FD00287FF54B
:104F6000E1AE4FF0FF3000F05BBD0FF67C20079004
:104F7000EFE7109D002D04D5204602F059FD0446B0
:104F800007E02A46204602F06FFD002814BF041BEC
:104F90002C460A94DDE70FF65422329804A900F05B
:104FA000C8FD0028D5D5DCE7D9F8001051F8040B6E
:104FB000C9F8001020F00004002121F0FF351FABDC
:104FC000CDE904450793DDE9042308993C2413B98E
:104FD0000AB9109898B102F00F053035641EEEB290
:104FE0003A2EA8BF2735120942EA03721B090D5554
:104FF00008BF002A03D007980D19A842EBD308195F
:105000000790C4F13C0210980A92824209DABDF876
:105010004810821A4FF6EF7001400C92ADF848101C
:1050200097E7002895D59DF8480000F01400102857
:105030008FD1119B09990C985B1A1B1A9A1A002A96
:1050400087DD0C9285E71499487820B14FF0FF3442
:105050000FF69C1079E79DF84A00622862D0682814
:1050600019D06A2840D06C2806D071284DD07428F9
:105070002DD07A281ED064E0D9F8001051F8040B26
:10508000C9F8001020B94FF0FF340FF67C105CE730
:105090000F9901605DE7D9F8001051F8040BC9F8C9
:1050A000001020B94FF0FF340FF65C104DE70F9958
:1050B00001804EE7D9F8001051F8040BC9F8001030
:1050C0000028E5D14FF0FF340FF63C103DE7D9F84A
:1050D000001051F8040BC9F800100028D8D14FF087
:1050E000FF340FF6241030E7D9F8001051F8040B04
:1050F000C9F8001020B94FF0FF340FF60C1024E768
:105100000F9AD317C0E9002323E7D9F8001051F80C
:10511000040BC9F800100028F2D14FF0FF340FF64D
:10512000E80012E7D9F8001051F8040BC9F8001094
:1051300020B94FF0FF340FF6D00006E70F99017049
:1051400007E7D9F8001051F8040BC9F8001000283F
:105150009ED14FF0FF340FF6B000F6E6D9F80020EC
:10516000D21D22F00702C9F80020D2E9000108325E
:10517000C9F80020CDE90401C80F02D009982D21FB
:105180000AE0BDF84800810702D509982B2103E009
:10519000C00705D5099820211FAA1154401C099069
:1051A000DDE9042309991FA8CDE92E2308444BF01B
:1051B00020016129079015AC0BD01099002902D568
:1051C0000621109105E001BF4BF020016729012263
:1051D0001092DDE9042359004915491C10D11A0326
:1051E0000ED0ABF1610503211A2D0A9102D20FF600
:1051F000A43101E00FF6A031032202F061FCA8E621
:1052000059004915491C0AD11A0308D1ABF16105AF
:1052100003211A2D0A9116D30FF68431ECE7DDE94C
:105220000401CDE93001DDE9302323F00047B7F573
:10523000801F22F000060DD20022002F08BF002E92
:10524000029203D116E00FF65431D5E702AA02F01C
:1052500043FC0FE0DFF8EC0ADFF8EC1A00EB175024
:105260000290DDE930234FF0FF301940DFF8DC7A9F
:1052700010403943CDE904014BF0200061280DD1E5
:10528000079830210170821CBBF1610F07920CBF9F
:105290007821582141700998801C0990DDE90401AA
:1052A00020F0000231F0004308BF002A02D100269E
:1052B000002571E14BF02008B8F1610F40F0BE808D
:1052C0001098002847BF21210391401C0390039FA1
:1052D000DDE92E017F1C00220023DDE9044502F0F8
:1052E00033FC02998DF8542038BF85F00045091F22
:1052F000002F02910DF155065DDDDFF8541ACDE95E
:10530000302140F2FF732E932046294600220023CD
:1053100002F032FC4FD24800400D00F11C0215D0C3
:10532000002A13DD2E9B9A420ADBDDE9300121F0D1
:10533000004205F000400243DDE93001114611E072
:105340006FF31E5141EA025120460BE024F00000A9
:1053500035F0004108BF00280FBF29461C2229460E
:1053600002F022FC04460D4602F0BCFCFF1F002F99
:10537000804609DD02F0D4FC02460B462046294651
:1053800002F0E0FC04460D46F01D0721B8F1000FC5
:105390000CDD491E5EBF08F00F0200F8012D4FEA38
:1053A0002818F3D502E0002200F8012D491EFAD595
:1053B000C61D002FA8DC0DF15500361A0398864251
:1053C000D8BF304600280DF1550430D4B04206DA7B
:1053D0000DF155010A5C082AA8BF0F2100DA00214F
:1053E000024615AB134400E0401E13F80159521E4B
:1053F0008D42F9D00F2904D10DF155018B5C5B1C56
:105400008B54002A04D50299091D15AC401C029149
:10541000411E0CD46218ABF13A0613783033DDB27A
:105420003A2DA8BFF318491E02F80139F5D5109995
:10543000002940F1AF80421E1092ABE00299DFF8E4
:10544000142947F29750414391FBF2F2DDE92E45D2
:10545000029225F00045D2F1070204DD20462946DC
:1054600000F04CFC0BE052420020DFF8EC1800F09A
:1054700045FC02460B462046294602F0D5FC044670
:10548000B8F1660F109806BF029F0A3706273F182B
:10549000142FC8BF142730208DF854000D4600206B
:1054A000DFF8B818CDE92E010DF15506002F33DDD8
:1054B0002046294602F0DCFD01460A4606F10803B3
:1054C00004200A26B2FBF6F606EB860EA2EB4E028D
:1054D000303203F8012C0A22B6FBF2F202EB820E04
:1054E000A6EB4E063036401E03F8026DE9D1083FA8
:1054F000002F03F10806D9DD084602F0CDFD024673
:105500000B462046294602F01DFCDDE92E2302F061
:10551000D1FD04460D46CBE70DF15500361A0DF1CD
:10552000550404E00298401E761E0290641C207808
:105530003028F7D0B8F1660F02D10299491C04E077
:10554000B8F1650F0CBF01210021109808188642A0
:10555000B8BF701E00281DD4B04204DA215C342983
:10556000C8BF392100DC30210246631E9D1800E0CF
:10557000401E15F80169521E8E42F9D0392902D118
:10558000A15C491CA154002A04D50299491C1C465F
:10559000401C02910646029D02F018FA406A077804
:1055A000DDF8408030B2002802DC01260FF2F474EE
:1055B0004BF02000662808BF6D1C16D0672846D126
:1055C00028B210F1040F48DB404546DA9DF8480048
:1055D0006D1C010703D430B24045B8BF804628B2E5
:1055E000B8EB000848BF4FF000080FFA85FB07989A
:1055F0000A99BBF1000F00F3B2804A1C0A923023D3
:105600004354B8F1000F03DC9DF84800010704D5AE
:105610000A98411C0A9107990F5418EB0B0FB8BF59
:10562000C8F100052DB268420D90A84432B29045F1
:10563000B8BF4646079B0A9836B20B9632462146BB
:10564000184402F03DFAA8EB06000E90CBE0BBF147
:10565000610F17D14FF0700B19E030B2404504DAFA
:105660009DF848100A0758BF8046B8F1010848BFA6
:105670004FF00008BBF1670F14BF4FF0450B4FF020
:10568000650B04E0BBF1410F08BF4FF0500B0A98C7
:10569000411C0A91B8F1000F079914F8012B0A5424
:1056A00003DC9DF8480001071AD50A98411C0A91AD
:1056B000B8F1000F07990F5412DD761E30B2804505
:1056C00007980A9BB8BF464632B22146184402F0FA
:1056D000F7F90A9936B271180A91A8EB06000D90F5
:1056E00007980A9908442AB2002A80F800B003D427
:1056F0002B224270811C04E02D2141701546811C33
:105700006D4200202EAA0A2409E02B4693FBF4F5F3
:1057100005EB8506A3EB460302F8013B401C2DB2C6
:10572000002DF2DC012806DC4BF02002652A04BFC4
:10573000302201F8012B00282EAA08D1302001F8D0
:10574000010B06E0401E135C303301F8013B0028DA
:10575000F8DC079A0A981044091A0B9143E00844B0
:1057600031B22AB2914219DA32B2214602F0A8F9D6
:105770000A9936B27118ABEB0606B8F1000F0A9120
:105780000D9603DC9DF84800020704D5079847549E
:105790000B99491C0B91CDF8388024E0214602F08A
:1057A0008FF90A98761B5844B8F1000F0A9003DC71
:1057B0009DF848100A0703D5411C0A9107990F5418
:1057C00030B2804507980A9BB8BF464632B204EB18
:1057D0000B01184402F074F90A9836B230180A9096
:1057E000A8EB06000D909DF8480000F0140010286A
:1057F0007FF4AFAB099A0A990D988A180B99821811
:105800000E988A18821811988242BFF6A2AB821AAB
:1058100017E49DF84A00622808D068280ED06A284C
:1058200014D06C281FD0712810D01CE0D9F80010BB
:1058300051F8040BC9F80010C0B21AE0D9F80010F2
:1058400051F8040BC9F8001080B212E0D9F800201A
:10585000D21D22F00702C9F80020D2E90001083267
:10586000C9F8002006E0D9F8001051F8040BC9F877
:1058700000100021CDE904019DF8480001075AD528
:10588000DDE90423002B08BF002A54D04BF0200090
:10589000782850D109981FA930220A54401C431C73
:1058A000099301F800B046E09DF84A00622808D04C
:1058B00068280ED06A2814D06C281FD0712810D008
:1058C0001CE0D9F8001051F8040BC9F8001040B2E0
:1058D0001AE0D9F8001051F8040BC9F8001000B212
:1058E00012E0D9F80020D21D22F00702C9F80020EA
:1058F000D2E900010832C9F8002006E0D9F800100A
:1059000051F8040BC9F80010C117CDE904010029B2
:1059100002D509982D210AE0BDF84800810702D57B
:1059200009982B2103E0C00705D5099820211FAA5B
:105930001154401C09901FA809990144079104A81B
:10594000594600F056F9FFF704BB9DF84A006C2851
:105950000BD001210991D9F8000050F8041BC9F8B7
:1059600000008DF87C10FFF7F4BAD9F8000050F869
:10597000041BC9F8000015914FF0FF32109200216E
:10598000169115AAFFF709BB25210122BBF1000FD3
:105990008DF87C1009923FF4DCAA8DF87DB00221CD
:1059A000FFF7AABACBCCCC0C686A6C747A4C0000B6
:1059B0007072696E74665F733A2062616420256C50
:1059C0007320617267756D656E7400007072696E28
:1059D00074665F733A206261642025732061726788
:1059E000756D656E7400000000000000000000008E
:1059F0007072696E74665F733A20256E20646973F5
:105A0000616C6C6F776564007072696E74663A20C1
:105A100062616420256E20617267756D656E740029
:105A200033B0BDE8F08F2DE9FC410F4606469046A5
:105A30007A6B7869396ABC6A121AB869521A796A3B
:105A4000121AF869521A121A97F83800141B4107F3
:105A50000FD42020002C8DF800000ADD25460123FC
:105A60006A463946304600F07DF900285DD16D1E4A
:105A7000F5D17B6942463946304600F073F900287B
:105A800053D130208DF800003D6A002D09DD01233F
:105A90006A463946304600F065F9002845D16D1E4A
:105AA000F5D1BB69FA683946304600F05BF9002849
:105AB0003BD130208DF800007D6A002D08DD0123E8
:105AC0006A463946304600F04DF970BB6D1EF6D17E
:105AD000F868B969FB6942183946304600F042F966
