:020000040800F2
:1000000080120020C16900083D6900083F690008AE
:1000100041690008436900084569000800000000C4
:100020000000000000000000000000004769000818
:1000300049690008000000004B6900084D6900088C
:10004000E5690008E9690008ED690008F169000840
:10005000F5690008F9690008FD690008016A0008EF
:10006000056A0008096A00080D6A0008116A00089C
:10007000156A0008196A00081D6A0008216A00084C
:10008000256A0008296A00082D6A0008000000009F
:10009000000000000000000000000000316A0008BD
:1000A000356A0008396A00083D6A0008416A00089C
:1000B000456A0008496A00084D6A0008516A00084C
:1000C000556A0008596A00085D6A0008616A0008FC
:1000D000656A0008696A00086D6A0008000000008F
:1000E000716A0008756A0008796A0008000000005B
:1000F0000000000000000000000000007D6A000811
:1001000000000000816A0008856A0008896A00080A
:1001100000000000000000000000000000000000DF
:100120008D6A0008916A0008956A0008996A0008BB
:100130009D6A0008000000000000000000000000B0
:1001400000000000000000000000000051690008ED
:10015000A16A0008A56A0008A96A0008AD6A00083B
:10016000B16A0008B56A0008000000000000000045
:10017000000000000000000000000000000000007F
:1001800000000000B96A0008000000000000000044
:10019000BD6A000800F5E0700268914203D343682D
:1001A0001A44914202D380680028F5D1704718495B
:1001B000086880B94FF4805048604FF480324FF0A7
:1001C000FF30C86008610420124B8A604861C3F8A0
:1001D000BC01114808600120704701F1080313F0C9
:1001E000070F0EBF0023C3F1080303F007031944F0
:1001F000D21A8161C26042F001034B60091D4FF0C9
:10020000280C41F802C0024A1369C361704700001C
:10021000540E0020980B00206859883C2DE9F84FB7
:1002200084B00646AFF30080F52E1E4D80F00F829D
:100230000B2E31BF10260B36F608F6002868F4089E
:10024000E04010F0030F4AD0C04300F00100041951
:1002500005F1280000EBC408E700D8F808607068D2
:10026000C008C000B84218BF01F0E2F9D6F8089003
:10027000464508BF01F0DCF94E4508BF01F0D8F94A
:100280007068C008C000B84218BF01F0D1F9C84575
:100290000AD12868012101FA04F420EA04042C6040
:1002A00010E000BF980B00202869814508D3D9F8D9
:1002B0000C10B14204D1C8F80890C9F80C8001E0D4
:1002C00001F0B6F947F00300311D7060301DCA59C6
:1002D00042F00102C25106F1080800F010BFA968FF
:1002E000B14280F09F83002800F0A2804FF0010807
:1002F00008FA04F1490000FA04F4484201430C40B2
:1003000060420440641E200B00F01000C4406109EC
:1003100001F00801CC40A20802F00402D4406308B6
:1003200003F002030818DC401018C4F34007181843
:100330003818FC40241805F1280000EBC40AE70037
:10034000DAF80890D9F80400C008C000B84218BF15
:1003500001F06EF9D9F808B0D14508BF01F068F98D
:10036000D94508BF01F064F9D9F80400C008C000FD
:10037000B84218BF01F05CF9DA4506D1286808FADE
:1003800004F420EA04042C600DE029698B4508D3AD
:10039000DBF80C00484504D1CAF808B0CBF80CA033
:1003A00001E001F045F9BF1B46F0030009F104022A
:1003B000C9F8040047F00101915109EB06020192CE
:1003C000D751AC684FEAD40ABAF11F0F88BF01F0C9
:1003D0002FF934B3CDF800A005F128006E6900EBC9
:1003E000CA0AD346102C38BF01F022F929680098B8
:1003F00021FA00F2D30704D408FA00F00843286079
:1004000007E0DAF80800296988422CBF834601F02A
:100410000FF9CAF80860CBF80C60C6F808B0C6F847
:100420000CA0AF6009F108080198686100F067BE90
:100430006868002800F0178341420840401E010B05
:1004400001F01001C840420902F00802D0408308C0
:1004500003F00403D840440804F002045118E040BB
:100460005918C0F34007611805F598787918F840D5
:10047000401858F820104868C008C0008A46A0EB11
:10048000060B08E001464868C008C000801B5845BC
:100490003CBF83468A4608690028F3D14969002990
:1004A000F1D128698245C0F0CF80DAF80410C9087C
:1004B00006EB0B09C900494518BF01F0B9F80AEB72
:1004C00006008245019080F0BF80DAF80C40DAF82F
:1004D000187054450DD0DAF808002969884223D3F2
:1004E000C268524504BFA16851451DD1C460A060D7
:1004F0001CE00AF114010C6834B90AF110010C680F
:10050000A4B101E011460C6804F11402106800283F
:1005100002BF04F1100210680028F3D1286981425B
:1005200002D300220A6001E001F082F8002F34D0EB
:10053000DAF81C0008EB800001688A4509D10460E4
:1005400094B9DAF81C00696801228240914369601D
:1005500023E02869874205D33969514514BF7C617E
:100560003C6101E001F064F8BCB129698C4212D30E
:10057000A761DAF8100028B1884226BF20618461A3
:1005800001F056F8DAF8140038B12969884202D32C
:100590006061846101E001F04BF8BBF1100F0ED2F5
:1005A00049F003000AF10401CAF804000AF104004A
:1005B00051F8092042F0010240F809203EE046F0DF
:1005C00003010AF10402CAF804104BF00100905133
:1005D000019941F80BB0A8680090C4081F2C88BF8F
:1005E00001F026F8009828B305F1280000996F69FA
:1005F00000EBC408C146102938BF01F019F828687B
:1006000020FA04F1CA0705D4012101FA04F40443D5
:100610002C6007E0D8F80800296988422CBF814681
:1006200001F006F8C8F80870C9F80C70C7F808900F
:10063000C7F80C80C5F808B0019868611AF108087D
:1006400000F0F08100F05BBD00F0F2FFEAE116F18E
:10065000400F28BF4FF0FF3680F0E4810B36F608DC
:100660006B68F600002B00F0DD810027300AC6F130
:10067000000908BF002423D0B0F5803F28BF1F2405
:100680001ED2A0F58071090C01F008018840A0F588
:100690008052120C02F004029040A0F58044240C19
:1006A000C1F10E0104F00204891A091BA04001EBFC
:1006B000D031C81D26FA00F404F0010404EB410413
:1006C00005F5987858F8240030B31F2C0FBFB446B6
:1006D0004FEA540CCCF1190C06FA0CFCBE46494604
:1006E00001E04FEA4C0C4268D208D200921B8A42C9
:1006F00002D2110007460CD0426910304FEADC7973
:1007000050F82900002A1CBF824296460028E8D1F2
:1007100070468946A8BBB7BB012101FA04F4640006
:1007200060420443234000F07D81584203405B1E39
:10073000180B00F01000C340590901F00801CB402C
:100740009A0802F00402D3405C0804F0020408187E
:10075000E3401018C3F3400C2018604423FA0CF354
:100760001B1858F823000CE008464168C908C90066
:10077000891B49453CBF8946074601690029F3D1D9
:1007800040690028F1D1002F00F04C81A868801B3F
:10079000814580F0478129698F42FFF455AF786821
:1007A000C008C00006EB0901884218BF00F040FFF6
:1007B00007EB060B5F45BFF447AFFC68D7F818A0FE
:1007C000BC420CD0B8682969884223D3C268BA42B7
:1007D00004BFA168B9421DD1C460A0601CE007F14C
:1007E00014010C6834B907F110010C68A4B101E0E0
:1007F00011460C6804F114021068002802BF04F1CD
:10080000100210680028F3D12869814202D3002227
:100810000A6001E000F00CFFBAF1000F34D0F86973
:1008200008EB800001688F4208D10460A4B9F86920
:100830006968012282409143696025E02869824508
:1008400008D3DAF81010B94214BFCAF81440CAF835
:10085000104001E000F0ECFEB4B129698C4211D3E4
:10086000C4F818A0386928B1884226BF2061846185
:1008700000F0DEFE786938B12969884202D36061F0
:10088000846101E000F0D4FEB9F1100F0CD2B14444
:1008900049F00300391D7860381D51F8092042F0F5
:1008A000010240F80920B9E046F003013A1D7960E1
:1008B00049F0010090514FEAD9004BF809901F28E8
:1008C00022D805F1280101EBC004296821FA00F2C1
:1008D000D307A04605D4012202FA00F0084328609D
:1008E00006E0A068296988422CBF804600F0A0FE7F
:1008F000C4F808B007F10800C8F80CB040F806804A
:1009000007F10C018C5189E05FEA192008BF002132
:1009100023D0B0F5803F28BF1F211ED2A0F58072E2
:10092000120C02F008029040A0F58051090C01F071
:1009300004018840A0F580431B0CC2F10E0203F0B5
:100940000203521AD21A984002EBD032D01D29FA73
:1009500000F101F0010101EB420107F11403CBF8B2
:100960001C1000229A5107F1100308EB81009A51E4
:100970006A6822FA01F3DC0711D4012303FA01F1BA
:1009800011436960C0F800B0CBF8180007F1080106
:1009900007F10C0040F806B041F806B03EE00268EE
:1009A0001F291DBF4908C1F1190109FA01F1494682
:1009B00000E002465068C008C000484518D002F167
:1009C0001003C80F03EB8003490018680028F0D11A
:1009D0002869834220D3C3F800B007F10C01CBF89B
:1009E000182041F806B007F1080040F806B015E0FD
:1009F000296990688A4228BF88420DD3C0F80CB09C
:100A000007F10801C2F808B0885107F10C008251C3
:100A10000022CBF8182001E000F00AFE17F10808C8
:100A200040F06D83A868B0421DD3811B6A6910290C
:100A30000AD390196861A96041F0010343604150F5
:100A400046F0030656600BE00021A9606961131DA2
:100A500040F003015160111D1C5844F001040C507A
:100A600002F108084BE3E8688642C0F03883DFF8FB
:100A7000B89BD9F8000008B9FFF799FBD9F808101E
:100A800088192F30491E20EA01018E4280F03583FB
:100A900005F5D877B86838B13A6889188A4280F085
:100AA0002C838842C0F0298300F0E2FD00281CBF9F
:100AB000D0F8008010F1010F00F01F8339687A68C8
:100AC000414439608A4238BF7960AC6904BB296906
:100AD00009B1884200D2286100213861C7F814802A
:100AE000F9614FF0FF31D9F800206A62296205F1FF
:100AF00028020021D260926002F10804546114615E
:100B0000891C10321F29F5D9A8F1280201461DE0E1
:100B100005F5E0710A46814600E09268D2B110689E
:100B2000536803449945F8D1107B030712D4136826
:100B30009C420FD3D2F804C063449C420AD2C444FE
:100B4000C2F804C02146E86808EB00022846FFF717
:100B500044FBC1E22869814538BFC5F8109009EB14
:100B6000080000E08968002900F0BD810A6882421F
:100B7000F8D1087B020700F1B6810868C1F800903F
:100B80004A6842444A6009F1080111F0070F08BFA2
:100B9000CDF8049006D0C1F1080101F0070109EB7E
:100BA0000102019200F1080111F0070F04D0C1F118
:100BB000080101F00701084480460198A8EB0001F4
:100BC0008419A1EB060B274646F00306466047450D
:100BD00028BF00F02DFD98F80400C10758BF00F0B1
:100BE00027FDBBF1100F38BF00F022FDA86980453A
:100BF00008D1E9688B44C5F80CB0AF614BF0010037
:100C000078606CE1686980450AD1A9688B44C5F8B1
:100C100008B06F614BF00100786047F80BB05EE1FF
:100C2000D8F8040000F00301012940F0B880C008A2
:100C3000C000C1081F29039040D8D8F808200092AE
:100C4000D8F80C600291B04508BF00F0F1FC0098A4
:100C5000804508BF00F0ECFCD8F804000299C008F9
:100C6000C000B0EBC10F18BF00F0E2FC0299009A7F
:100C700005F1280000EBC100824208D011462A6924
:100C80009142C0F08780CA68424540F08380009955
:100C90008E4206D102982A68012383409A432A6033
:100CA0007AE0864205D029698E4273D3B068404508
:100CB00070D10098C6600099B1606DE0D8F8180056
:100CC0000090D8F80C6046450DD0D8F80800296986
:100CD000884223D3C268424504BFB16841451DD153
:100CE000C660B0601CE008F114010E6836B908F166
:100CF00010010E68A6B101E011460E6806F114025B
:100D00001068002802BF06F1100210680028F3D115
:100D10002869814202D300220A6001E000F088FCC9
:100D20000098002838D0D8F81C0005F5987101EB20
:100D300080000168884509D106609EB9D8F81C007A
:100D40006968012282409143696025E00098296921
:100D5000884205D30169414514BF4661066101E03F
:100D600000F066FCC6B129698E4213D30098B061C9
:100D7000D8F8100028B1884226BF3061866100F0A3
:100D800057FCD8F8140038B12969884202D3706141
:100D9000866101E000F04CFC039988448B44D8F84C
:100DA000041049084900C8F804104BF001007860AD
:100DB0004FEADB0647F80BB01F2E22D805F12800BA
:100DC00000EBC604A146BBF1100F38BF00F030FCA9
:100DD000286820FA06F1CA0705D4012101FA06F6AF
:100DE00006432E6006E0A068296988422CBF814630
:100DF00000F01EFCA760C9F80C70C7F80890FC60F2
:100E00006DE05FEA1B2008BF002123D0B0F5803FD2
:100E100028BF1F211ED2A0F58072120C02F008021A
:100E20009040A0F58051090C01F004018840A0F524
:100E300080431B0CC2F10E0203F00203521AD21AB5
:100E4000984002EBD032D01D2BFA00F101F00101E5
:100E500001EB4201F961002305F598727B6102EB19
:100E600081003B616A6822FA01F3DE0707D401239F
:100E700003FA01F1114369600760B8611DE002687F
:100E80001F291DBF4908C1F119010BFA01F159468B
:100E900000E002465068C008C000584510D002F17A
:100EA0001003C80F03EB8003490018680028F0D135
:100EB0002869834211D31F60BA61FF60BC600EE0F5
:100EC000296990688A4228BF884206D3C760946027
:100ED000B860FA600020B86101E000F0A9FB019859
:100EE00000F108080BE121462846FFF753F9016895
:100EF000406808440090A0F1270111F00700009815
:100F00000EBF0021C1F1080101F007010844A0F162
:100F10002F0B04F110018B4538BFA3460BF11802CB
:100F2000002102920191A8F1280249462846FFF7C4
:100F300054F90BF1080010F0070F18BF00F078FB10
:100F40001B20CBF8040005F5E07292E809500BF184
:100F5000080181E8095000210BF10800F961B8612E
:100F6000009A02980199C7F81090C7F814800723D7
:100F700000E0001D491C00F1080797424360F8D3C8
:100F80000129D8BF00F054FBA34500F0A580ABEBCE
:100F9000040B201D221D50F80B104908490042F88F
:100FA0000B104BF0010060604FEADB0944F80BB016
:100FB000B9F11F0F22D805F1280000EBC907B84688
:100FC000BBF1100F38BF00F033FB286820FA09F19D
:100FD000CA0705D4012101FA09F10843286006E097
:100FE000B868296988422CBF804600F021FBBC60AC
:100FF000C8F80C40C4F80880E7606DE05FEA1B2089
:1010000008BF002123D0B0F5803F28BF1F211ED28A
:10101000A0F58072120C02F008029040A0F58051F9
:10102000090C01F004018840A0F580431B0CC2F1BB
:101030000E0203F00203521AD21A984002EBD03289
:10104000D01D2BFA00F101F0010101EB420105F581
:101050009872002302EB8100E161636123616A6899
:1010600022FA01F3DF0707D4012303FA01F1114348
:1010700069600460A0611DE002681F291DBF490866
:10108000C1F119010BFA01F1594600E0024650681E
:10109000C008C000584510D002F11003C80F03EB80
:1010A0008003490018680028F0D12869834211D3D1
:1010B0001C60A261E460A4600EE0296990688A4225
:1010C00028BF884206D3C4609460A060E26000201C
:1010D000A06101E000F0ACFAE86886420DD2801B06
:1010E000A969E8608A19AA6140F00100506046F0E1
:1010F00003064E6001F1080801E04FF00008AFF36D
:101100000080404605B0BDE8F08F002800D1704750
:101110002DE9F047A0F10805AFF30080DFF80C657A
:1011200031698D42C0F07A82686800F00302012ABA
:1011300000F07482C2084FEAC209C20705EB090831
:1011400039D42C6810F0030F00F06A826042054425
:101150008D42A144C0F062827069854200F0DA805D
:10116000E408202C72D2D5F80CA0AF68554508BF12
:1011700000F05EFABD4208BF00F05AFA6868C00885
:10118000C000B0EBC40F18BF00F052FA06F12800FF
:1011900000EBC400874205D031698F4253D3FA680F
:1011A000AA4250D1BA4540D13068012101FA04F475
:1011B00020EA04043460454580F03082D8F80440C9
:1011C000E00740F12B82A10700F17C81B0698045E6
:1011D00040F0B380F168B5618944C6F80C9049F0DD
:1011E0000100686071698D4202D100207061B060B9
:1011F000F169494580F01482DFF82C24106808B9A1
:10120000FEF7D5FFB169002900F00A82F0682928AD
:1012100024BF3046FEF7BEFFF069F168884280F0D7
:10122000FF814FF0FF30F061FAE1824506D030696E
:10123000824508D3DAF80810A94204D1C7F80CA0F7
:10124000CAF80870B7E700F0F3F9B4E7EC68AF69E3
:10125000AC420BD0A868884222D3C168A94204BF1F
:10126000A268AA421CD1C460A0601BE005F1140270
:10127000146834B905F1100214689CB101E01A46F3
:10128000146804F114031868002802BF04F1100365
:1012900018680028F3D18A4202D30021116001E0CE
:1012A00000F0C6F9002F86D0E96906F5987000EBCA
:1012B00081000268954209D10460200011D1E869DB
:1012C0007168012282409143716074E730698742FE
:1012D00005D33969A94214BF7C613C6101E000F08B
:1012E000A7F9002C3FF467AF31698C42ABD3A761FB
:1012F000286928B1884226BF2061846100F098F9EE
:10130000686900283FF457AF316988429BD3606118
:10131000846150E798F8040000F0030003287FF48C
:101320004AAFC6F8089049F00101D8F80400400817
:101330004000C8F8040069600AE0706980450AD17D
:10134000B16875618944C6F8089049F00100686089
:1013500045F8099064E1E408E400A144E408202C85
:101360003AD2D8F80CA0D8F80870D04508BF00F0E1
:101370005FF9B84508BF00F05BF9D8F80400C00871
:10138000C000B0EBC40F18BF00F052F906F12800FE
:1013900000EBC400874207D031698F42C0F08580DE
:1013A000FA68424540F08180BA4507D13068012192
:1013B00001FA04F420EA0404346078E0824506D09F
:1013C0003069824571D3DAF8081041456DD1C7F80C
:1013D0000CA0CAF808706AE0D8F80C40D8F8187069
:1013E00044450DD0D8F808003169884223D3C2683B
:1013F000424504BFA16841451DD1C460A0601CE006
:1014000008F114010C6834B908F110010C68A4B19A
:1014100001E011460C6804F114021068002802BFB4
:1014200004F1100210680028F3D13069814202D320
:1014300000220A6001E000F0FBF8002F37D0D8F856
:101440001C1006F5987000EB8100026890450AD1E7
:101450000460200012D1D8F81C007168012282407B
:101460009143716023E03069874205D33969414572
:1014700014BF7C613C6101E000F0DAF8BCB1316975
:101480008C4212D3A761D8F8100028B1884226BF39
:101490002061846100F0CCF8D8F8140038B13169CB
:1014A000884202D36061846101E000F0C1F849F034
:1014B0000100686045F8099071698D420BD1C6F84A
:1014C0000890ADE064086400C8F8044049F00100E9
:1014D000686045F809904FEAD907202F22D206F11B
:1014E000280000EBC704A046B9F1100F38BF00F088
:1014F0009FF8306820FA07F1CA0705D4012101FAE4
:1015000007F70743376006E0A068316988422CBFBF
:10151000804600F08DF8A560C8F80C50C5F808802A
:10152000EC607DE05FEA192008BF002123D0B0F510
:10153000803F28BF1F211ED2A0F58072120C02F03E
:1015400008029040A0F58051090C01F00401884088
:10155000A0F580431B0CC2F10E0203F00203521AE5
:10156000D21A984002EBD032D01D29FA00F101F0D6
:10157000010101EB420106F59872002302EB8100A4
:10158000E9616B612B61726822FA01F3DC0707D411
:10159000012303FA01F1114371600560A8611DE0A8
:1015A00002681F291DBF4908C1F1190109FA01F19B
:1015B000494600E002465068C008C000484510D0C7
:1015C00002F11003C80F03EB8003490018680028DC
:1015D000F0D13069834211D31D60AA61ED60AD6026
:1015E0000EE0316990688A4228BF884206D3C56000
:1015F0009560A860EA600020A86101E000F018F89A
:10160000306A401E30620BD1D6F8C80100E0806815
:101610000028FCD14FF0FF30306201E000F008F804
:10162000AFF30080BDE8F087540E0020980B002037
:10163000012000F033B830B4002513E050F8042B3B
:10164000D30744BFA9F101039A18091F042942F8DE
:10165000045BFAD213468C0744BF15809B1CC90754
:1016600048BF1D7050F8041B0029E7D130BC7047FB
:101670000749086808B1002070470648C008C00044
:1016800008600549C908C900091A0160704700BF10
:10169000780E0020871200208014002080B5AFF360
:1016A0000080024A11001820ABBEFBE726000200B2
:1016B0002DE9F14FB2B09946924600230691CDE94B
:1016C00000333C9A0F930DF14A0114914A7011E0D6
:1016D000329E57462C4617F8011B0698B047002843
:1016E000069000F026810F98401C641E0F90F2D1E6
:1016F0003296AA449AF80000252808D10021002239
:1017000009910A920B910C920D910E920FE06A468C
:101710004FF0FF31504601F071F8050002D10F98EB
:1017200000F066BED4D50125E3E741F001011AF8C7
:10173000010F2028F9D023280CD02B2804D02D28E5
:1017400005D0302809D00BE041F00201EFE741F06D
:101750000401ECE741F00801E9E741F01001E6E798
:101760002A280FD1D9F8002052F8040BC9F800201C
:101770000028119003D54042119041F004010AF174
:10178000010A14E01192DFF8EC3B0AE0119898424C
:1017900005DA00EB800402EB4402303A11920AF1C0
:1017A000010A9AF80020A2F130000A28EED39AF834
:1017B00000002E2803D04FF0FF32109229E01AF8D3
:1017C000010F2A2809D1D9F8000050F8042BC9F8D4
:1017D000000010920AF1010A1BE02D280CBF0AF14B
:1017E000010A002000221092DFF8882B0BE040B99C
:1017F000109B934205DA03EB830504EB4504303C70
:1018000010940AF1010A9AF80040A4F130030A2B5F
:10181000EDD3ADF848100FF660309AF8001000F0E4
:10182000F7FF08B11AF8010B8DF84A009DF84A003D
:10183000682805D19AF8000068280CD1622106E0DA
:101840006C2804BF9AF800006C2804D171218DF82F
:101850004A100AF1010A1FA808901AF801BBBBF14F
:1018600025012DD01C3900F06181091F022940F2A9
:101870005D810E392AD0491F00F0B384093900F088
:101880005581891E00F04985491E00F0F584491EE6
:10189000022940F24B81091F00F0EE84491F00F03D
:1018A000BA80491E00F09D84491E65D0C91E21D012
:1018B000891E00F09684C91E00F0938400F04CBD90
:1018C00025238DF87C30012109912AE06C208DF8C8
:1018D0004A00D9F8000050F8042BC9F80000002A8B
:1018E00043D11499487800283DD04FF0FF340FF6CB
:1018F000902012E09DF84A006C28EAD0D9F8000048
:1019000050F8044BC9F800000794D4B914994878EA
:1019100098B14FF0FF340FF6842000F085FF201AB5
:1019200007D132981FAA04A900F065FD00287FF5B1
:10193000E1AE4FF0FF3000F05BBD0FF67C2007906A
:10194000EFE7109D002D04D5204600F08DFF0446E2
:1019500007E02A46204600F0A3FF002814BF041B1E
:101960002C460A94DDE70FF65422329804A900F0C1
:10197000C8FD0028D5D5DCE7D9F8001051F8040BD4
:10198000C9F8001020F00004002121F0FF351FAB42
:10199000CDE904450793DDE9042308993C2413B9F4
:1019A0000AB9109898B102F00F053035641EEEB2F6
:1019B0003A2EA8BF2735120942EA03721B090D55BA
:1019C00008BF002A03D007980D19A842EBD30819C5
:1019D0000790C4F13C0210980A92824209DABDF8DD
:1019E0004810821A4FF6EF7001400C92ADF8481083
:1019F00097E7002895D59DF8480000F014001028BE
:101A00008FD1119B09990C985B1A1B1A9A1A002AFC
:101A100087DD0C9285E71499487820B14FF0FF34A8
:101A20000FF69C1079E79DF84A00622862D068287A
:101A300019D06A2840D06C2806D071284DD074285F
:101A40002DD07A281ED064E0D9F8001051F8040B8C
:101A5000C9F8001020B94FF0FF340FF67C105CE796
:101A60000F9901605DE7D9F8001051F8040BC9F82F
:101A7000001020B94FF0FF340FF65C104DE70F99BE
:101A800001804EE7D9F8001051F8040BC9F8001096
:101A90000028E5D14FF0FF340FF63C103DE7D9F8B0
:101AA000001051F8040BC9F800100028D8D14FF0ED
:101AB000FF340FF6241030E7D9F8001051F8040B6A
:101AC000C9F8001020B94FF0FF340FF60C1024E7CE
:101AD0000F9AD317C0E9002323E7D9F8001051F873
:101AE000040BC9F800100028F2D14FF0FF340FF6B4
:101AF000E80012E7D9F8001051F8040BC9F80010FB
:101B000020B94FF0FF340FF6D00006E70F990170AF
:101B100007E7D9F8001051F8040BC9F800100028A5
:101B20009ED14FF0FF340FF6B000F6E6D9F8002052
:101B3000D21D22F00702C9F80020D2E900010832C4
:101B4000C9F80020CDE90401C80F02D009982D2161
:101B50000AE0BDF84800810702D509982B2103E06F
:101B6000C00705D5099820211FAA1154401C0990CF
:101B7000DDE9042309991FA8CDE92E2308444BF081
:101B800020016129079015AC0BD01099002902D5CE
:101B90000621109105E001BF4BF0200167290122C9
:101BA0001092DDE9042359004915491C10D11A038C
:101BB0000ED0ABF1610503211A2D0A9102D20FF666
:101BC000A43101E00FF6A031032200F095FEA8E653
:101BD00059004915491C0AD11A0308D1ABF1610516
:101BE00003211A2D0A9116D30FF68431ECE7DDE9B3
:101BF0000401CDE93001DDE9302323F00047B7F5DA
:101C0000801F22F000060DD20022002F08BF002EF8
:101C1000029203D116E00FF65431D5E702AA00F084
:101C200077FE0FE0DFF8EC0ADFF8EC1A00EB175054
:101C30000290DDE930234FF0FF301940DFF8DC7A05
:101C400010403943CDE904014BF0200061280DD14B
:101C5000079830210170821CBBF1610F07920CBF05
:101C60007821582141700998801C0990DDE9040110
:101C700020F0000231F0004308BF002A02D1002604
:101C8000002571E14BF02008B8F1610F40F0BE80F3
:101C90001098002847BF21210391401C0390039F07
:101CA000DDE92E017F1C00220023DDE9044500F060
:101CB00067FE02998DF8542038BF85F00045091F52
:101CC000002F02910DF155065DDDDFF8541ACDE9C4
:101CD000302140F2FF732E93204629460022002334
:101CE00000F066FE4FD24800400D00F11C0215D0F6
:101CF000002A13DD2E9B9A420ADBDDE9300121F038
:101D0000004205F000400243DDE93001114611E0D8
:101D10006FF31E5141EA025120460BE024F000000F
:101D200035F0004108BF00280FBF29461C22294674
:101D300000F056FE04460D4600F0F0FEFF1F002F97
:101D4000804609DD00F008FF02460B462046294682
:101D500000F014FF04460D46F01D0721B8F1000FF6
:101D60000CDD491E5EBF08F00F0200F8012D4FEA9E
:101D70002818F3D502E0002200F8012D491EFAD5FB
:101D8000C61D002FA8DC0DF15500361A03988642B7
:101D9000D8BF304600280DF1550430D4B04206DAE1
:101DA0000DF155010A5C082AA8BF0F2100DA0021B5
:101DB000024615AB134400E0401E13F80159521EB1
:101DC0008D42F9D00F2904D10DF155018B5C5B1CBC
:101DD0008B54002A04D50299091D15AC401C0291B0
:101DE000411E0CD46218ABF13A0613783033DDB2E1
:101DF0003A2DA8BFF318491E02F80139F5D51099FC
:101E0000002940F1AF80421E1092ABE00299DFF84A
:101E1000142947F29750414391FBF2F2DDE92E4538
:101E2000029225F00045D2F1070204DD2046294642
:101E300000F04CFC0BE052420020DFF8EC1800F000
:101E400045FC02460B462046294600F009FF0446A1
:101E5000B8F1660F109806BF029F0A3706273F1891
:101E6000142FC8BF142730208DF854000D460020D1
:101E7000DFF8B818CDE92E010DF15506002F33DD3E
:101E80002046294601F010F801460A4606F10803EB
:101E900004200A26B2FBF6F606EB860EA2EB4E02F3
:101EA000303203F8012C0A22B6FBF2F202EB820E6A
:101EB000A6EB4E063036401E03F8026DE9D1083F0E
:101EC000002F03F10806D9DD084601F001F80246AB
:101ED0000B462046294600F051FEDDE92E2301F095
:101EE00005F804460D46CBE70DF15500361A0DF105
:101EF000550404E00298401E761E0290641C20786F
:101F00003028F7D0B8F1660F02D10299491C04E0DD
:101F1000B8F1650F0CBF0121002110980818864206
:101F2000B8BF701E00281DD4B04204DA215C3429E9
:101F3000C8BF392100DC30210246631E9D1800E035
:101F4000401E15F80169521E8E42F9D0392902D17E
:101F5000A15C491CA154002A04D50299491C1C46C5
:101F6000401C02910646029D00F04CFC406A077836
:101F7000DDF8408030B2002802DC01260FF2F47454
:101F80004BF02000662808BF6D1C16D0672846D18C
:101F900028B210F1040F48DB404546DA9DF84800AE
:101FA0006D1C010703D430B24045B8BF804628B24B
:101FB000B8EB000848BF4FF000080FFA85FB079800
:101FC0000A99BBF1000F00F3B2804A1C0A92302339
:101FD0004354B8F1000F03DC9DF84800010704D515
:101FE0000A98411C0A9107990F5418EB0B0FB8BFC0
:101FF000C8F100052DB268420D90A84432B2904558
:10200000B8BF4646079B0A9836B20B963246214621
:10201000184400F071FCA8EB06000E90CBE0BBF179
:10202000610F17D14FF0700B19E030B2404504DA60
:102030009DF848100A0758BF8046B8F1010848BF0C
:102040004FF00008BBF1670F14BF4FF0450B4FF086
:10205000650B04E0BBF1410F08BF4FF0500B0A982D
:10206000411C0A91B8F1000F079914F8012B0A548A
:1020700003DC9DF8480001071AD50A98411C0A9113
:10208000B8F1000F07990F5412DD761E30B280456B
:1020900007980A9BB8BF464632B22146184400F062
:1020A0002BFC0A9936B271180A91A8EB06000D9024
:1020B00007980A9908442AB2002A80F800B003D48D
:1020C0002B224270811C04E02D2141701546811C99
:1020D0006D4200202EAA0A2409E02B4693FBF4F55A
:1020E00005EB8506A3EB460302F8013B401C2DB22D
:1020F000002DF2DC012806DC4BF02002652A04BF2B
:10210000302201F8012B00282EAA08D1302001F836
:10211000010B06E0401E135C303301F8013B002840
:10212000F8DC079A0A981044091A0B9143E0084416
:1021300031B22AB2914219DA32B2214600F0DCFB08
:102140000A9936B27118ABEB0606B8F1000F0A9186
:102150000D9603DC9DF84800020704D50798475404
:102160000B99491C0B91CDF8388024E0214600F0F2
:10217000C3FB0A98761B5844B8F1000F0A9003DCA1
:102180009DF848100A0703D5411C0A9107990F547E
:1021900030B2804507980A9BB8BF464632B204EB7E
:1021A0000B01184400F0A8FB0A9836B230180A90C8
:1021B000A8EB06000D909DF8480000F014001028D0
:1021C0007FF4AFAB099A0A990D988A180B99821877
:1021D0000E988A18821811988242BFF6A2AB821A12
:1021E00017E49DF84A00622808D068280ED06A28B3
:1021F00014D06C281FD0712810D01CE0D9F8001022
:1022000051F8040BC9F80010C0B21AE0D9F8001058
:1022100051F8040BC9F8001080B212E0D9F8002080
:10222000D21D22F00702C9F80020D2E900010832CD
:10223000C9F8002006E0D9F8001051F8040BC9F8DD
:1022400000100021CDE904019DF8480001075AD58E
:10225000DDE90423002B08BF002A54D04BF02000F6
:10226000782850D109981FA930220A54401C431CD9
:10227000099301F800B046E09DF84A00622808D0B2
:1022800068280ED06A2814D06C281FD0712810D06E
:102290001CE0D9F8001051F8040BC9F8001040B246
:1022A0001AE0D9F8001051F8040BC9F8001000B278
:1022B00012E0D9F80020D21D22F00702C9F8002050
:1022C000D2E900010832C9F8002006E0D9F8001070
:1022D00051F8040BC9F80010C117CDE90401002919
:1022E00002D509982D210AE0BDF84800810702D5E2
:1022F00009982B2103E0C00705D5099820211FAAC2
:102300001154401C09901FA809990144079104A881
:10231000594600F056F9FFF704BB9DF84A006C28B7
:102320000BD001210991D9F8000050F8041BC9F81D
:1023300000008DF87C10FFF7F4BAD9F8000050F8CF
:10234000041BC9F8000015914FF0FF3210920021D4
:10235000169115AAFFF709BB25210122BBF1000F39
:102360008DF87C1009923FF4DCAA8DF87DB0022133
:10237000FFF7AABACBCCCC0C686A6C747A4C00001C
:102380007072696E74665F733A2062616420256CB6
:102390007320617267756D656E7400007072696E8E
:1023A00074665F733A2062616420257320617267EE
:1023B000756D656E740000000000000000000000F4
:1023C0007072696E74665F733A20256E206469735B
:1023D000616C6C6F776564007072696E74663A2028
:1023E00062616420256E20617267756D656E740090
:1023F00033B0BDE8F08F2DE9FC410F46064690460C
:102400007A6B7869396ABC6A121AB869521A796AA1
:10241000121AF869521A121A97F83800141B410759
:102420000FD42020002C8DF800000ADD2546012362
:102430006A463946304600F07DF900285DD16D1EB0
:10244000F5D17B6942463946304600F073F90028E1
:1024500053D130208DF800003D6A002D09DD0123A5
:102460006A463946304600F065F9002845D16D1EB0
:10247000F5D1BB69FA683946304600F05BF90028AF
:102480003BD130208DF800007D6A002D08DD01234E
:102490006A463946304600F04DF970BB6D1EF6D1E4
:1024A000F868B969FB6942183946304600F042F9CC
:1024B00018BB30208DF80000BD6A002D08DD012317
:1024C0006A463946304600F035F9B0B96D1EF6D18E
:1024D00097F8380041070DD52020002C8DF800001A
:1024E00008DD01236A463946304600F023F920B959
:1024F000641EF6D10020BDE8F6814FF0FF30BDE844
:10250000F6812DE9F8470D46A3B02F6B002F8246C8
:10251000904648BF6FF0004700F0B9FD696B401866
:1025200001AA0021C2E90011812828BF4FF0FF3025
:1025300044D289461EE0A74230DB68692018812812
:102540000BD30021696303AA29465046FFF753FFC6
:102550005FEA000922D40020686103AB6E6922465D
:102560006946981900F0C8F9A6196E6158F8040B6D
:10257000A0B13F1B002F11DDD8F8001001AA68465A
:1025800000F03EF90446002C05D4D8F800000028DD
:10259000D1D1641ECFD54FF0FF390EE0B9F1000F55
:1025A000504604D103AA2946FFF725FF8146B9F119
:1025B000000F02D1002068616863484624B0BDE87E
:1025C000F0872DE9FC4307466F293E6908BF0824C0
:1025D00005D041F02000782814BF0A2410243C259F
:1025E000D7E90023642918BF69299046994605D187
:1025F000002B03D5D8F1000869EB4909B9F1000FA8
:1026000008BFB8F1000F0CD1386B50B9082C39D184
:1026100097F83800010735D530203B2586F83B0078
:1026200030E08DF80010404649462246E31700F09E
:1026300033FD3032D0B26D1E3A28019504DB9DF88F
:102640000000A0F151018A187255404649462246C1
:10265000E31700F021FD80465FEA010908BFB8F1E9
:10266000000F03D0F86871198842DCD3082C09D117
:1026700097F83800010705D5705D302802D06D1E2F
:1026800030207055C5F13C02BA617119F960386BA0
:10269000824208DA821A3A624FF6EF70398F0140AF
:1026A0003987BDE8F38300280ED597F8380000F08D
:1026B0001400102808D17B6B7969386A5B1A1B1AE1
:1026C0009A1A002AC8BF3A62BDE8F3832DE9D043C5
:1026D00006460F4614464FF00008DFF8549012E00B
:1026E000E00707D542464B463046394600F0FEFB30
:1026F00006460F464046494642464B4600F0F6FB2A
:10270000641080468946002CEAD130463946BDE83F
:10271000D083000002FCFFFFFFFF0F800000E03FBE
:102720000000F07FA08601000000F03F84D79741B1
:1027300000002440F8B505460E4617461C4600200A
:102740005CB117F8011BB068A847B06030B1F06AFF
:10275000401CF0620020641EF3D1F2BD4FF0FF3048
:10276000F2BD00006E616E004E414E00696E660063
:10277000494E46003000B1F5807F02D34FF0FF3064
:1027800070470170012070470078401E8041C043AF
:10279000C00F70471C48704770B45368D41801E0EC
:1027A0005B1C491E042B08DA00291FBF057804F8BA
:1027B000015B10F8016B002EF2D1536070BC7047C2
:1027C00038B514461D4661B1FFF7E6FF61686A6BD4
:1027D000204690476FF00102811A02D0491E01D0B5
:1027E00001E003E005E00021616032BD6FF001000F
:1027F00032BD4FF0FF3032BDDA6B1047024BDFE7DE
:10280000014BF9E701487047640200202C020020C8
:10281000C9B202788A421AB11CBF10F8012FF9E739
:1028200018BF002070472E0080B500B906A00549EA
:102830000B681BB122220021984701E0FEF7F8FE49
:10284000222002BD740E0020636F6E737472616982
:102850006E742068616E646C65723A2062616420F7
:102860006D6573736167650000F10103810704D032
:1028700010F8011B820781B1FAD10268A2F101317F
:10288000914311F0803104BF50F8042FF6E709BAE4
:10289000B1FA81F100EBD100401CC01A704743002F
:1028A000C9B2830706D0521E22D310F8013B9942C9
:1028B000F7D11FE0083A13D302F1040241EA0121E3
:1028C00041EA014150F8043B121F21BF4B40A3F1E4
:1028D000013C2CEA030C1CF0803FF3D0C9B2001F6E
:1028E000083210F8013B521E28BF91EA030FF8D8B6
:1028F00018BF0120401E70474AB1000011F8013B8B
:10290000521E00F8013B1CBF11F8013BF8E770476D
:1029100010B5144600F002F8226010BDC1F30A534E
:1029200043B14A0012F5001F28D2A3F2FE32A1EBF8
:102930000251704750EA410C20D001F0004C31EABE
:102940000C01B1FA81F204BFB0FA80F3D2180B3A4D
:10295000B2F120032CBF00FA03F1914041EA0C01CF
:102960003EBFC2F1200C20FA0CF3194390405242B2
:1029700040F2FD33D21A01EB035170470022704739
:102980004FF4001C1CEB410F94BF1CEB430F09E0FC
:1029900041EA030C50EA4C0C52EA0C0C03D2994267
:1029A00008BF9042704714BF8B42824270470000BC
:1029B0004FF4001C1CEB410F94BF1CEB430F09E0CC
:1029C00041EA030C50EA4C0C52EA0C0C03D28B4245
:1029D00008BF8242704714BF99429042704700007E
:1029E000124254D440F2FF7C1CEA11530FD06345CD
:1029F00031D09B1863453CBF01EB0251704701F099
:102A0000004141EA0C510020AFF30080704750EACA
:102A1000410320D001F0004C91EA0C011CD0B1FA26
:102A200081F30B3B9A420DD9D21A994051EA0C011D
:102A3000C3F1200C20FA0CFC61449840531C40F276
:102A4000FF7CD7E7914041EA0C01C2F1200C20FA4B
:102A50000CF3194390407047B0FA80F31533202BE4
:102A6000E0D3202AEED3203A203B9A4209D9D21A49
:102A700000FA03F141EA0C010020531C40F2FF7CF4
:102A8000B8E700FA02F141EA0C0100207047524217
:102A900040F2FF7C1CEA11530DD06345DBD0B2EB52
:102AA000030C3CBFA1EB025170470CF1010221EA7B
:102AB000035141F4801150EA410CCCD001F0004C9C
:102AC000352A27DC30B481EA0C01B2F1200309DA9F
:102AD000C2F12003044601FA03F5D0402843D14057
:102AE0009C400CE0C3F12002450020FA03F418BF1B
:102AF00044F0010421FA03F091400C43002174F1E9
:102B0000004550F1000051EB0C01244230BC7FF431
:102B10007BAF70476146002076E70000C1F30A539F
:102B200040F2FE329B1A14DDD3F120034FEAE1722A
:102B300008DDC90241EA505141F00040D8408018F8
:102B40005040704703F2E13010B1D24382F00040B0
:102B50007047002070470000C11768B14840401A14
:102B6000B0FA80F29040D21CC907C2F5846241EAF3
:102B7000025202EBD02140057047000070B44FF0C4
:102B8000004591EA030F40F10B836B40841A71EB0F
:102B9000030603D2001BB141121973414FF4001C0C
:102BA0001CEB410F34BF7CEB430442E00C0DA4EB63
:102BB0001356352E4FDC45EAC323DB0A45EAC12113
:102BC000C912B6F120050DDD63FA05F6EB4086EA81
:102BD0000305124218BF45F00105C01851F100016C
:102BE0000CD213E062FA06F5F2405540F3415A4028
:102BF000B340F3405A408018594107D349085FEA6F
:102C000030005FEA350528BF45F0010501F5801168
:102C1000420875F1004250F1000041EB04514E00B2
:102C200016F5001F70BC38BF70470020090D09055C
:102C300070471CEB410F10D252EA43060BD0BCEB9D
:102C4000410F05D80C0DAB43661E342EB6DD02E0F5
:102C5000AB438018594170BC704770BC704700008E
:102C6000F0B540F2FF7581EA030C0CF0004C15EA58
:102C700011541DBF15EA1357AC42AF42E5E0BC4109
:102C8000C1F31301C3F31303801A994143F4801372
:102C900004D2641E4000494180185941C90241EAEA
:102CA0005051B1FBF3F603FB1611A2FB0675D7EBEF
:102CB000C020A94102D2761E80185941C90241EABA
:102CC0005051B1FBF3FE03FB1E11A2FB0E75D7EBB7
:102CD000C020A94103D2AEF1010E801859418902EA
:102CE00041EA9051760546EA8E2EB1FBF3F603FBDE
:102CF0001611A2FB0675D7EB8020A94102D2761EE1
:102D000080185941C90241EA50514EEA060EB1FB02
:102D1000F3F603FB1611A2FB0675D7EBC020A94101
:102D200002D2761E80185941C90241EA5051B1FBC6
:102D3000F3F703FB1711A2FB0735D3EBC020A94122
:102D400067F100070CBF004247F0010766F3D52783
:102D50004FEA1E31B80814F5806412DDBD0775F125
:102D6000004250EB0E5051EB045111F5801F5CBF37
:102D700041EA0C01F0BD4CF07F6141F0E0410020E0
:102D8000F0BDBD076D0840EA0E5041F48011D4F14A
:102D90000104B4F120060ADAC4F120060200E04082
:102DA00001FA06F3E1401843B24015430EE0342C1B
:102DB00013DCC6F1200445EA40056D0820FA06F24E
:102DC000154321FA06F0A1400D43002175F10042A0
:102DD00050F1000051EB0C01F0BD00205FEA0C0146
:102DE000F0BDCFB992185B41B3FA83F704BFB2FAD2
:102DF00082F6BF190B3FB7F120062FBF02FA06F388
:102E0000BB40C7F1200622FA06F638BF3343BA406A
:102E10001CB1E419641E33E77F4231F00041B1FA7E
:102E200081F404BFB0FA80F6A4190B3CB4F120067B
:102E30002FBF00FA06F1A140C4F1200620FA06F6E1
:102E400038BF3143A0403C1B1AE7AC421ABF05EA29
:102E50001357AF4212E050EA41061CBF52EA430644
:102E6000BFE750EA4107304661461CBF41EA0551C1
:102E7000F0BD52EA430C08BFC143F0BD00204FF43F
:102E8000001616EB410F98BF16EB430F08BF16EB69
:102E9000410F24BFC14305E016EB430F0CBF614651
:102EA0004CEA0551F0BD0000400D491840EA812070
:102EB0000CD2490DA1F58061491C40F0004005DBB2
:102EC000D1F11F0154BFC840C017704700207047A0
:102ED000014648B1B0FA80F18840C91CC1F584614F
:102EE000090501EBD021400570470000B0B581EA2B
:102EF000030C0CF0004C40F2FF7515EA11541DBF95
:102F000015EA1357AC42AF4239E0E41923EA4553BE
:102F100043F48013C90241F0004141EA505EC70208
:102F20001100A7FB020200284FF00000EEFB012079
:102F30004FF00001E3FB072118BF42F001024018E7
:102F400000214941E3FB0E01A4F580640F0302D286
:102F500052004041494154F101046CDD470872F1CF
:102F6000004250F1000051EB0451A1F580115CBF0B
:102F700041EA0C01B0BD4CEA05510020B0BD05EAA4
:102F80001357AC4214BFAF4241E050EA410E1CBFA0
:102F900052EA430E02E061460020B0BD24423C44A8
:102FA0001BD15FEA070EF6D0090302BF01460020DD
:102FB000AEF1140EB1FA81F7AEEB070401FA07FE89
:102FC0000C37C7F1200100FA07F7C8404EEA000E9F
:102FD00023EA455343F48013A2E733F00043B3FAE6
:102FE00083F704BFB2FA82FE77440B3FE41BB7F1CC
:102FF000200E2FBF02FA0EF3BB40C7F1200E22FABB
:103000000EFE38BF43EA0E03BA40641C82E750EA62
:10301000410E14BF52EA430E6FF000014FF4001747
:1030200017EB430F8ABF194617EB410FB5E74CEA80
:1030300005510020B0BDD4F10104B4F120070FDA2E
:10304000C4F12007520828BF42F0010210FA07F528
:1030500001FA07F7E1BF2A43E0403843E1400FE0BF
:10306000352C98DCC7F1200452EA400220FA07F21E
:1030700018BF42F0010231FA07F0A1400A430021D3
:1030800072F1004250F1000051EB0C01B0BD80B56F
:10309000FFF780FB006C02BDD3BBD9B1B2F5803F16
:1030A0005BD2022A1ED98C46B1FBF2F102FB11C39E
:1030B0001B0443EA1043B3FBF2FC02FB1C3380B257
:1030C00040EA0343B3FBF2F002FB103240EA0C404B
:1030D00000237047022A05D98446B0FBF2F002FBB8
:1030E00010C270474AB105D100F0010249085FEAF9
:1030F0003000704700220023704700F007B90B0032
:103100000200002100207047F7D3002200237047FF
:10311000904271EB030CF2D370B5B1FA81F4B3FABB
:1031200083F52C1BA340C4F1200532FA05F6334386
:10313000A2405FF00046E64002E05B085FEA320230
:10314000841A71EB030524BF204629467641F4D347
:1031500002000B003000002170BD70B5B1FA81F49F
:10316000B2FA82F5C4F120046419B4F12006DAD36E
:10317000B2405FF00044F440002502E052085FEAEC
:103180003303C61A71EB020E24BF30467146644108
:103190006D41F3D302000B002000290070BD000038
:1031A000841A71EB030604D26E40001BB141121960
:1031B00073414FF4001C1CEB410F34BF7CEB430602
:1031C00083E00C0DA4EB1356362E00F37C80012E09
:1031D00045EAC32341DC43EA525312BFD2029202B2
:1031E0005B08240545EAC12141EA5051D2EBC020D9
:1031F000994125D407D1B0FA80F610FA06F162D0D1
:103200000020203608E0B1FA81F6B140C6F1200274
:1032100020FA02F21143B0404FEAF474B4EB465482
:1032200034F001064FEA74040AD8D6F50016760D7C
:1032300004F00044F04061FA06F25040F14048408A
:10324000C00A40EA415021F0004128BF5FEA500522
:1032500050F1000044EBD12135E0DB0A45EAC12101
:10326000C90AB6F120050EDD42EA0242120CC5F190
:10327000200603FA06F6EB4042EA06056D42984145
:1032800061F100010DE062FA06F5F240554063FA83
:1032900006FC82EA0C02F3405A406D42904161EB19
:1032A000030111F4801F05D1641E620502D06D0078
:1032B0004041494121F48011430875F1004350F128
:1032C000000041EB045170BC70471CEB410F15D25C
:1032D00023F0004352EA43060BD04FEA4C0CBCEB00
:1032E000410F04D80C0D661E342EB7DDEBE7801AB3
:1032F000994150EA410608BF0021E4E708BF1CEBF2
:10330000430F28BF6FF00001DDE7000070470000A9
:103310000EB418B504460898012817D1A06B20F404
:103320008030A063E168DFF81C080140E160E168DB
:1033300021F44011E1600F98012803D1E06840F4C6
:103340008010E060204600F0E8FB0FE0E06840F00D
:103350004000E060204600F0E0FB0C990029A16BE2
:103360000CBF41F4803121F48031A1630699012919
:1033700007D1A16841F00601A160A16841F02001D8
:10338000A16012BC5DF810FB10B5022A58D1DFF81D
:10339000B827DFF8B83752189A4238BF4FF4705147
:1033A00050D3DFF8AC27DFF8AC3752189A4238BF59
:1033B0004FF4605146D3DFF8A027DFF8A03752184A
:1033C0009A4238BF4FF450513CD3DFF8B427DFF8AE
:1033D000B43752189A4238BF4FF4405132D3DFF815
:1033E000A827DFF8A83752189A4238BF4FF4305157
:1033F00028D3DFF89C27DFF89C3752189A4238BF51
:103400004FF420511ED3DFF89027DFF89037521881
:103410009A4215D3DFF88847DFF88827641894426A
:1034200038BF4FF400510DD3DFF87C27DFF87C372D
:10343000511899422CBF4FF4C0514FF4E05101E0B4
:103440004FF41051C26822F47052C260C268114336
:10345000C160002010BD816841F0010102E0816877
:103460004908490081600020704780B5C26822F099
:10347000C0420129C26005D1C16841F00051C1605C
:103480003220DAE219B9C16841F08041F7E7012042
:1034900002BD0EB42DE9F043054604460026002186
:1034A000002004EB8102491C0F29C2F80401F8D363
:1034B000DDF84490B9F1000F06D1A06B40F4001084
:1034C000A06300F054FB07E0206820F400102060A7
:1034D000A16B41F40021A16305F5606105F500676A
:1034E0000E603A683A600C98012805D1099A002AC2
:1034F00014BF0121002100E00321204600F096F8CE
:103500001021204600F076F800B10126204600F098
:1035100080F800B101260020386178612A46F86100
:103520004FF67F334FF0904C4FF0006E002503E0D4
:103530000D600D618B60401C0799884211D202EB2F
:10354000401101F51061D1F80080B8F1000FEFD5FE
:10355000002806BF02F51068C8F800E0C1F800C0F6
:10356000E7E7002003E00D600D618B60401C0799C8
:10357000884211D202EB401101F53061D1F8008090
:10358000B8F1000FEFD5002806BF02F53068C8F883
:1035900000E0C1F800C0E7E7386920F480703861C6
:1035A0000A98012808D1DFF8081639633A6B42F40B
:1035B000803242F003023A63A5616FF0804262619B
:1035C00000F0CEFADFF8EC050143A1610D9818B1C7
:1035D000A06940F00800A061B9F1010F05D1A06910
:1035E00040F0804040F00400A0613046BDE8F003A8
:1035F0005DF810FB890141F020010161DFF8B81589
:10360000491E04D002699306FAD4002070470320B3
:10361000704710210161DFF8A015491E04D002692E
:10362000D306FAD4002070470320704700F50060ED
:1036300002681143EFE100F50060806810F00600B9
:1036400006D0022818BF062801D1022070470F209B
:10365000704770B50C784E782546012304F00F04AE
:1036600000EB451203FA04F4012E00F50060DFF8C8
:103670004C350DD1C669A4B2344302F51062C46161
:103680001068040412D400F013F844EA85540AE0E8
:10369000C56945EA044502F53062C5611068040455
:1036A00004D400F005F8234303431360002070BDE9
:1036B00010688C68C978C4F30A0444EA81447047EE
:1036C000D06B097801F00F018B40704730B50B7853
:1036D0004D7800EB431200F500600124012D03F04A
:1036E0000F03C56B04FA03F30FD19BB225EA030362
:1036F000C36302F5106200F019F8A4B223EA0404CF
:10370000C4611168DFF8B8040CE025EA0345C5631D
:1037100002F5306200F00AF823EA0443C36111683D
:10372000DFF8A00401401160002030BDC3690978B2
:1037300001F00F018C407047F8B50B78DFF8886412
:10374000DFF8887400EB43154B78012B00F500641B
:1037500060D14B6905F51065002B2B6909D11F401D
:103760002F612E6946F400262E612B69DB0CDB04E9
:1037700022E0DB0CDB042B612B691F402F618B687F
:103780002F69D1F814C09C44ACF1010CBCFBF3F3DD
:1037900006EAC3463E432E612B694E69C6F3120604
:1037A00033432B61CB78012B07D12B6923F0C04326
:1037B0002B612B6943F000532B61012A03D1086967
:1037C000002852D050E02B6843F004432B60CE78A1
:1037D000012E0BD0486900285AD0606B097801226D
:1037E00001F00F018A401043606351E0A368DC05DB
:1037F00004D42B6843F000532B6003E02C6844F0A2
:1038000080542C6000920A784B69C9689BB200F022
:10381000A5F83DE005F530652869C00CC0042861B5
:10382000286907402F618B68486940B92869C3F34C
:10383000120303432B61286940F400200FE018189D
:10384000401EB0FBF3F080B22B6906EAC0461E436F
:103850002E612B698E687043C0F312001843012A51
:10386000286102D1C86800B16861C87801280BD10D
:10387000A068C10504D4286840F00050286003E027
:10388000296841F080512960286840F00440286090
:103890000020F2BD30B50B78DFF8305300EB431455
:1038A0004B78012B38D14B6904F51064002B236948
:1038B00009D11D402561256945F40025256123694D
:1038C000DB0CDB0414E0DB0CDB04236123691D400B
:1038D00025618B684D69AB4288BF2B464B612369DC
:1038E00043F40023236123694D69C5F312052B437B
:1038F000012A236101D1086928E0236843F00443C9
:1039000023604A6942B300F500600123426BFFF770
:10391000D8FE1A4342631FE004F530642069C00CEE
:10392000C004206123691D402561486908B1886889
:103930004861206940F40020206120698B68C3F34E
:1039400012031843012A206102D1C86800B16061E6
:10395000206840F004402060002030BDB8B5059CD0
:1039600064B9DB1C07E000EB023751F8045B07F594
:103970008057641C3D60B4EB930FF4D30020B2BDBC
:1039800010B5D21C002305E000F580545B1C2468B0
:1039900041F8044BB3EB920FF6D3084610BD0A78FA
:1039A000497800EB421001290CBF00F5106000F5CA
:1039B00030600168002904D41AB1016821F0804107
:1039C0000160026842F400120260002070470A7829
:1039D00000EB42104A78012A0CBF00F5106000F598
:1039E0003060026822F400120260C978032918BF0F
:1039F000022903D1016841F0805101600020704725
:103A000000F500600901026822F4FE62026001F420
:103A1000FE610368194301600020704780B500F51E
:103A20000060416821F0020105E080B500F500600A
:103A3000416841F002014160032000F0CFF800200E
:103A400002BD0146486989690840704700F5006178
:103A50008869C9690840000C704700F500618869F1
:103A6000C969084080B27047024602EB411000F578
:103A7000306002F500628068516908407047024674
:103A800002F5006302EB411218695B6B01F00F0154
:103A900002F51062CB40DB01926803F0800318430B
:103AA00010407047406900F00100704700F5106158
:103AB00000F500600A68D20AD2020A60826802F049
:103AC0000602042A03D10A6842F003020A60416830
:103AD00041F480717EE010B5036CDFF8F440A3423E
:103AE00000F5306002D30368002B14D40023036177
:103AF0000129046944F400240461036943F01803B4
:103B00000361036943F0C043036104D1426101686A
:103B100041F080210160002010BDDFF89C2011469B
:103B2000491E0DD00369002BFAD5016941F001014E
:103B30000161521E04D00169CB07FAD400207047FE
:103B400003207047BFFFBDFF405327FF00350C0027
:103B5000401E1BFF40420F0000DC0BFF804F120095
:103B600018B9A06940F01000A061A1697047A06B6E
:103B700020F40020A063A06B20F48020A063704795
:103B8000808CF9FE20D6130060B6E5FE60E31600D7
:103B900000D3CEFE40771B00C05BB3FEC091210076
:103BA00000CA91FE20753800E05459FEE09C4100A7
:103BB0000001800000383C80410D030000800010AF
:103BC000007833EC0078F3EF0000F81FFFFF07E008
:103BD0000B30544F416000207047000038B5044658
:103BE00000F010F814F1010F054602D004480178E6
:103BF000641800F007F8401BA042FAD331BD00BFA3
:103C00000000002001484068704700BF000000200D
:103C100070B504008AB04BD0266804F56F756878DB
:103C200020B900212970204600F018FC032068709C
:103C3000F16BC8055CBF002121612068FFF70FFC14
:103C400083B000F048F80EBC2068FFF761FB002845
:103C50002CD120680021FFF708FC00211C20002641
:103C60000AE010FB01F222443C3201235370117030
:103C7000D180002300F028F862689142F1D300213E
:103C800009E010FB01F2224402F5FE7200231170DC
:103C9000537000F019F862689142F2D383B000F0DB
:103CA0001AF80EBC2068FFF7F4FB18B10220687008
:103CB000012007E084F83800012169702068FFF7CF
:103CC000B4FE00200AB070BD491CD6709360D66067
:103CD0005361C9B27047211D68463422FEF70CBEFD
:103CE00010B500F0B5FA01D1022010BD00F0B6FA0F
:103CF0002068FFF7B0FBC0E22DE9F04F054685B024
:103D0000286802900190FFF7CDFE002840F08A82DB
:103D100000F095FA002800F0858200F090FA800704
:103D200004D52868416901F00201416100F087FA79
:103D3000000340F1B5802868DFF8F0B4FFF786FE95
:103D40002E464FF0000805004FF4004744E0DFF82E
:103D5000E024924519D115E010B12020CAF80800DE
:103D600000F068FA5FEA09701BD53168D1F840A00D
:103D700001EB481101F5306188683269012AE6D10A
:103D8000DA4502D3000448BF8F60304600F0A4FB40
:103D9000DA4504D33069012801D100F053FA082034
:103DA000A0605FEAC96044BF1021A1605FEA89603A
:103DB00009D53169012904D1306806F57172FFF720
:103DC0008AFE2020A0605FEA894044BF4FF4005182
:103DD000A16008F101086D0861D0E807F9D53068E5
:103DE0005FFA88F1FFF740FE019C814604EB48141E
:103DF0005FEAC97004F53064B4D50121A160306870
:103E0000016C00EB481000F5306ADAF808203369DD
:103E1000012B02F0200037D113070ED5594503D3EB
:103E2000110448BFCAF80870304600F055FB00F096
:103E300009FA0820CAF8080094E708B12020F9E739
:103E400012F0280F8ED1594501D3110424D41C201F
:103E500000FB08F0304400F501700168DAF810202A
:103E6000C2F31202891A0161026841680A44426081
:103E700000F0E0F9B8F1000F04BFD6F810020028F6
:103E800001D100F0DFF96DE7DFF8A43399427FF448
:103E900067AF11047FF560AFCAF8087062E7354676
:103EA00000F0CDF9400340F1A3802868FFF7D5FD6D
:103EB0000600019800F500604FF00008049034E01F
:103EC000D4F808B0411A8B4588BF8B460BF103002C
:103ED0004FEA90092869C0B200901FFA8BF3E1689D
:103EE0005FFA88F25046FFF739FDE0685844E06019
:103EF000A1698B44C4F818B00AEB48126069A16943
:103F000002F5106293699BB24B4503D3814201D203
:103F10000028D5D1814205D30AF50067796B039853
:103F20000140796308F10108760861D0F007F9D5FE
:103F300028685FFA88F1FFF7A2FD0746019800EBB9
:103F4000481000F510691C22012108F00F0002FB47
:103F500008F28140AC18C943F807039120D50499B1
:103F60004A6B039802404A630120C9F80800296996
:103F7000012903D1A06C616C0144A1645FFA88F14E
:103F8000284600F0B9FA2869012808BFB8F1000FE7
:103F900006D1286D20B9286805F5717200F055F931
:103FA000380744BF0821C9F80810F80644BF10219B
:103FB000C9F80810780644BF4021C9F80810B807AE
:103FC00044BF0221C9F808103806ABD53C34A069BB
:103FD0006169D5F800A08142A4D3D4F80890081AEA
:103FE000814588BF814609F103004FEA900983E7C4
:103FF00000F025F9002819D5019800F50060416806
:1040000049084900416095F8F403012806D10021D0
:1040100085F8F413284600F061FB02E0284600F022
:104020009FFA2868416901F0004141612868019EBA
:10403000FFF707FD000506F500660AD5B168C80759
:1040400044BF284600F077FA2868416901F400610E
:10405000416105F5717400F0F2F8C0044CD5716847
:1040600049084900716010212868FFF7C3FA0198D8
:1040700000214FF67F3212E000EB411303F5106789
:1040800003F53063BA60491CD7F800C02CF4001C5B
:10409000C7F800C09A601F6827F400171F606B689C
:1040A0009942E9D3F06940F00110F061286B50B1FA
:1040B000D6F8840040F00B00C6F88400706C40F025
:1040C0000B00706409E0706940F4005040F02B0070
:1040D0007061306940F00B0030612246306820F496
:1040E000FE60306029692868C9B2FFF7F4FC2868CF
:1040F000416901F48051416100F0A1F8800416D5B6
:104100002868FFF7D3FC2868FFF795FAE86000F00D
:104110006CFB0146EA682868D2B2FFF735F92846F9
:1041200000F0F7F92868416901F40051416100F09D
:1041300086F8C00635D52868816921F010018161B3
:104140000298066A06F00F011C204143681800F52A
:10415000FE77C6F34340022812D147F6F0700642BC
:104160001AD0F9680298C6F30A12FFF709FCF96839
:10417000BA69C6F30A1001448018F960B8610BE00F
:10418000062809D1029808222146FFF7F9FBB969F0
:10419000C6F30A104118B9612868816941F010011D
:1041A000816100F04CF8000707D5284600F0ADF912
:1041B0002868416901F00801416100F040F8C0023F
:1041C00008D50021284600F0D3F92868416901F498
:1041D0008011416100F033F8800208D500212846A3
:1041E00000F0C2F92868416901F40011416100F052
:1041F00026F8400007D5284600F0BEF92868416936
:1042000001F08041416100F01AF840070AD52968A1
:104210004C68600744BF284600F0B2F9286841683E
:104220002143416005B0BDE8F08F00000B30544FD2
:104230000A31544F5FFA88F1304600F053B92868CC
:10424000FFF7FFBB306806F571720121FFF743BC31
:10425000044694F8BC232068012A7047A36A01220F
:10426000012B84F8BC2306D1A269012A03D0826BFA
:1042700042F480328263FFF7D1BB002084F8BC0394
:1042800010BD10B500F00BF801D1022010BD00F0F8
:104290000BF884F838102068FFF7B2FBEDE704460E
:1042A00094F8BC0301287047012084F8BC037047D0
:1042B00038B5054601F00F041C20444328190C06AC
:1042C00047BF00F13C04012000F5FE74002001F01E
:1042D0000F0160702170A260E370607808B12178EE
:1042E000E180022B04BF0020207195F8BC03012857
:1042F00001D1022032BD012085F8BC032146286887
:10430000FFF7A7F974E010B5044601F00F0200F0C2
:1043100097F800F088F801D1022010BD00F08AF86B
:10432000FFF7D4F9A9E738B500F01EF803F5FE73DE
:10433000002500F020F808BF1A6108E038B500F049
:1043400013F83C33012500F016F808BF1A61026922
:1043500000680029D2B2194602D1FFF79BFA01E0AA
:10436000FFF7EAF9002032BD1C4601F00F051C23BF
:104370005D43431970475C6101F00F0100249C61AB
:10438000DA605D7019700469012C704738B5054614
:104390000C46696804F00F00814201D2012032BD51
:1043A0001C21220605D54843284400F13C01012088
:1043B00005E011FB04F1681800F5FE71002048705B
:1043C00001228A7004F00F040C7095F8BC030128D8
:1043D00001D1022032BD85F8BC232868FFF7DFFA3F
:1043E00034B92969286805F57172C9B2FFF773FB02
:1043F000002085F8BC0332BD10B5044601F00F0261
:104400006068904201D2012010BD00F019F800232D
:10441000837000F008F801D1022010BD00F00AF806
:10442000FFF7D5FA29E701F00F01017094F8BC13EA
:1044300001297047012284F8BC2301462068704797
:104440001C204243A0180A0603D53C3001234370C8
:10445000704700F5FE7000224270704710B586B0BC
:104460000446142101A800F011FA2268B2F1A04F0D
:1044700030D100205B4C00900222216841F0010104
:1044800021604FF4C051206800F0010000900098B6
:104490005548019102920021039103220A210591BE
:1044A000049201A900F0F6F9606840F080006060B5
:1044B000002100910022606940F4804060616069E1
:1044C00000F4804000900098432000F0DBFA432085
:1044D00000F0F5FA06B010BD00F57171D0F80404D3
:1044E00000F048BB0B461C225343C218D0F804040A
:1044F000D2F8082200F068BB0B461C225343C218B6
:10450000D0F80404926C00F0A0BBD0F8040400F0D2
:104510002DBC10B50446E068022818BF00F0B8FCB6
:10452000D4F80404012100F010FCD4F80404BDE820
:10453000104000F0E1BB10B50446D4F8040400F0CC
:1045400007FC206800F56060016841F0010101602E
:10455000206A20B12548016841F00601016010BDC4
:10456000D0F8040400F0FCBBD0F8040400F00CBC4C
:10457000D0F8040400F006BCD0F8040400F006BC37
:10458000D0F8040400F004BC10B5017839BB184C15
:10459000C4F80404C0F898424FF0A0402060042101
:1045A000002002222061E06120626062E0622063FC
:1045B0006160E260A2612046FFF72AFB08B100F0CB
:1045C00067FC8021204600F085F84022002120462B
:1045D00000F05FF880220121204600F05AF8002008
:1045E00010BD0000303802400000024010ED00E035
:1045F000F402002080B5D0F89802FFF771FBBDE807
:1046000002403DE010B51C461346D0F89802224601
:10461000FFF74EFEBDE8104032E080B5D0F89802BA
:10462000FFF771FEEBE780B5D0F89802FFF7AEFE1A
:10463000E5E780B5D0F89802FFF7DEFEDFE7D0F8B7
:10464000982201F07F031C204343D018090602D5AD
:1046500090F83E00704790F8FE01704780B5D0F8A2
:104660009802FFF70EFECAE780B5D0F89802FFF770
:1046700065FEC4E780B5D0F89802FFF754FEBEE7A8
:104680000146002021B1022901D1012070470220FA
:10469000704770B50068436A0C0003D143EA0242D8
:1046A000826215E0846A03EB1443002406E000EB09
:1046B0008505641CD5F8046103EB1643E5B24E1E74
:1046C000B542F4D300EB810043EA0242C0F8002176
:1046D000002070BD006841620020704770470000F4
:1046E0002DE9F04104000F4654D04A4E306800F0E6
:1046F0000F00B84202D200F072F84BD12068464D4C
:10470000810712D5400703D5A96841F4E051A9609B
:104710002078010703D5A86840F46040A860A96824
:10472000A06821F0F0010143A9602178C80729D5CC
:104730006068012802D129688A0305E0022818BFB1
:10474000032803D129688A0103D423E029688A0752
:1047500020D5A968890840EA8100A860FFF752FACD
:104760008046A868616800F00C00B0EB810F09D0AA
:10477000FFF748FAA0EB080041F289318842F0D3F4
:1047800003202AE0306800F00F00874204D200F0D6
:1047900026F801D0012020E02078410705D5AA683D
:1047A000E06822F4E0520243AA602178080706D5A7
:1047B000A968206921F4604141EAC001A96000F0C4
:1047C00035F8AA681549164BC2F30312895CC84034
:1047D0001860002000F064FB0020BDE8F081377015
:1047E000316801F00F01B94270470D480068704709
:1047F0000B480C4A006813680B49C3F3822206E099
:104800000748084A006813680749C3F34232895CC5
:10481000C8407047003C02400038024080680008F1
:104820000C00002008380240DC69000830B5144C48
:10483000606800F00C00042802D0082802D01DE0B7
:10484000104830BD226820680023410202F03F0278
:1048500004D525680B49C5F3881003E020680A4990
:10486000C0F38810A1FB0001FEF716FC2168C1F31C
:104870000141491C4900B0FBF1F030BD024830BD98
:104880000438024040787D010024F400002200F04A
:1048900027BB00002DE9F84F4FF0000E644A654B2E
:1048A000DFF894814FF00F0906468A460121DAF8B5
:1048B000004001FA0EF10C408C4240F0AD80DAF875
:1048C0000450022D18BF122D4FEA8E0012D14FEA6C
:1048D000DE0506EB850C00F01C05DCF8207009FAFB
:1048E00005FB27EA0B07DAF810B00BFA05F53D4394
:1048F000CCF820504FEA4E0C032537689AF804B0E4
:1049000005FA0CF5ED430BF0030B2F400BFA0CFBF3
:104910004BEA07073760DAF80470012F18BF022F3F
:1049200003D0112F18BF122F13D1B768DAF80CB0CB
:104930002F400BFA0CFB4BEA0707B760776827EAB2
:104940000101DAF80470C7F3001707FA0EF73943CC
:104950007160F1680D40DAF8081001FA0CF1294392
:10496000F160DAF80410C90056D50025009500F072
:104970000C00D8F8001041F48041C8F8001009FA82
:1049800000F7D8F8005005F48045009500994FEAEB
:104990009E0153F8215025EA0707284DAE4208BF73
:1049A000002513D0264DAE4208BF01250ED0254D5F
:1049B000AE4208BF022509D0234DAE4208BF0325F1
:1049C00004D0224DAE420CBF0425072505FA00F0A5
:1049D000384343F82100E0431168DAF804500140FD
:1049E000ED0348BF214311605168DAF804500140DB
:1049F000AD0348BF214351609168DAF8045001408B
:104A0000ED0248BF21439160D1680140DAF804000B
:104A1000800248BF2143D1600EF1010EBEF10F0F9D
:104A20007FF644AFBDE8F18F02B909048161704798
:104A3000003C014008380140443802400000024078
:104A40000004024000080240000C02400010024036
:104A50000901020002D4294881547047284B02F012
:104A60000F021A4402F8041C7047264B19684FF6CF
:104A7000FF020002114000F4E060084322490843AD
:104A80001860704770B51F4B1C68C4F302230124E3
:104A9000C3F10705052D2EBF0F2504FA05F56D1E80
:104AA0001E1D072E34BF0023DB1E2940994004FA47
:104AB00003F3BDE870405B1E1A401143C8E70100D4
:104AC00007D4012200F01F01104B8A40400943F82F
:104AD0002020704710B5401EB0F1807F01D3012027
:104AE00010BD0B4C60600F214FF0FF30FFF7B0FF9F
:104AF0000021A16007202060002010BD00E400E03C
:104B000018ED00E00CED00E00000FA0500E100E027
:104B100010E000E038B508B9022032BD00F51D7480
:104B2000A3690BB10025A56101B16161012121706B
:104B30000270FFF729FD002032BD0246002011B1AE
:104B4000C2F88C1270470220704780B5FFF752FD03
:104B5000002002BD10B5D0F88C2202241AB11268D0
:104B6000904700B90024204610BD80B5D0F88C22B3
:104B7000536816E138B5044604F52075284600F060
:104B8000A7FB04F51B7001210160428B017D42608F
:104B900011F01F0003D002280BD005D30EE02946E8
:104BA000204600F0B7F90DE02946204600F0D2FA81
:104BB00008E02946204600F0F7FA03E001F0800102
:104BC00000F040F8002032BD38B5044610460A0017
:104BD00004F51B7329D1196803291ED104F5A671A8
:104BE0004A680D68AA420BD2AD1A0D60954238BFD3
:104BF0002A46014692B2204600F0C7FB002032BD93
:104C0000196A086928B1187A032802D1096920466F
:104C10008847204600F0C1FBF0E70529EED10020CF
:104C20001860002100F00EF8E8E71A6A906930B1C8
:104C3000187A032803D1926920469047DEE70220C4
:104C400032BD80212046FFF7EEBC38B5044608008F
:104C5000134604F51B7543D12868022833D1226A14
:104C6000616A914207D2521A2262194692B22046D4
:104C700000F079FB11E0E269B2FBF1F001FB1020DA
:104C800090B98A4210D3686882420DD20022002176
:104C9000204600F068FB002068600023002200210D
:104CA0002046FFF7E7FC14E0296AC86828B1287A93
:104CB000032802D1C96820468847FFF7C2FF204673
:104CC00000F072FB05E0042818BF002801D1FFF7AF
:104CD000B8FF287B012804BF00212973002032BDC2
:104CE0002A6A506930B1287A032803D152692046D4
:104CF0009047F3E7022032BD38B504464023002236
:104D00000021FFF77FFC04F5A27001214022016021
:104D1000C2604023002280212046FFF773FC01205F
:104D2000402104F51B72A0616162107200211160C4
:104D300061600025506A156128B1126A6168536884
:104D4000C9B220469847002032BD01740020704748
:104D500000F51D7004220178417002700020704738
:104D600000F51D70417801700020704780B500F596
:104D70001D710A78032A03D18969C96901B188477D
:104D8000002002BD002070470020704700207047BF
:104D900080B500F51D720123137092694168536854
:104DA000C9B29847002002BD01B54FF6FF7301223A
:104DB0006946344800F03BFB009802BD80B500F026
:104DC00085FC00F014F800F09BFC00F0E3FC00F020
:104DD00037FD00F087FD00BF2EA000F0ADFD00F014
:104DE000BFFDC820FEF7FAFE00F000FEFEE780B52A
:104DF00092B0302106A8FFF749FD142101A8FFF762
:104E000045FD002000904FF480331F48016841F0B9
:104E1000805101600021006800F0805000900098EF
:104E20001A480091026822F4404242F400420260B3
:104E30000122006800F44040009006A80099069204
:104E400002214FF480020C910D9219214FF4A872A7
:104E50000E910F920421072207931091119200F0F6
:104E6000A7FE022102910F204FF4805101900022F1
:104E7000049103920592022101A8FFF731FC13B0BF
:104E800000BD0000140E00204038024000700040B9
:104E90007047000068656C6C6F20776F726C6400FF
:104EA00038B50D4D0D4B2A7804464FF47A711868C9
:104EB000B1FBF2F2B0FBF2F0FFF70CFE50B9102C90
:104EC00008D2002221464FF0FF30FFF7DBFDAC6037
:104ED000002032BD012032BD000000200C00002067
:104EE00000B500BF130096469446103928BFA0E8CD
:104EF0000C50FAD85FEA417C28BF0CC048BF40F88C
:104F0000042BC90728BF20F8022B48BF00F8012B4B
:104F100000BD0000F8B500F03EF904F51D7609D09B
:104F2000202818BF402840F0C680B2699368204608
:104F300098470AE168780928F5D8DFE810F0E3001F
:104F4000FB00BC00F500BC007E000A00BC00D100E4
:104F50009A006888010A012952D0022943D0032906
:104F600015D006290BD0072904BF207C002869D161
:104F7000B1690A6B684690470721417045E0207C83
:104F800000285FD1B1694A6B684690473DE0C0B2E6
:104F9000052857D8DFE800F0211B150F09037269B7
:104FA000207C9369694698472FE07269207C536999
:104FB0006946984729E07269207C136969469847D9
:104FC00023E07269207CD368694698471DE07269C6
:104FD000207C93686946984717E07269207C536883
:104FE0006946984711E0207CB1690028684602D1E3
:104FF000896A884701E0C96A88470222427004E052
:105000007269207C136869469847BDF8001081B129
:10501000E988002910D0BDF80010EA88914288BFC5
:105020001146ADF800100146BDF80020204600F002
:1050300092F9E88800281BD185E0A888002804BFE1
:10504000E888002837D16F88802F34D23078032841
:1050500007F07F072FD0B77039462046FFF7FEFADA
:1050600000F09FF8002F07BF01213170022030703F
:105070006BE0374F688838703978084602281AD2B2
:105080003278022A1AD0032A23D131B90220307093
:1050900061602046FFF769FD55E06168884252D0A3
:1050A000C9B22046FFF761FD397861602046FFF7FD
:1050B00051FD022847D100F008F946E0002942D00E
:1050C0006060032030702046FFF744FD0228F2D0D4
:1050D00039E000F0FAF839782046FFF746FD34E071
:1050E000E8880128E7D13178491E012904D9891EB1
:1050F000E1D10122211D13E00020A060012204F172
:1051000008010DE03078401E0228D4D8EA88022A2F
:10511000D1D1B068012100B10321E16004F10C019B
:10512000204600F018F910E0688801280DD101210F
:10513000B16008E03078401E0228BCD86A88012A95
:1051400003D10020B06000F02CF80020F2BD000078
:105150007E0E002038B500F01EF81CBF2028402825
:1051600015D104F51D721078401E02280FD82B7936
:10517000022B0CD292699368204698470146E88832
:10518000002808BF002904D100F00BF801E000F06E
:105190009DF8002032BD0D460446287810F06000CE
:1051A0007047204600F0F9B8F8B50A780446087947
:1051B00012F0600504F51D7308D0202D18BF402D96
:1051C00066D19A6993682046984763E002F06002CE
:1051D000202A05D19A6993682046BDE8F440184713
:1051E0004A787AB3012A11D0032A51D11B78022BB5
:1051F00012D0032B4CD14A880ABB002818BF802844
:105200001DD0C988D9B900F05CF818E01A78022AD4
:1052100002D0032A0AD03BE0002818BF802837D0EC
:1052200000F04FF8802100F04DF833E04A888ABB47
:1052300010F07F0103D001462046FFF7FAF9FFF78F
:10524000B0FF27E0142600F07F021B787243A718F6
:10525000022B07F5A07500F0800202D0032B0FD0BF
:1052600016E0002818BF802812D10AB107F11405F2
:105270000020286002222946204600F06CF809E050
:1052800000F00F0316FB03F6A3192AB19A696AB955
:1052900000F01CF80020F2BDD3F84421002AF7D01A
:1052A000002818BF802804D10020E2E707F1140588
:1052B000F6E701462046FFF7C2F90028D9D00120C1
:1052C000D7E701462046FFF7AEB92946204614E04D
:1052D00010B50A7802704B7843708A78CB7802EB6D
:1052E000032444800A794B7902EB032484808A7971
:1052F000C97902EB0123C38010BD10B5044680219B
:10530000FFF791F92046BDE810400021FFF78BB967
:1053100000280B4600D1704770B50146002400E01C
:10532000641C11F8015B002DFAD12406E40DA41CC5
:1053300014801178197003225A70022207E010F8C5
:10534000011BD4B2521C1955D6B2521C9D5501787E
:105350000029F4D170BD80B513460222C0F86C223A
:10536000C361036201E080B513460A460021FFF7DE
:105370007BF9002002BD80B513460322C0F86C22E1
:1053800000F5A4721360536001E080B513460A462D
:105390000021FFF76FF9002002BD80B50421C0F89D
:1053A0006C1200230022E1E780B50521C0F86C12E1
:1053B00000230022ECE7000038B5040001D10120F1
:1053C00032BD00F021F808B900F022F800F012F820
:1053D00000F023F8FFE7416100F001F832BD2068DA
:1053E000C16841F40051C1600020686020216970EB
:1053F000A9707047242068702068C16821F40051AA
:10540000C160204600F09EB804F138056878704706
:1054100000212970204600F02ABA2068016921F491
:10542000904101612068416921F02A0170472DE90E
:10543000F843054605F138070C46787820281646CB
:10544000984646D1002C14BF002E012042D0387857
:1054500001283ED0012139700020786021227A7025
:10546000FEF7D0FBAE848146EE8403E0296814F891
:10547000010B4860E88CE0B1E88C411EE9844B46A2
:10548000A868CDF80080B0F5805F0DD100F024F859
:10549000B8B920882968C0F3080048602869002846
:1054A00014BF641CA41CE5E700F016F80028DDD04A
:1054B00007E0CDF800804B460022402100F00EF8B6
:1054C00008B1032006E02020787000213970002008
:1054D00000E00220BDE8F283002280212846FFE799
:1054E0002DE9F041069C05460E4690461F46286869
:1054F00001683140B1420CBF01200020404517D166
:1055000014F1010FF3D024B1FEF77CFBC01B8442E1
:10551000EDD22868C16821F4D07100F00CF805F1D3
:10552000380020214170817000210170032000E0CB
:105530000020BDE8F081C160286841694908490040
:10554000416170472DE9F0470446642522681169DE
:10555000E06821F44051014311611926D36849489C
:10556000A168034020690B4361690343E0690B4371
:105570000343D3605169A06921F440710143516133
:10558000E36941484149B3F5004F3BD18A4218BF16
:1055900082420ED1FFF734F90746FFF731F9804612
:1055A000FFF72EF98146FFF72BF98246FFF728F91E
:1055B0000DE0FFF71DF90746FFF71AF98046FFF7E0
:1055C00017F98146FFF714F98246FFF711F9616870
:1055D000490000F06CF8AE46BCFBFEFE05FB1E77F2
:1055E000FF0032376423B7FBF3F35B0003F4F87377
:1055F00000F04EF8ED0032356420B5FBF0F000F01D
:10560000070039E08A4218BF82420ED1FFF7F8F84E
:105610000746FFF7F5F88046FFF7F2F88146FFF7F7
:10562000EFF88246FFF7ECF80DE0FFF7E1F80746E8
:10563000FFF7DEF88046FFF7DBF88146FFF7D8F882
:105640008246FFF7D5F86168890000F030F8AE4671
:10565000BCFBFEFE05FB1E773F0132376423B7FB20
:10566000F3F303F0F00300F013F82D01323564205A
:10567000B5FBF0F000F00F002168C3188B60BDE8A7
:10568000F0870000F369FFFF0014014000100140A3
:1056900003EB021306FB0AF74643B7FBF1F2B6FB36
:1056A000F1F06421B0FBF1F105FB11257047774360
:1056B000B7FBF1F36422B3FBF2F206FB08F3B3FB92
:1056C000F1F706FB09F3B3FBF1FC704780B50B481B
:1056D000016841F400710160026842F48062026076
:1056E000016841F4807101600320FFF7BEF90020DA
:1056F000FFF7D6FB00F0C4FB002002BD003C0240D7
:1057000010B586B01422002101A800F0D5FB0021BD
:105710001E481F4C0091026842F004020260002201
:10572000016801F00401009100990092036843F0C0
:1057300080030360016801F08001009100990092EC
:10574000036843F001030360016801F00101009167
:10575000009900924FF40051036843F00203036084
:10576000006800F00200009000982046FFF75CF906
:105770004FF4005101910122002103910491029202
:1057800001A92046FFF786F806B010BD3038024068
:1057900000080240254A2648264980B54260002379
:1057A0004FF4804201608360C360026143618361A2
:1057B000C361036200F08AFB18B1BDE80140FFF746
:1057C00067BB01BD10B586B004461422002101A8B4
:1057D00000F072FB21681748814224D10022164C48
:1057E00000921222206840F002002060216801F03F
:1057F00002010091C02100981048019102920121FC
:105800000391032204210591049201A9FFF742F8B4
:1058100000200090216941F400112161206900F409
:1058200000100090009806B010BD0000A086010096
:10583000700D002000540040303802400004024047
:1058400080B52448244901604FF4E13200230C2143
:1058500042608360C360036141618361C361FFF79C
:10586000ABFD18B1BDE80140FFF712BB01BD10B59B
:1058700086B004461422002101A800F01DFB216817
:105880001548814224D1002214480092416941F018
:1058900010014161416901F01001009100990092ED
:1058A0004FF4C061036843F0010303600222006803
:1058B00000F0010000900098094801910292012136
:1058C0000391032207210591049201A9FEF7E2FF4B
:1058D00006B010BD140E0020001001403038024008
:1058E0000000024010B5104C104900222046FFF77E
:1058F00011F908B1FFF7CCFA0D492046FFF71DF961
:1059000008B1FFF7C5FA0B49204600F047FE08B181
:10591000FFF7BEFA2046FFF718F918B1BDE81040AE
:10592000FFF7B6BA10BD00BFFC060020DC01002066
:1059300008010020F80000200EB4C0B5024603A8FC
:1059400000210190009101AB0121044878440C3002
:10595000FBF7AEFE06BC5DF810FB00BF4310000075
:105960007FB50FF23021DFF8C4410A6803A84FF475
:105970007A75026000F002F900F0EAF800F0CAF867
:1059800000F028F8002500F017F86D1CE8B2122886
:10599000F9DB122500F0C5F80DF10D0200F011F849
:1059A0006D1CE8B22428F5DB242500F005F86D1CF9
:1059B000E8B2B428F9DB7FBD4FF47A7001210DF114
:1059C0000E020290019100920123EAB2A02120462A
:1059D00000F01ABB01210DF10D0201910092029518
:1059E0000123FD22A021204600F00EBBF8B50FF2E6
:1059F000A815DFF83C112E68A8B003AC04A82660F7
:105A00009022FCF779FF012003A9019000914FF447
:105A10007A75DFF81841FFF7E2FF01210DF10D0261
:105A20000191009200F0A3F800F06CF8012200F060
:105A30008BF800F067F8022200F086F800F07CF89E
:105A4000042200F081F800F05DF8092200F07CF8F3
:105A500001210DF10F020191009200F05BF801218C
:105A60000DF10D0200F07AF8FFF7B4FFDFF8C45033
:105A70000FF2281604AF14E000F03BF8242200F0E7
:105A800063F800F036F8542200F05EF800F031F8C8
:105A9000842200F059F80020687028703220FEF748
:105AA0009DF84FF47A701221029001910096012323
:105AB0000022A021204600F0A7FA4FF0010C0AE0D6
:105AC000785C083803E00128FAD1785C0830785413
:105AD0001872491C297029780829CDDA04A84318BE
